:1000000045C0000060C000005EC000005CC0000091
:100010005AC0000058C0000056C0000054C0000084
:1000200052C0000050C000004EC000004CC0000094
:100030004AC00000BDC0000046C0000044C000002F
:1000400042C0000040C000003EC000003CC00000B4
:100050003AC0000038C0000036C0000034C00000C4
:1000600032C0000030C000002EC000002CC00000D4
:100070002AC0000028C0000026C0000024C00000E4
:1000800022C0000020C000001EC0000011241FBEBE
:10009000CFEFD0E4DEBFCDBF11E0A0E0B1E0EEE1F4
:1000A000F4E000E00BBF02C007900D92A633B10749
:1000B000D9F721E0A6E3B1E001C01D92AB33B2074E
:1000C000E1F7CBD0AAC19CCF181619065CF00895B1
:1000D000000021503109E1F74F5F5F4F841795070A
:1000E00019F4089540E050E027E033E0F1CF28987C
:1000F0008BB9299A0000299882E090E0E5CF089515
:1001000081E0F5CF0895813118F48158F0CF08953A
:100110008155EDCF089584E690E0D6DF88E3E7DFF0
:1001200086E0E5DF8FE0E3DF81E0E1DF8AE090E079
:10013000CBCF0895289A8BB9299A0000299881E09D
:1001400090E0C2CF08956093000170930101809305
:1001500002019093030160933601709337018093FD
:1001600038019093390108958BE0809381008DE7E9
:1001700090E0909389008093880082E080936F00E4
:1001800010928500109284008091000190910101ED
:10019000A0910201B0910301809336019093370141
:1001A000A0933801B09339018FB780688FBF08954D
:1001B0001F920F920FB60F9211248F939F93AF93BC
:1001C000BF938091360190913701A0913801B09191
:1001D00039010197A109B109809336019093370144
:1001E000A0933801B0933901892B8A2B8B2B99F47A
:1001F00081E080933A018091000190910101A091EA
:100200000201B09103018093360190933701A093CE
:100210003801B0933901BF91AF919F918F910F90A9
:100220000FBE0F901F9018950F931F93CF93DF93DE
:100230008B01880F880F880F805C59DFE801095F08
:100240001F4F899177DFC017D107D9F780E84FDFBB
:10025000DF91CF911F910F910895CF93DF93CDB789
:10026000DEB7E1970FB6F894DEBF0FBECDBF8FEFBC
:1002700084B915B88AB91BB887E0E4E0F1E0DE0183
:10028000119601900D928A95E1F787E0EBE0F1E09D
:10029000DE01189601900D928A95E1F787E0E2E180
:1002A000F1E0DE011F9601900D928A95E1F787E05B
:1002B000E9E1F1E0DE01569601900D928A95E1F7B1
:1002C00087E0E0E2F1E0DE015D9601900D928A9513
:1002D000E1F787E0E7E2F1E0DE01949601900D920C
:1002E0008A95E1F787E0EEE2F1E0DE019B9601906E
:1002F0000D928A95E1F70FDF88E3F9DE8CE0F7DEF7
:1003000068EE73E080E090E01EDF2EDFF9DEBE01D4
:100310006F5F7F4F80E088DFBE01685F7F4F81E0C5
:1003200083DFBE01615F7F4F82E07EDFBE016A5ED8
:100330007F4F83E079DFBE01635E7F4F84E074DF2F
:10034000BE016C5D7F4F85E06FDFBE01655D7F4F55
:1003500086E06ADF81E0D7DE80E0ECDE82E0D3DE9B
:1003600080E2E8DE83E0CFDE81E0E4DE84E0CBDE25
:1003700080E2E0DE85E0C7DE82E0DCDE86E0C3DE30
:1003800080E2D8DE87E0BFDE88E4D4DE88E0BBDE32
:1003900085E4D0DE89E0B7DE8CE4CCDE8AE0B3DE33
:1003A0008CE4C8DE8BE0AFDE8FE4C4DE8CE0ABDE35
:1003B00080E2C0DE8DE0A7DE83E0BCDE8EE0A3DE5F
:1003C00084E0B8DE8FE09FDE85E0B4DE80E19BDE76
:1003D00085E0B0DE81E197DE86E0ACDE82E193DE8F
:1003E00080E2A8DE83E18FDE83E0A4DE84E18BDEA1
:1003F00084E0A0DE85E187DE85E09CDE86E183DEA9
:1004000085E098DE87E17FDE86E094DE80913A0128
:0E0410008823E1F310923A017ACFF894FFCFDF
:10041E0001000000150A150A150A15000E1B111B06
:10042E000E0000110004110E001F15151115151FD9
:10043E001F11171317111F1F17171717111F1F1132
:06044E00151515111F0039
:00000001FF
