S01800004763634170706C69636174696F6E31302E737265632A
S113000035C1000052C1000050C100004EC10000C3
S11300104CC100004AC1000048C1000046C10000B4
S113002044C1000042C1000040C100003EC10000C4
S11300303CC10000D0C1000038C1000036C100003E
S113004034C1000032C1000030C100002EC10000E4
S11300502CC100002AC1000028C1000026C10000F4
S113006024C1000022C1000020C100001EC1000004
S11300701CC100001AC1000018C1000016C1000014
S113008014C1000012C1000010C1000000000000F3
S11300900000005F00000007000700147F147F14B5
S11300A0242A7F2A122313086462364955225000F9
S11300B005030000001C2241000041221C0014081A
S11300C03E081408083E08080050300000080808DC
S11300D00808006060000020100804023E514945F1
S11300E03E00427F400042615149462141454B3127
S11300F01814127F1027454545393C4A49493001B7
S1130100710905033649494936064949291E00360D
S1130110360000005636000008142241001414145E
S1130120141400412214080201510906324979418C
S11301303E7E1111117E7F494949363E414141229B
S11301407F4141221C7F494949417F090909013EF8
S11301504149497A7F0808087F00417F41002040D7
S1130160413F017F081422417F404040407F020C00
S1130170027F7F0408107F3E4141413E7F09090907
S1130180063E4151215E7F091929464649494931B4
S113019001017F01013F4040403F1F2040201F3F9D
S11301A04038403F6314081463070870080761511E
S11301B0494543007F4141000204081020004141A9
S11301C07F00040201020440404040400001020458
S11301D00020545454787F484444383844444420DC
S11301E0384444487F3854545418087E0901020C9A
S11301F05252523E7F0804047800447D400020405F
S1130200443D007F1028440000417F40007C0418D6
S113021004787C0804047838444444387C14141466
S113022008081414187C7C08040408485454542006
S1130230043F4440203C4040207C1C2040201C3C87
S11302404030403C44281028440C5050503C4464F6
S1130250544C44000836410000007F000000413641
S113026008001008081008204248422011241FBE2C
S1130270CFEFD0E4DEBFCDBF11E0A0E0B1E0E6E215
S1130280FEE100E00BBF02C007900D92A43DB10750
S1130290D9F723E0A4EDB1E001C01D92A83DB20757
S11302A0E1F70E94CA0E0C94110FAACE2A98662375
S11302B011F02C9A15C02C9813C0AC01022E02C068
S11302C0559547950A94E2F740FF02C02D9A01C064
S11302D02D982E9A2E982150310978F72A9A08954C
S11302E027E030E090E0E9CF60E0E0CF0895181611
S11302F019065CF00895000021503109E1F74F5FC1
S11303005F4F8417950719F4089540E050E027E003
S113031033E0F1CF28988BB9299A0000299882E01C
S113032090E0E5CF089581E0F5CF0895813118F488
S11303308158F0CF08958155EDCF089584E690E07B
S1130340D6DF88E3E7DF86E0E5DF8FE0E3DF81E007
S1130350E1DF8AE090E0CBCF0895289A8BB9299AFF
S11303600000299881E090E0C2CF089560930301D2
S11303707093040180930501909306016093D00368
S11303807093D1038093D2039093D30308958BE0A9
S1130390809381008DE790E090938900809388009A
S11303A082E080936F001092850010928400809107
S11303B0030190910401A0910501B091060180937D
S11303C0D0039093D103A093D203B093D3038FB7F8
S11303D080688FBF08951F920F920FB60F92112459
S11303E08F939F93AF93BF938091D0039091D10348
S11303F0A091D203B091D3030197A109B1098093CD
S1130400D0039093D103A093D203B093D303892B49
S11304108A2B8B2B99F481E08093D4038091030180
S113042090910401A0910501B09106018093D0033D
S11304309093D103A093D203B093D303BF91AF9110
S11304409F918F910F900FBE0F901F901895CF938F
S1130450DF93229A239A249A259A269A2B9A2A9AE7
S113046083EC99E00197F1F700C000002B988BE52D
S113047094E40197F1F700C000002B9A2A9881E2D6
S113048033DF83E131DF86E02FDF82EC2DDF80E292
S11304902BDF89E029DF80E827DF80E425DFC8EF50
S11304A0D1E061E080E002DF2197D9F788E01CDF2A
S11304B08CE01ADFDF91CF91089580E815DF80E4A6
S11304C013DF1092CE031092CF03E6EDF1E08EEC31
S11304D093E01192E817F907E1F70895262F26957E
S11304E02695269590E034E5239F800D911D1124D7
S11304F0442379F0FC01EA52FE4F677081E090E0FA
S113050002C0880F991F6A95E2F79081892B808336
S11305100895FC01EA52FE4F677081E090E002C04A
S1130520880F991F6A95E2F78095908189238083CB
S113053008955F926F927F928F929F92AF92BF9233
S1130540CF92DF92EF92FF920F931F93CF93DF939B
S1130550562E262F30E04901880C991C880C991CD2
S1130560820E931E181419040CF05BC08901000F4D
S1130570111F000F111F000F111F021B130B612C01
S1130580A82EB12CC50180975C01AA0CBB1CAA0C37
S1130590BB1CA80EB91E0F2EFFECCF2EF3E0DF2EEE
S11305A0F02D0F2EFEECEF2EF3E0FF2EF02D2BC0DE
S11305B0FE01249130E0872D652D0E94050F02C0B5
S11305C0359527958A95E2F720FF09C0F6016081E9
S11305D0670DF701808141E0860D80DF08C0F601D8
S11305E06081670DF701808140E0860D77DF7394A9
S11305F0872D90E080179107DCF26394862D90E0BC
S11306008815990574F410161106BCF7862D652D0E
S11306100E94050FE501C80FD11DC457DF4F712C8F
S1130620C7CF8091CE0391E0980F852D880F880F56
S1130630850D890F843518F48093CE030EC0109273
S1130640CE03EFECF3E0808191E0980F852D880FC5
S1130650880F880F8519890F80838091CF03803399
S113066020F01092CE031092CF03DF91CF911F910F
S11306700F91FF90EF90DF90CF90BF90AF909F903D
S11306808F907F906F905F9008951F93CF93DF9327
S1130690EC018881882339F0162F2196612F49DFD8
S11306A089918111FBCFDF91CF911F9108950F9311
S11306B01F93CF93DF9380E817DE80E415DEC6ED49
S11306C0D1E00EEC13E061E08991F0DDC017D107B1
S11306D0D1F7DF91CF911F910F910895CF93DF93BD
S11306E0C82FD62FEADECE3139F461E083E321DF6F
S11306F061E080E31EDF11C0CC3339F461E086E3AE
S113070018DF61E080E315DF08C0CA3531F461E029
S113071089E30FDF61E080E30CDF61E087EA91E0C9
S1130720B4DF1092CE038AE08093CF03D11105C0C9
S113073061E080EB91E0A9DF0BC0D13029F461E0E6
S11307408BEB91E0A2DF04C061E088EC91E09DDFD7
S1130750AEDFDF91CF9108950F931F93CF93DF9373
S11307608B01880F880F880F805CD4DDE801085F57
S11307701F4F8991F2DDC017D107D9F780E8CADD90
S1130780DF91CF911F910F910895CF93DF93CDB750
S1130790DEB7A8970FB6F894DEBF0FBECDBF88E0D2
S11307A0E7E0F1E0DE01119601900D928A95E1F700
S11307B088E0EFE0F1E0DE01199601900D928A9550
S11307C0E1F788E0E7E1F1E0DE01519601900D9256
S11307D08A95E1F788E0EFE1F1E0DE0159960190B6
S11307E00D928A95E1F788E0E7E2F1E0DE01919667
S11307F001900D928A95E1F7BE016F5F7F4F80E013
S1130800ABDFBE01675F7F4F81E0A6DFBE016F5E95
S11308107F4F82E0A1DFBE01675E7F4F83E09CDFF4
S1130820BE016F5D7F4F84E097DF81E07FDD80E074
S113083094DD82E07BDD81E090DD83E077DD80E2A2
S11308408CDD84E073DD82E088DD85E06FDD83E0AC
S113085084DD86E06BDD84E080DD87E067DD80E2B7
S11308607CDD88E063DD80E278DD89E05FDD80E2C5
S113087074DD8AE05BDD80E270DD8BE057DD86E3CA
S11308806CDD8CE053DD80E368DD8DE04FDD80E2DC
S113089064DD8EE04BDD83E560DD8FE047DD85E4DC
S11308A05CDD80E143DD83E458DD81E13FDD89E304
S11308B054DD82E13BDD80E350DD83E137DD80E21E
S11308C04CDD84E133DD83E548DD85E12FDD85E41E
S11308D044DD86E12BDD83E440DD87E127DD80E232
S11308E03CDD88E123DD80E238DD89E11FDD80E243
S11308F034DD8AE11BDD80E230DD8BE117DD80E24F
S11309002CDD8CE113DD80E228DD8DE10FDD80E25A
S113091024DD8EE10BDD80E220DD8FE107DD80E266
S11309201CDD80E203DD80E218DDA8960FB6F894A2
S1130930DEBF0FBECDBFDF91CF910895CF93DF937C
S1130940CDB7DEB7A8970FB6F894DEBF0FBECDBF04
S113095088E0EFE2F1E0DE01119601900D928A95B4
S1130960E1F788E0EFE0F1E0DE01199601900D92E5
S11309708A95E1F788E0E7E1F1E0DE015196019024
S11309800D928A95E1F788E0EFE1F1E0DE015996F6
S113099001900D928A95E1F788E0E7E2F1E0DE014B
S11309A0919601900D928A95E1F7BE016F5F7F4F9A
S11309B080E0D2DEBE01675F7F4F81E0CDDEBE0105
S11309C06F5E7F4F82E0C8DEBE01675E7F4F83E0CB
S11309D0C3DEBE016F5D7F4F84E0BEDE81E0A6DC36
S11309E083E3BBDC82E0A2DC80E3B7DC83E09EDC53
S11309F080E2B3DC84E09ADC83E5AFDC85E096DC5E
S1130A0085E4ABDC86E092DC83E4A7DC87E08EDC63
S1130A1080E2A3DC88E08ADC80E29FDC89E086DC7B
S1130A2080E29BDC8AE082DC80E297DC8BE07EDC87
S1130A3080E093DC8CE07ADC81E08FDC8DE076DC96
S1130A4080E28BDC8EE072DC82E087DC8FE06EDC9F
S1130A5083E083DC80E16ADC84E07FDC81E166DCC6
S1130A6089E37BDC82E162DC80E377DC83E15EDCCA
S1130A7080E273DC84E15ADC83E56FDC85E156DCDB
S1130A8085E46BDC86E152DC83E467DC87E14EDCE1
S1130A9080E263DC88E14ADC80E25FDC89E146DCF9
S1130AA080E25BDC8AE142DC80E257DC8BE13EDC05
S1130AB080E253DC8CE13ADC80E24FDC8DE136DC11
S1130AC080E24BDC8EE132DC80E247DC8FE12EDC1D
S1130AD080E243DC80E22ADC80E23FDCA8960FB6A9
S1130AE0F894DEBF0FBECDBFDF91CF910895CF93B1
S1130AF0DF93CDB7DEB7A8970FB6F894DEBF0FBE6D
S1130B00CDBF88E0E7E3F1E0DE01119601900D929C
S1130B108A95E1F788E0EFE0F1E0DE0119960190B3
S1130B200D928A95E1F788E0E7E1F1E0DE01519664
S1130B3001900D928A95E1F788E0EFE1F1E0DE01A2
S1130B40599601900D928A95E1F788E0E7E2F1E089
S1130B50DE01919601900D928A95E1F7BE016F5FD7
S1130B607F4F80E0F9DDBE01675F7F4F81E0F4DDF8
S1130B70BE016F5E7F4F82E0EFDDBE01675E7F4F97
S1130B8083E0EADDBE016F5D7F4F84E0E5DD81E057
S1130B90CDDB83E3E2DB82E0C9DB80E3DEDB83E001
S1130BA0C5DB80E2DADB84E0C1DB83E5D6DB85E00C
S1130BB0BDDB85E4D2DB86E0B9DB83E4CEDB87E012
S1130BC0B5DB80E2CADB88E0B1DB80E2C6DB89E02A
S1130BD0ADDB80E2C2DB8AE0A9DB80E2BEDB8BE036
S1130BE0A5DB86E3BADB8CE0A1DB80E3B6DB8DE03A
S1130BF09DDB80E2B2DB8EE099DB83E5AEDB8FE048
S1130C0095DB85E4AADB80E191DB83E4A6DB81E16B
S1130C108DDB80E0A2DB82E189DB81E09EDB83E186
S1130C2085DB80E29ADB84E181DB82E096DB85E18F
S1130C307DDB83E092DB86E179DB84E08EDB87E198
S1130C4075DB80E28ADB88E171DB80E286DB89E1A7
S1130C506DDB80E282DB8AE169DB80E27EDB8BE1B3
S1130C6065DB80E27ADB8CE161DB80E276DB8DE1BF
S1130C705DDB80E272DB8EE159DB80E26EDB8FE1CB
S1130C8055DB80E26ADB80E251DB80E266DBA8961A
S1130C900FB6F894DEBF0FBECDBFDF91CF9108959C
S1130CA08091D6038130C9F030F0823079F18330FD
S1130CB009F445C05DC0809101018E3121F481E0C9
S1130CC08093D60369C08C3321F482E08093D603E9
S1130CD065C083E08093D60363C0019904C082E0B9
S1130CE08093D6035BC0029904C083E08093D6034B
S1130CF057C0049951C0049BFECF8EE1809301013B
S1130D001092D40181E08093000146C0039904C08D
S1130D1081E08093D60340C0029904C083E08093AD
S1130D20D6033EC004993AC0049BFECF8CE3809363
S1130D3001011092D40181E0809300012FC0009939
S1130D4004C081E08093D60327C0019904C082E0E7
S1130D508093D60323C0049923C0049BFECF8AE565
S1130D60809301011092D40181E08093000118C0A6
S1130D70813091F028F0823089F0833091F410C0F2
S1130D80809101018E3111F400CD08958C3311F45A
S1130D90D5CD0895ACCE0895F8CC0895CFCD08955F
S1130DA0A6CE0895CF93DF93CDB7DEB7A0970FB645
S1130DB0F894DEBF0FBECDBF88E0EFE1F1E0DE01C5
S1130DC0119601900D928A95E1F788E0EFE3F1E046
S1130DD0DE01199601900D928A95E1F788E0E7E12A
S1130DE0F1E0DE01519601900D928A95E1F788E0D9
S1130DF0E7E4F1E0DE01599601900D928A95E1F75E
S1130E00BE016F5F7F4F80E0A7DCBE01675F7F4F4D
S1130E1081E0A2DCBE016F5E7F4F82E09DDCBE01FB
S1130E20675E7F4F83E098DC81E080DA80E095DACA
S1130E3082E07CDA81E091DA83E078DA82E08DDAAC
S1130E4084E074DA83E089DA85E070DA80E285DAB6
S1130E5086E06CDA80E281DA87E068DA80E27DDAC3
S1130E6088E064DA80E279DA89E060DA80E275DACF
S1130E708AE05CDA80E271DA8BE058DA8DE46DDACC
S1130E808CE054DA85E469DA8DE050DA84E465DADA
S1130E908EE04CDA89E461DA8FE048DA85E55DDAE0
S1130EA080E144DA8DE459DA81E140DA88E455DA04
S1130EB082E13CDA81E451DA83E138DA82E54DDA21
S1130EC084E134DA84E449DA85E130DA80E245DA2F
S1130ED086E12CDA80E241DA87E128DA80E23DDA41
S1130EE088E124DA80E239DA89E120DA80E235DA4D
S1130EF08AE11CDA80E231DA8BE118DA80E22DDA59
S1130F008CE114DA80E229DA8DE110DA80E225DA64
S1130F108EE10CDA80E221DA8FE108DA80E21DDA70
S1130F2080E204DA80E219DAA0960FB6F894DEBF04
S1130F300FBECDBFDF91CF910895CF93DF93CDB78F
S1130F40DEB7A8970FB6F894DEBF0FBECDBF88E01A
S1130F50EFE1F1E0DE01119601900D928A95E1F73F
S1130F6088E0EFE4F1E0DE01199601900D928A9594
S1130F70E1F788E0E7E5F1E0DE01519601900D929A
S1130F808A95E1F788E0EFE5F1E0DE0159960190FA
S1130F900D928A95E1F788E0E7E6F1E0DE019196AB
S1130FA001900D928A95E1F7BE01675F7F4F80E063
S1130FB0D3DBBE016F5F7F4F81E0CEDBBE016F5E8E
S1130FC07F4F82E0C9DBBE01675E7F4F83E0C4DBF5
S1130FD0BE016F5D7F4F84E0BFDB81E0A7D985E46C
S1130FE0BCD982E0A3D981E4B8D983E09FD983E551
S1130FF0B4D984E09BD989E5B0D985E097D980E25A
S1131000ACD986E093D980E2A8D987E08FD980E271
S1131010A4D988E08BD980E2A0D989E087D980E27D
S11310209CD98AE083D980E298D98BE07FD980E08B
S113103094D98CE07BD981E090D98DE077D982E096
S11310408CD98EE073D983E088D98FE06FD984E09E
S113105084D980E16BD980E080D981E167D988E4C3
S11310607CD982E163D981E478D983E15FD982E5CF
S113107074D984E15BD984E470D985E157D980E2DD
S11310806CD986E153D980E268D987E14FD980E2EF
S113109064D988E14BD980E260D989E147D980E2FB
S11310A05CD98AE143D980E258D98BE13FD980E207
S11310B054D98CE13BD980E250D98DE137D980E213
S11310C04CD98EE133D980E248D98FE12FD980E21F
S11310D044D980E22BD980E240D9A8960FB6F8947F
S11310E0DEBF0FBECDBFDF91CF910895CF93DF93C5
S11310F0CDB7DEB7A0970FB6F894DEBF0FBECDBF55
S113110088E0EFE6F1E0DE01119601900D928A95F8
S1131110E1F788E0EFE3F1E0DE01199601900D922A
S11311208A95E1F788E0E7E5F1E0DE015196019068
S11311300D928A95E1F788E0E7E7F1E0DE01599640
S113114001900D928A95E1F7BE016F5F7F4F80E0B9
S113115003DBBE01675F7F4F81E0FEDABE01675E9D
S11311607F4F82E0F9DABE016F5E7F4F83E0F4DAED
S113117081E0DCD885E4F1D882E0D8D881E4EDD8E8
S113118083E0D4D883E5E9D884E0D0D889E5E5D8EC
S113119085E0CCD880E2E1D886E0C8D880E2DDD80A
S11311A087E0C4D880E2D9D888E0C0D880E2D5D816
S11311B089E0BCD880E2D1D88AE0B8D880E2CDD822
S11311C08BE0B4D88DE4C9D88CE0B0D885E4C5D818
S11311D08DE0ACD884E4C1D88EE0A8D889E4BDD829
S11311E08FE0A4D885E5B9D880E1A0D88DE4B5D83E
S11311F081E19CD880E0B1D882E198D881E0ADD873
S113120083E194D882E0A9D884E190D883E0A5D87A
S113121085E18CD880E2A1D886E188D880E29DD887
S113122087E184D880E299D888E180D880E295D893
S113123089E17CD880E291D88AE178D880E28DD89F
S11312408BE174D880E289D88CE170D880E285D8AB
S11312508DE16CD880E281D88EE168D880E27DD8B7
S11312608FE164D880E279D880E260D880E275D8D2
S1131270A0960FB6F894DEBF0FBECDBFDF91CF911D
S113128008958091D7038130C9F030F0823071F134
S1131290833009F443C05BC080910201811104C012
S11312A081E08093D70367C0813021F482E080938A
S11312B0D70363C083E08093D70361C0019904C05E
S11312C082E08093D70359C0029904C083E08093DD
S11312D0D70355C004994FC0049BFECF109202015E
S11312E01092D50181E08093000145C0039904C0A8
S11312F081E08093D7033FC0029904C083E08093C8
S1131300D7033DC0049939C0049BFECF81E080938C
S113131002011092D501809300012FC0009904C0EE
S113132081E08093D70327C0019904C082E08093B1
S1131330D70323C0049923C0049BFECF82E080938B
S113134002011092D50181E08093000118C0813020
S113135091F028F0823089F0833099F410C08091A4
S11313600201811102C01ECD0895813011F4E5CD32
S11313700895BCCE089516CD0895DFCD0895B6CE58
S1131380089580910201811102C00CCD089581302D
S113139011F4D3CD0895AACE0895CF93DF93CDB79A
S11313A0DEB7C054D1090FB6F894DEBF0FBECDBF6F
S11313B088E0E7E5F1E0DE01119601900D928A954F
S11313C0E1F788E0EFE5F1E0DE01199601900D9276
S11313D08A95E1F788E0EFE7F1E0DE0151960190AC
S11313E00D928A95E1F788E0E7E2F1E0DE01599693
S11313F001900D928A95E1F788E0E7E6F1E0DE01DD
S1131400919601900D928A95E1F788E0E7E8F1E082
S1131410DE01999601900D928A95E1F788E0EFE854
S1131420F1E0DE01D19601900D928A95E1F788E012
S1131430E7E4F1E0DE01D99601900D928A95E1F797
S1131440BE016F5F7F4F80E087D9BE01675F7F4F2A
S113145081E082D9BE016F5E7F4F82E07DD9BE01FB
S1131460675E7F4F83E078D9BE016F5D7F4F84E074
S113147073D9BE01675D7F4F85E06ED9BE016F5C95
S11314807F4F86E069D9BE01675C7F4F87E064D9EE
S113149081E00E94960180E50E94AD0182E00E94F5
S11314A096018CE40E94AD0183E00E94960181E4E0
S11314B00E94AD0184E00E94960189E50E94AD017D
S11314C085E00E94960180E20E94AD0186E00E94C0
S11314D0960180E20E94AD0187E00E94960180E0BF
S11314E00E94AD0188E00E94960181E00E94AD0156
S11314F089E00E94960182E00E94AD018AE00E9488
S1131500960182E00E94AD018BE00E94960181E089
S11315100E94AD018CE00E94960183E00E94AD011F
S11315208DE00E94960184E00E94AD018EE00E944D
S1131530960185E00E94AD018FE00E94960186E04D
S11315400E94AD0180E10E94960187E00E94AD01F6
S113155081E10E94960184E50E94AD0182E10E942E
S1131560960189E40E94AD0183E10E9496018DE415
S11315700E94AD0184E10E94960185E40E94AD01C0
S113158085E10E94960180E20E94AD0186E10E94FD
S1131590960180E20E94AD0187E10E94960180E2FB
S11315A00E94AD0188E10E94960180E20E94AD0193
S11315B089E10E94960180E20E94AD018AE10E94C5
S11315C0960182E30E94AD018BE10E94960180E5C1
S11315D00E94AD018CE10E9496018CE40E94AD0151
S11315E08DE10E94960181E40E94AD018EE10E948A
S11315F0960189E50E94AD018FE10E94960185E480
S11316000E94AD0180E20E94960182E50E94AD0134
S1131610C05CDF4F0FB6F894DEBF0FBECDBFDF91C5
S1131620CF910895CF93DF93CDB7DEB7A0970FB6D0
S1131630F894DEBF0FBECDBF88E0E7E9F1E0DE013C
S1131640119601900D928A95E1F788E0E7E8F1E0C0
S1131650DE01199601900D928A95E1F788E0EFE397
S1131660F1E0DE01519601900D928A95E1F788E050
S1131670E7E4F1E0DE01599601900D928A95E1F7D5
S1131680BE016F5F7F4F80E067D8BE01675F7F4F09
S113169081E062D8BE016F5E7F4F82E05DD8BE01FB
S11316A0675E7F4F83E058D881E00E94960180E016
S11316B00E94AD0182E00E94960181E00E94AD018A
S11316C083E00E94960182E00E94AD0184E00E94C2
S11316D0960183E00E94AD0185E00E94960180E2BC
S11316E00E94AD0186E00E94960180E20E94AD0155
S11316F087E00E94960184E40E94AD0188E00E9484
S1131700960189E40E94AD0189E00E94960186E475
S11317100E94AD018AE00E94960186E40E94AD0118
S11317208BE00E94960189E40E94AD018CE00E9446
S1131730960183E40E94AD018DE00E94960185E547
S11317400E94AD018EE00E9496018CE40E94AD01DE
S11317508FE00E94960184E50E94AD0180E10E9421
S1131760960189E50E94AD0181E10E94960184E51C
S11317700E94AD0182E10E94960189E40E94AD01BC
S113178083E10E9496018DE40E94AD0184E10E94F0
S1131790960185E40E94AD0185E10E94960180E2F4
S11317A00E94AD0186E10E94960180E20E94AD0193
S11317B087E10E94960180E20E94AD0188E10E94C7
S11317C0960180E20E94AD0189E10E94960180E2C7
S11317D00E94AD018AE10E94960182E30E94AD015C
S11317E08BE10E94960180E50E94AD018CE10E948C
S11317F096018CE40E94AD018DE10E94960181E482
S11318000E94AD018EE10E94960189E50E94AD011E
S11318108FE10E94960185E40E94AD0180E20E945E
S1131820960182E50E94AD01A0960FB6F894DEBF42
S11318300FBECDBFDF91CF910895CF93DF93CDB786
S1131840DEB7E8970FB6F894DEBF0FBECDBF88E0D1
S1131850EFE9F1E0DE01119601900D928A95E1F72E
S113186088E0E7E9F1E0DE01199601900D928A958E
S1131870E1F788E0E7E8F1E0DE01519601900D928E
S11318808A95E1F788E0EFE3F1E0DE0159960190F3
S11318900D928A95E1F788E0E7E4F1E0DE019196A4
S11318A001900D928A95E1F788E0EFE1F1E0DE0125
S11318B0999601900D928A95E1F788E0E7E7F1E0C7
S11318C0DE01D19601900D928A95E1F7BE016F5F1A
S11318D07F4F80E00E94AC03BE01675F7F4F81E0D1
S11318E00E94AC03BE016F5E7F4F82E00E94AC0396
S11318F0BE01675E7F4F83E00E94AC03BE016F5D53
S11319007F4F84E00E94AC03BE01675D7F4F85E09A
S11319100E94AC03BE016F5C7F4F86E00E94AC0363
S113192081E00E94960180E50E94AD0182E00E9460
S113193096018CE40E94AD0183E00E94960181E44B
S11319400E94AD0184E00E94960189E50E94AD01E8
S113195085E00E94960180E20E94AD0186E00E942B
S1131960960180E20E94AD0187E00E94960184E422
S11319700E94AD0188E00E94960189E40E94AD01B5
S113198089E00E94960186E40E94AD018AE00E94EB
S1131990960186E40E94AD018BE00E94960189E4E1
S11319A00E94AD018CE00E94960183E40E94AD0187
S11319B08DE00E94960185E50E94AD018EE00E94B3
S11319C096018CE40E94AD018FE00E94960184E5AB
S11319D00E94AD0180E10E94960189E50E94AD015B
S11319E081E10E94960184E50E94AD0182E10E949A
S11319F0960189E40E94AD0183E10E9496018DE481
S1131A000E94AD0184E10E94960185E40E94AD012B
S1131A1085E10E94960180E20E94AD0186E10E9468
S1131A20960180E20E94AD0187E10E94960180E266
S1131A300E94AD0188E10E94960180E20E94AD01FE
S1131A4089E10E94960180E20E94AD018AE10E9430
S1131A50960180E00E94AD018BE10E94960181E035
S1131A600E94AD018CE10E94960182E00E94AD01CA
S1131A708DE10E94960183E00E94AD018EE10E94F7
S1131A80960184E00E94AD018FE10E94960185E0F9
S1131A900E94AD0180E20E94960186E00E94AD01A1
S1131AA0E8960FB6F894DEBF0FBECDBFDF91CF919D
S1131AB00895CF93DF93CDB7DEB7A0970FB6F89410
S1131AC0DEBF0FBECDBF88E0EFE1F1E0DE0111968D
S1131AD001900D928A95E1F788E0EFE4F1E0DE01F0
S1131AE0199601900D928A95E1F788E0EFE5F1E00F
S1131AF0DE01519601900D928A95E1F788E0EFE8B6
S1131B00F1E0DE01599601900D928A95E1F7BE014C
S1131B10675E7F4F80E00E94AC03BE016F5E7F4F23
S1131B2081E00E94AC03BE01675F7F4F82E00E94A8
S1131B30AC03BE016F5F7F4F83E00E94AC0381E082
S1131B400E94960180E50E94AD0182E00E94960108
S1131B508CE40E94AD0183E00E94960181E40E941E
S1131B60AD0184E00E94960189E50E94AD0185E003
S1131B700E94960180E20E94AD0186E00E949601D7
S1131B8080E20E94AD0187E00E94960184E40E94F5
S1131B90AD0188E00E94960189E40E94AD0189E0CC
S1131BA00E94960186E40E94AD018AE00E9496019B
S1131BB086E40E94AD018BE00E94960189E40E94B4
S1131BC0AD018CE00E94960183E40E94AD018DE09A
S1131BD00E94960185E50E94AD018EE00E94960167
S1131BE08CE40E94AD018FE00E94960184E50E947E
S1131BF0AD0180E10E94960189E50E94AD0181E179
S1131C000E94960180E00E94AD0182E10E9496014B
S1131C1081E00E94AD0183E10E94960182E00E946E
S1131C20AD0184E10E94960183E00E94AD0185E14B
S1131C300E94960180E20E94AD0186E10E94960115
S1131C4080E20E94AD0187E10E94960180E20E9439
S1131C50AD0188E10E94960180E20E94AD0189E114
S1131C600E94960180E20E94AD018AE10E949601E1
S1131C7082E30E94AD018BE10E94960180E50E94FF
S1131C80AD018CE10E9496018CE40E94AD018DE1CE
S1131C900E94960181E40E94AD018EE10E949601AA
S1131CA089E50E94AD018FE10E94960185E40E94BE
S1131CB0AD0180E20E94960182E50E94AD01A096EA
S1131CC00FB6F894DEBF0FBECDBFDF91CF9108955C
S1131CD08091D5038230D9F028F4882341F08130F3
S1131CE051F04DC0833049F18430E9F148C081E0BE
S1131CF08093D50347C0019904C082E08093D50343
S1131D0043C002993FC083E08093D5033FC0039949
S1131D1004C081E08093D50335C0029904C084E0F7
S1131D208093D50335C004992FC0049BFECF109235
S1131D30000181E08093D50127C0009904C081E0AF
S1131D408093D5031FC0019904C084E08093D50318
S1131D501FC004991BC0049BFECF1092000181E0B8
S1131D608093D40113C0009904C082E08093D5030A
S1131D700BC003990DC083E08093D50307C081E0B5
S1131D808093D5034FCC089508CB089592CE08953F
S1131D9054CD089511B88FEF82B984B915B88AB9B2
S1131DA01BB80E949E010E94270288E30E948A01B8
S1131DB08CE00E948A0161E070E080E090E00E9483
S1131DC0B6010E94C7011092D5031092D703109256
S1131DD0D6030E94930180910001811179DF8091E3
S1131DE0D50181114EDA8091D40181110E945006EF
S1131DF060910201809101010E946E038091D403DD
S1131E008823E1F31092D403E6CF991B79E004C050
S1131E10991F961708F0961B881F7A95C9F7809525
S1091E200895F894FFCFC1
S1131E26013C01010000001F111D111D111F001F9F
S1131E3611151515111F001F1117111D111F001F54
S1131E4611171317111F001F11171717111F001F42
S1131E5611171115111F001F1115111D111F001F38
S1131E661B151115151F001F15151B1B1B1F001F06
S1131E7615111115151F001F13151515131F001F16
S1131E86111B1B1B111F001F15151515111F001FF4
S1131E9615151115151F001F13151315151F001FF2
S1131EA611171117171F001F17171717111F001FD8
S1131EB6111B1B1B1B1F001F11151117171F001FBA
S1131EC6131D1D1B111F00207365636F6E64730061
S1131ED6446966663A204561737900446966663AE0
S1131EE6204D656469756D00446966663A204861EB
S1071EF6726400000E
S9030000FC
