S01800004763634170706C69636174696F6E31302E737265632A
S113000035C1000052C1000050C100004EC10000C3
S11300104CC100004AC1000048C1000046C10000B4
S113002044C1000042C1000040C100003EC10000C4
S11300303CC10000D0C1000038C1000036C100003E
S113004034C1000032C1000030C100002EC10000E4
S11300502CC100002AC1000028C1000026C10000F4
S113006024C1000022C1000020C100001EC1000004
S11300701CC100001AC1000018C1000016C1000014
S113008014C1000012C1000010C1000000000000F3
S11300900000005F00000007000700147F147F14B5
S11300A0242A7F2A122313086462364955225000F9
S11300B005030000001C2241000041221C0014081A
S11300C03E081408083E08080050300000080808DC
S11300D00808006060000020100804023E514945F1
S11300E03E00427F400042615149462141454B3127
S11300F01814127F1027454545393C4A49493001B7
S1130100710905033649494936064949291E00360D
S1130110360000005636000008142241001414145E
S1130120141400412214080201510906324979418C
S11301303E7E1111117E7F494949363E414141229B
S11301407F4141221C7F494949417F090909013EF8
S11301504149497A7F0808087F00417F41002040D7
S1130160413F017F081422417F404040407F020C00
S1130170027F7F0408107F3E4141413E7F09090907
S1130180063E4151215E7F091929464649494931B4
S113019001017F01013F4040403F1F2040201F3F9D
S11301A04038403F6314081463070870080761511E
S11301B0494543007F4141000204081020004141A9
S11301C07F00040201020440404040400001020458
S11301D00020545454787F484444383844444420DC
S11301E0384444487F3854545418087E0901020C9A
S11301F05252523E7F0804047800447D400020405F
S1130200443D007F1028440000417F40007C0418D6
S113021004787C0804047838444444387C14141466
S113022008081414187C7C08040408485454542006
S1130230043F4440203C4040207C1C2040201C3C87
S11302404030403C44281028440C5050503C4464F6
S1130250544C44000836410000007F000000413641
S113026008001008081008306018040211241FBE8A
S1130270CFEFD0E4DEBFCDBF11E0A0E0B1E0EAE211
S1130280F0E200E00BBF02C007900D92AC3FB10753
S1130290D9F724E0ACEFB1E001C01D92A130B20760
S11302A0E1F70E948E0F0C941310AACE2A986623AD
S11302B011F02C9A15C02C9813C0AC01022E02C068
S11302C0559547950A94E2F740FF02C02D9A01C064
S11302D02D982E9A2E982150310978F72A9A08954C
S11302E027E030E090E0E9CF60E0E0CF0895181611
S11302F019065CF00895000021503109E1F74F5FC1
S11303005F4F8417950719F4089540E050E027E003
S113031033E0F1CF28988BB9299A0000299882E01C
S113032090E0E5CF089581E0F5CF0895813118F488
S11303308158F0CF08958155EDCF089584E690E07B
S1130340D6DF88E3E7DF86E0E5DF8FE0E3DF81E007
S1130350E1DF8AE090E0CBCF0895289A8BB9299AFF
S11303600000299881E090E0C2CF089560930301D2
S11303707093040180930501909306016093F9033F
S11303807093FA038093FB039093FC0308958BE02E
S1130390809381008DE790E090938900809388009A
S11303A082E080936F001092850010928400809107
S11303B0030190910401A0910501B091060180937D
S11303C0F9039093FA03A093FB03B093FC038FB754
S11303D080688FBF08951F920F920FB60F92112459
S11303E08F939F93AF93BF938091F9039091FA03F6
S11303F0A091FB03B091FC030197A109B10980937B
S1130400F9039093FA03A093FB03B093FC03892BA5
S11304108A2B8B2B99F481E08093FD038091030157
S113042090910401A0910501B09106018093F90314
S11304309093FA03A093FB03B093FC03BF91AF9195
S11304409F918F910F900FBE0F901F901895CF938F
S1130450DF93229A239A249A259A269A2B9A2A9AE7
S113046083EC99E00197F1F700C000002B988BE52D
S113047094E40197F1F700C000002B9A2A9881E2D6
S113048033DF83E131DF86E02FDF82EC2DDF80E292
S11304902BDF89E029DF80E827DF80E425DFC8EF50
S11304A0D1E061E080E002DF2197D9F788E01CDF2A
S11304B08CE01ADFDF91CF91089580E815DF80E4A6
S11304C013DF1092F7031092F803EFEFF1E087EFD8
S11304D093E01192E817F907E1F70895262F26957E
S11304E02695269590E034E5239F800D911D1124D7
S11304F0442379F0FC01E150FE4F677081E090E005
S113050002C0880F991F6A95E2F79081892B808336
S11305100895FC01E150FE4F677081E090E002C055
S1130520880F991F6A95E2F78095908189238083CB
S113053008955F926F927F928F929F92AF92BF9233
S1130540CF92DF92EF92FF920F931F93CF93DF939B
S1130550562E262F30E04901880C991C880C991CD2
S1130560820E931E181419040CF05BC08901000F4D
S1130570111F000F111F000F111F021B130B612C01
S1130580A82EB12CC50180975C01AA0CBB1CAA0C37
S1130590BB1CA80EB91E0F2EF8EFCF2EF3E0DF2EF2
S11305A0F02D0F2EF7EFEF2EF3E0FF2EF02D2BC0E2
S11305B0FE01249130E0872D652D0E94E10F02C0D9
S11305C0359527958A95E2F720FF09C0F6016081E9
S11305D0670DF701808141E0860D80DF08C0F601D8
S11305E06081670DF701808140E0860D77DF7394A9
S11305F0872D90E080179107DCF26394862D90E0BC
S11306008815990574F410161106BCF7862D652D0E
S11306100E94E10FE501C80FD11DC457DF4F712CB3
S1130620C7CF8091F70391E0980F852D880F880F2D
S1130630850D890F843518F48093F7030EC010924A
S1130640F703E8EFF3E0808191E0980F852D880FA0
S1130650880F880F8519890F80838091F803803370
S113066020F01092F7031092F803DF91CF911F91BD
S11306700F91FF90EF90DF90CF90BF90AF909F903D
S11306808F907F906F905F9008951F93CF93DF9327
S1130690EC018881882339F0162F2196612F49DFD8
S11306A089918111FBCFDF91CF911F9108950F9311
S11306B01F93CF93DF9380E817DE80E415DECFEF3E
S11306C0D1E007EF13E061E08991F0DDC017D107B5
S11306D0D1F7DF91CF911F910F91089561E08FE7DA
S11306E028CF0895CF93DF93C82FD62FE6DECE31DF
S11306F059F461E083E31DDF61E080E31ADF61E028
S113070087EA91E0C2DF19C0CC3359F461E086E393
S113071010DF61E080E30DDF61E087EA91E0B5DF9F
S11307200CC0CA3551F461E089E303DF61E080E382
S113073000DF61E087EA91E0A8DF1092F7038AE026
S11307408093F803D11105C061E080EB91E09DDF57
S11307500DC0D13029F461E08BEB91E096DF06C047
S1130760D23021F461E088EC91E08FDF1092F7033E
S113077084E18093F80361E083ED91E086DFCE317C
S113078021F0CC3311F0CA3509F4A8DF1092F70335
S11307908EE18093F80361E08EED91E076DFD33053
S11307A008F49CDF84DFDF91CF9108950F931F93AA
S11307B0CF93DF9382DE07EF13E0F8011082C8EFD6
S11307C0D3E08AE0888361E089EE91E05EDFF8019E
S11307D0108284E1888361E08FEE91E056DFF801B6
S11307E010828EE1888361E085EF91E04EDF5FDF68
S11307F0DF91CF911F910F9108950F931F93CF9382
S1130800DF938B01880F880F880F805C83DDE801FC
S1130810085F1F4F8991A1DDC017D107D9F780E880
S113082079DDDF91CF911F910F910895CF93DF93DD
S1130830CDB7DEB7A8970FB6F894DEBF0FBECDBF15
S113084088E0E7E0F1E0DE01119601900D928A95CF
S1130850E1F788E0EFE0F1E0DE01199601900D92F6
S11308608A95E1F788E0E7E1F1E0DE015196019035
S11308700D928A95E1F788E0EFE1F1E0DE01599607
S113088001900D928A95E1F788E0E7E2F1E0DE015C
S1130890919601900D928A95E1F7BE016F5F7F4FAB
S11308A080E0ABDFBE01675F7F4F81E0A6DFBE0162
S11308B06F5E7F4F82E0A1DFBE01675E7F4F83E002
S11308C09CDFBE016F5D7F4F84E097DF81E02EDD0A
S11308D080E043DD82E02ADD81E03FDD83E026DD48
S11308E080E23BDD84E022DD82E037DD85E01EDD51
S11308F083E033DD86E01ADD84E02FDD87E016DD5A
S113090080E22BDD88E012DD80E227DD89E00EDD68
S113091080E223DD8AE00ADD80E21FDD8BE006DD74
S113092086E31BDD8CE002DD80E317DD8DE0FEDC79
S113093080E213DD8EE0FADC83E50FDD8FE0F6DC88
S113094085E40BDD80E1F2DC83E407DD81E1EEDCAC
S113095089E303DD82E1EADC80E3FFDC83E1E6DCBA
S113096080E2FBDC84E1E2DC83E5F7DC85E1DEDCCC
S113097085E4F3DC86E1DADC83E4EFDC87E1D6DCD2
S113098080E2EBDC88E1D2DC80E2E7DC89E1CEDCEA
S113099080E2E3DC8AE1CADC80E2DFDC8BE1C6DCF6
S11309A080E2DBDC8CE1C2DC80E2D7DC8DE1BEDC02
S11309B080E2D3DC8EE1BADC80E2CFDC8FE1B6DC0E
S11309C080E2CBDC80E2B2DC80E2C7DCA8960FB622
S11309D0F894DEBF0FBECDBFDF91CF910895CF93C2
S11309E0DF93CDB7DEB7A8970FB6F894DEBF0FBE7E
S11309F0CDBF88E0EFE2F1E0DE01119601900D92A7
S1130A008A95E1F788E0EFE0F1E0DE0119960190C4
S1130A100D928A95E1F788E0E7E1F1E0DE01519675
S1130A2001900D928A95E1F788E0EFE1F1E0DE01B3
S1130A30599601900D928A95E1F788E0E7E2F1E09A
S1130A40DE01919601900D928A95E1F7BE016F5FE8
S1130A507F4F80E0D2DEBE01675F7F4F81E0CDDE55
S1130A60BE016F5E7F4F82E0C8DEBE01675E7F4FCE
S1130A7083E0C3DEBE016F5D7F4F84E0BEDE81E0B4
S1130A8055DC83E36ADC82E051DC80E366DC83E0EE
S1130A904DDC80E262DC84E049DC83E55EDC85E0F9
S1130AA045DC85E45ADC86E041DC83E456DC87E0FF
S1130AB03DDC80E252DC88E039DC80E24EDC89E017
S1130AC035DC80E24ADC8AE031DC80E246DC8BE023
S1130AD02DDC80E042DC8CE029DC81E03EDC8DE032
S1130AE025DC80E23ADC8EE021DC82E036DC8FE03B
S1130AF01DDC83E032DC80E119DC84E02EDC81E162
S1130B0015DC89E32ADC82E111DC80E326DC83E165
S1130B100DDC80E222DC84E109DC83E51EDC85E176
S1130B2005DC85E41ADC86E101DC83E416DC87E17C
S1130B30FDDB80E212DC88E1F9DB80E20EDC89E196
S1130B40F5DB80E20ADC8AE1F1DB80E206DC8BE1A2
S1130B50EDDB80E202DC8CE1E9DB80E2FEDB8DE1AF
S1130B60E5DB80E2FADB8EE1E1DB80E2F6DB8FE1BC
S1130B70DDDB80E2F2DB80E2D9DB80E2EEDBA8960B
S1130B800FB6F894DEBF0FBECDBFDF91CF910895AD
S1130B90CF93DF93CDB7DEB7A8970FB6F894DEBF37
S1130BA00FBECDBF88E0E7E3F1E0DE0111960190CE
S1130BB00D928A95E1F788E0EFE0F1E0DE01199605
S1130BC001900D928A95E1F788E0E7E1F1E0DE011A
S1130BD0519601900D928A95E1F788E0EFE1F1E0FA
S1130BE0DE01599601900D928A95E1F788E0E7E2DB
S1130BF0F1E0DE01919601900D928A95E1F7BE0134
S1130C006F5F7F4F80E0F9DDBE01675F7F4F81E05A
S1130C10F4DDBE016F5E7F4F82E0EFDDBE01675EF3
S1130C207F4F83E0EADDBE016F5D7F4F84E0E5DD49
S1130C3081E07CDB83E391DB82E078DB80E38DDBA6
S1130C4083E074DB80E289DB84E070DB83E585DBB1
S1130C5085E06CDB85E481DB86E068DB83E47DDBB7
S1130C6087E064DB80E279DB88E060DB80E275DBCF
S1130C7089E05CDB80E271DB8AE058DB80E26DDBDB
S1130C808BE054DB86E369DB8CE050DB80E365DBDF
S1130C908DE04CDB80E261DB8EE048DB83E55DDBED
S1130CA08FE044DB85E459DB80E140DB83E455DB02
S1130CB081E13CDB80E051DB82E138DB81E04DDB2C
S1130CC083E134DB80E249DB84E130DB82E045DB35
S1130CD085E12CDB83E041DB86E128DB84E03DDB3E
S1130CE087E124DB80E239DB88E120DB80E235DB4D
S1130CF089E11CDB80E231DB8AE118DB80E22DDB59
S1130D008BE114DB80E229DB8CE110DB80E225DB64
S1130D108DE10CDB80E221DB8EE108DB80E21DDB70
S1130D208FE104DB80E219DB80E200DB80E215DB8B
S1130D30A8960FB6F894DEBF0FBECDBFDF91CF915A
S1130D4008958091FF038130C9F030F08230E9F1D9
S1130D50833009F461C086C0809101018E3121F491
S1130D6081E08093FF0394C08C3321F482E080936C
S1130D70FF0390C083E08093FF038EC0019904C0F9
S1130D8082E08093FF0386C0029904C083E08093CD
S1130D90FF0382C004997CC0049BFECF8EE1809344
S1130DA001016091020170E080E090E00E94F20F86
S1130DB06091010170E081E090E00E94F20F1092D6
S1130DC0FD0181E0809300014DC0039904C081E0DE
S1130DD08093FF035DC0029904C083E08093FF0306
S1130DE05BC0049957C0049BFECF8CE38093010140
S1130DF06091020170E080E090E00E94F20F609147
S1130E00010170E081E090E00E94F20F1092FD0178
S1130E1081E08093000126C0009904C081E08093A2
S1130E20FF0336C0019904C082E08093FF0332C0FF
S1130E30049932C0049BFECF8AE58093010160913E
S1130E40020170E080E090E00E94F20F60910101E5
S1130E5070E081E090E00E94F20F1092FD0181E0C9
S1130E60809300018091FF03813091F028F082305B
S1130E7089F0833091F410C0809101018E3111F416
S1130E80D5CC08958C3311F4AACD089581CE08955C
S1130E90CDCC0895A4CD08957BCE0895CF93DF9350
S1130EA0CDB7DEB7A0970FB6F894DEBF0FBECDBFA7
S1130EB088E0EFE1F1E0DE01119601900D928A9550
S1130EC0E1F788E0EFE3F1E0DE01199601900D927D
S1130ED08A95E1F788E0E7E1F1E0DE0151960190BF
S1130EE00D928A95E1F788E0E7E4F1E0DE01599696
S1130EF001900D928A95E1F7BE016F5F7F4F80E00C
S1130F007CDCBE01675F7F4F81E077DCBE016F5EF2
S1130F107F4F82E072DCBE01675E7F4F83E06DDC51
S1130F2081E004DA80E019DA82E000DA81E015DA9F
S1130F3083E0FCD982E011DA84E0F8D983E00DDAA9
S1130F4085E0F4D980E209DA86E0F0D980E205DAB6
S1130F5087E0ECD980E201DA88E0E8D980E2FDD9C3
S1130F6089E0E4D980E2F9D98AE0E0D980E2F5D9D0
S1130F708BE0DCD98DE4F1D98CE0D8D985E4EDD9C6
S1130F808DE0D4D984E4E9D98EE0D0D989E4E5D9D7
S1130F908FE0CCD985E5E1D980E1C8D98DE4DDD9EC
S1130FA081E1C4D988E4D9D982E1C0D981E4D5D911
S1130FB083E1BCD982E5D1D984E1B8D984E4CDD91F
S1130FC085E1B4D980E2C9D986E1B0D980E2C5D936
S1130FD087E1ACD980E2C1D988E1A8D980E2BDD942
S1130FE089E1A4D980E2B9D98AE1A0D980E2B5D94E
S1130FF08BE19CD980E2B1D98CE198D980E2ADD95A
S11310008DE194D980E2A9D98EE190D980E2A5D965
S11310108FE18CD980E2A1D980E288D980E29DD980
S1131020A0960FB6F894DEBF0FBECDBFDF91CF916F
S11310300895CF93DF93CDB7DEB7A8970FB6F89492
S1131040DEBF0FBECDBF88E0EFE1F1E0DE01119617
S113105001900D928A95E1F788E0EFE4F1E0DE017A
S1131060199601900D928A95E1F788E0E7E5F1E0A1
S1131070DE01519601900D928A95E1F788E0EFE543
S1131080F1E0DE01599601900D928A95E1F788E02E
S1131090E7E6F1E0DE01919601900D928A95E1F781
S11310A0BE01675F7F4F80E0A8DBBE016F5F7F4FAB
S11310B081E0A3DBBE016F5E7F4F82E09EDBBE0159
S11310C0675E7F4F83E099DBBE016F5D7F4F84E0F5
S11310D094DB81E02BD985E440D982E027D981E4EF
S11310E03CD983E023D983E538D984E01FD989E545
S11310F034D985E01BD980E230D986E017D980E263
S11311002CD987E013D980E228D988E00FD980E26E
S113111024D989E00BD980E220D98AE007D980E27A
S11311201CD98BE003D980E018D98CE0FFD881E08A
S113113014D98DE0FBD882E010D98EE0F7D883E093
S11311400CD98FE0F3D884E008D980E1EFD880E0AF
S113115004D981E1EBD888E400D982E1E7D881E4BD
S1131160FCD883E1E3D882E5F8D884E1DFD884E4CD
S1131170F4D885E1DBD880E2F0D886E1D7D880E2E4
S1131180ECD887E1D3D880E2E8D888E1CFD880E2F0
S1131190E4D889E1CBD880E2E0D88AE1C7D880E2FC
S11311A0DCD88BE1C3D880E2D8D88CE1BFD880E208
S11311B0D4D88DE1BBD880E2D0D88EE1B7D880E214
S11311C0CCD88FE1B3D880E2C8D880E2AFD880E22F
S11311D0C4D8A8960FB6F894DEBF0FBECDBFDF917A
S11311E0CF910895CF93DF93CDB7DEB7A0970FB615
S11311F0F894DEBF0FBECDBF88E0EFE6F1E0DE017C
S1131200119601900D928A95E1F788E0EFE3F1E001
S1131210DE01199601900D928A95E1F788E0E7E5E1
S1131220F1E0DE01519601900D928A95E1F788E094
S1131230E7E7F1E0DE01599601900D928A95E1F716
S1131240BE016F5F7F4F80E0D8DABE01675F7F4FDA
S113125081E0D3DABE01675E7F4F82E0CEDABE0161
S11312606F5E7F4F83E0C9DA81E060D885E475D88A
S113127082E05CD881E471D883E058D883E56DD8E6
S113128084E054D889E569D885E050D880E265D8EF
S113129086E04CD880E261D887E048D880E25DD807
S11312A088E044D880E259D889E040D880E255D813
S11312B08AE03CD880E251D88BE038D88DE44DD810
S11312C08CE034D885E449D88DE030D884E445D81E
S11312D08EE02CD889E441D88FE028D885E53DD824
S11312E080E124D88DE439D881E120D880E035D854
S11312F082E11CD881E031D883E118D882E02DD86E
S113130084E114D883E029D885E110D880E225D877
S113131086E10CD880E221D887E108D880E21DD884
S113132088E104D880E219D889E100D880E215D890
S11313308AE10E94960180E210D88BE10E94960116
S113134080E20BD88CE10E94960180E206D88DE100
S11313500E94960180E201D88EE10E94960180E20B
S11313600E94AD018FE10E94960180E20E94AD01CE
S113137080E20E94960180E20E94AD01A0960FB621
S1131380F894DEBF0FBECDBFDF91CF910895CF9308
S1131390809100048130C9F030F08230C9F183308B
S11313A009F459C07BC080910201811104C081E01D
S11313B08093000489C0813021F482E0809300048A
S11313C085C083E08093000483C0019904C082E057
S11313D0809300047BC0029904C083E080930004DE
S11313E077C0049971C0049BFECF1092020160E0A3
S11313F070E080E090E0F6D56091010170E081E05A
S113140090E0F0D51092FE0181E08093000146C087
S1131410039904C081E08093000456C0029904C07B
S113142083E08093000454C0049950C0049BFECF11
S1131430C1E0C093020161E070E080E090E0D2D5A9
S11314406091010170E081E090E0CCD51092FE0142
S1131450C093000123C0009904C081E0809300047C
S113146033C0019904C082E0809300042FC0049922
S11314702FC0049BFECF82E08093020162E070E003
S113148080E090E0AFD56091010170E081E090E0F0
S1131490A9D51092FE0181E080930001809100049F
S11314A0813091F028F0823089F0833091F410C0BB
S11314B080910201811102C0F1DC0BC0813011F472
S11314C0B8DD07C08FDE05C0E9DC03C0B2DD01C0B2
S11314D089DECF910895CF93DF93CDB7DEB7C054A3
S11314E0D1090FB6F894DEBF0FBECDBF88E0E7E5A3
S11314F0F1E0DE01119601900D928A95E1F788E002
S1131500EFE5F1E0DE01199601900D928A95E1F77D
S113151088E0EFE7F1E0DE01519601900D928A95A3
S1131520E1F788E0E7E2F1E0DE01599601900D92DF
S11315308A95E1F788E0E7E6F1E0DE019196019013
S11315400D928A95E1F788E0E7E8F1E0DE019996EB
S113155001900D928A95E1F788E0EFE8F1E0DE0171
S1131560D19601900D928A95E1F788E0E7E4F1E0E5
S1131570DE01D99601900D928A95E1F7BE016F5F65
S11315807F4F80E03AD9BE01675F7F4F81E035D954
S1131590BE016F5E7F4F82E030D9BE01675E7F4F30
S11315A083E02BD9BE016F5D7F4F84E026D9BE0155
S11315B0675D7F4F85E021D9BE016F5C7F4F86E078
S11315C01CD9BE01675C7F4F87E017D981E00E9478
S11315D0960180E50E94AD0182E00E9496018CE4B0
S11315E00E94AD0183E00E94960181E40E94AD0156
S11315F084E00E94960189E50E94AD0185E00E9485
S1131600960180E20E94AD0186E00E94960180E28C
S11316100E94AD0187E00E94960180E00E94AD0126
S113162088E00E94960181E00E94AD0189E00E9459
S1131630960182E00E94AD018AE00E94960182E058
S11316400E94AD018BE00E94960181E00E94AD01F1
S11316508CE00E94960183E00E94AD018DE00E941F
S1131660960184E00E94AD018EE00E94960185E01F
S11316700E94AD018FE00E94960186E00E94AD01B8
S113168080E10E94960187E00E94AD0181E10E9401
S1131690960184E50E94AD0182E10E94960189E4ED
S11316A00E94AD0183E10E9496018DE40E94AD0188
S11316B084E10E94960185E40E94AD0185E10E94C7
S11316C0960180E20E94AD0186E10E94960180E2CB
S11316D00E94AD0187E10E94960180E20E94AD0163
S11316E088E10E94960180E20E94AD0189E10E9496
S11316F0960180E20E94AD018AE10E94960182E394
S11317000E94AD018BE10E94960180E50E94AD012B
S11317108CE10E9496018CE40E94AD018DE10E944F
S1131720960181E40E94AD018EE10E94960189E553
S11317300E94AD018FE10E94960185E40E94AD01F3
S113174080E20E94960182E50E94AD01C05CDF4FF9
S11317500FB6F894DEBF0FBECDBFDF91CF910895D1
S1131760CF93DF93CDB7DEB7A0970FB6F894DEBF63
S11317700FBECDBF88E0E7E9F1E0DE0111960190EC
S11317800D928A95E1F788E0E7E8F1E0DE01199629
S113179001900D928A95E1F788E0EFE3F1E0DE0134
S11317A0519601900D928A95E1F788E0E7E4F1E023
S11317B0DE01599601900D928A95E1F7BE016F5FA3
S11317C07F4F80E01AD8BE01675F7F4F81E015D854
S11317D0BE016F5E7F4F82E010D8BE01675E7F4F0F
S11317E083E00BD881E00E94960180E00E94AD0165
S11317F082E00E94960181E00E94AD0183E00E9494
S1131800960182E00E94AD0184E00E94960183E08B
S11318100E94AD0185E00E94960180E20E94AD0124
S113182086E00E94960180E20E94AD0187E00E945A
S1131830960184E40E94AD0188E00E94960189E447
S11318400E94AD0189E00E94960186E40E94AD01E8
S11318508AE00E94960186E40E94AD018BE00E941A
S1131860960189E40E94AD018CE00E94960183E414
S11318700E94AD018DE00E94960185E50E94AD01B4
S11318808EE00E9496018CE40E94AD018FE00E94DC
S1131890960184E50E94AD0180E10E94960189E5EC
S11318A00E94AD0181E10E94960184E50E94AD0190
S11318B082E10E94960189E40E94AD0183E10E94C5
S11318C096018DE40E94AD0184E10E94960185E4B5
S11318D00E94AD0185E10E94960180E20E94AD0163
S11318E086E10E94960180E20E94AD0187E10E9498
S11318F0960180E20E94AD0188E10E94960180E297
S11319000E94AD0189E10E94960180E20E94AD012E
S11319108AE10E94960182E30E94AD018BE10E945C
S1131920960180E50E94AD018CE10E9496018CE451
S11319300E94AD018DE10E94960181E40E94AD01F7
S11319408EE10E94960189E50E94AD018FE10E941B
S1131950960185E40E94AD0180E20E94960182E531
S11319600E94AD01A0960FB6F894DEBF0FBECDBFA6
S1131970DF91CF910895CF93DF93CDB7DEB7E8978A
S11319800FB6F894DEBF0FBECDBF88E0EFE9F1E0FB
S1131990DE01119601900D928A95E1F788E0E7E95E
S11319A0F1E0DE01199601900D928A95E1F788E045
S11319B0E7E8F1E0DE01519601900D928A95E1F796
S11319C088E0EFE3F1E0DE01599601900D928A95EB
S11319D0E1F788E0E7E4F1E0DE01919601900D92F1
S11319E08A95E1F788E0EFE1F1E0DE019996019054
S11319F00D928A95E1F788E0E7E7F1E0DE01D19600
S1131A0001900D928A95E1F7BE016F5F7F4F80E0F0
S1131A100E94FD03BE01675F7F4F81E00E94FD03CA
S1131A20BE016F5E7F4F82E00E94FD03BE01675ED0
S1131A307F4F83E00E94FD03BE016F5D7F4F84E012
S1131A400E94FD03BE01675D7F4F85E00E94FD0398
S1131A50BE016F5C7F4F86E00E94FD0381E00E941F
S1131A60960180E50E94AD0182E00E9496018CE41B
S1131A700E94AD0183E00E94960181E40E94AD01C1
S1131A8084E00E94960189E50E94AD0185E00E94F0
S1131A90960180E20E94AD0186E00E94960180E2F8
S1131AA00E94AD0187E00E94960184E40E94AD018A
S1131AB088E00E94960189E40E94AD0189E00E94B9
S1131AC0960186E40E94AD018AE00E94960186E4B4
S1131AD00E94AD018BE00E94960189E40E94AD0151
S1131AE08CE00E94960183E40E94AD018DE00E9487
S1131AF0960185E50E94AD018EE00E9496018CE47A
S1131B000E94AD018FE00E94960184E50E94AD0120
S1131B1080E10E94960189E50E94AD0181E10E9465
S1131B20960184E50E94AD0182E10E94960189E458
S1131B300E94AD0183E10E9496018DE40E94AD01F3
S1131B4084E10E94960185E40E94AD0185E10E9432
S1131B50960180E20E94AD0186E10E94960180E236
S1131B600E94AD0187E10E94960180E20E94AD01CE
S1131B7088E10E94960180E20E94AD0189E10E9401
S1131B80960180E20E94AD018AE10E94960180E004
S1131B900E94AD018BE10E94960181E00E94AD019B
S1131BA08CE10E94960182E00E94AD018DE10E94C9
S1131BB0960183E00E94AD018EE10E94960184E0CB
S1131BC00E94AD018FE10E94960185E00E94AD0163
S1131BD080E20E94960186E00E94AD01E8960FB66D
S1131BE0F894DEBF0FBECDBFDF91CF910895CF93A0
S1131BF0DF93CDB7DEB7A0970FB6F894DEBF0FBE64
S1131C00CDBF88E0EFE1F1E0DE01119601900D9285
S1131C108A95E1F788E0EFE4F1E0DE01199601909E
S1131C200D928A95E1F788E0EFE5F1E0DE01519647
S1131C3001900D928A95E1F788E0EFE8F1E0DE018A
S1131C40599601900D928A95E1F7BE01675E7F4F28
S1131C5080E00E94FD03BE016F5E7F4F81E00E9421
S1131C60FD03BE01675F7F4F82E00E94FD03BE015A
S1131C706F5F7F4F83E00E94FD0381E00E94960125
S1131C8080E50E94AD0182E00E9496018CE40E94EE
S1131C90AD0183E00E94960181E40E94AD0184E0DD
S1131CA00E94960189E50E94AD0185E00E9496019B
S1131CB080E20E94AD0186E00E94960180E20E94CB
S1131CC0AD0187E00E94960184E40E94AD0188E0A2
S1131CD00E94960189E40E94AD0189E00E94960168
S1131CE086E40E94AD018AE00E94960186E40E9487
S1131CF0AD018BE00E94960189E40E94AD018CE065
S1131D000E94960183E40E94AD018DE00E94960139
S1131D1085E50E94AD018EE00E9496018CE40E944C
S1131D20AD018FE00E94960184E50E94AD0180E13F
S1131D300E94960189E50E94AD0181E10E9496010D
S1131D4080E00E94AD0182E10E94960181E00E9440
S1131D50AD0183E10E94960182E00E94AD0184E11D
S1131D600E94960183E00E94AD0185E10E949601E4
S1131D7080E20E94AD0186E10E94960180E20E9409
S1131D80AD0187E10E94960180E20E94AD0188E1E5
S1131D900E94960180E20E94AD0189E10E949601B1
S1131DA080E20E94AD018AE10E94960182E30E94D2
S1131DB0AD018BE10E94960180E50E94AD018CE1AA
S1131DC00E9496018CE40E94AD018DE10E9496016F
S1131DD081E40E94AD018EE10E94960189E50E9492
S1131DE0AD018FE10E94960185E40E94AD0180E27D
S1131DF00E94960182E50E94AD01A0960FB6F89468
S1131E00DEBF0FBECDBFDF91CF9108958091FE0359
S1131E10823031F128F4882349F0813059F058C0D8
S1131E208330A1F1843009F447C052C081E080932B
S1131E30FE0354C0019904C082E08093FE0350C0A5
S1131E40029904C083E08093FE034CC0049946C009
S1131E50049BFECF1092000181E08093FC013EC000
S1131E60039904C081E08093FE0338C0029904C042
S1131E7084E08093FE0330C0049932C0049BFECFFB
S1131E801092000181E08093FE012AC0009904C0F1
S1131E9081E08093FE0322C0019904C084E0809312
S1131EA0FE031AC004991EC0049BFECF10920001C9
S1131EB081E08093FD0116C0009904C082E0809304
S1131EC0FE030EC0039908C083E08093FE030AC09A
S1131ED081E08093FE0302C04ECD089541CC089565
S1131EE0FACA089584CE0895179A169A0895169AF0
S1131EF0169880B185FB882780F9089567EE70E015
S1131F0080E090E06FD067EE70E081E090E06AD00E
S1131F1087EE8093010180930201089511B88FEF39
S1131F2082B984B915B88AB91BB80E949E010E946F
S1131F302702DADF88E30E948A018CE00E948A018A
S1131F4061E070E080E090E00E94B6010E94C70169
S1131F5080E090E042D08093020181E090E03DD0A7
S1131F60809301011092FE03109200041092FF036B
S1131F700E94930160910201809101010E94720309
S1131F8080910001811142DF8091FE018111FFD90E
S1131F908091FD0181110E94A1068091FC0188239A
S1131FA031F00E94D6038091FC018111FACF9FDFAA
S1131FB080FFA4DF8091FD038823E1F31092FD03E9
S1131FC0D9CF991B79E004C0991F961708F0961B86
S1131FD0881F7A95C9F780950895A8E1B0E042E09A
S1131FE050E005C012D0272F11C0DC01CB01FC0149
S1131FF0F999FECF06C0F2BDE1BDF89A319600B45E
S11320000D9241505040B8F70895262FF999FECF0C
S11320101FBA92BD81BD20BD0FB6F894FA9AF99A01
S10D20200FBE01960895F894FFCF57
S113202A013C01010000001F111D111D111F001F99
S113203A11151515111F001F1117111D111F001F4E
S113204A11171317111F001F11171717111F001F3C
S113205A11171115111F001F1115111D111F001F32
S113206A1B151115151F001F15151B1B1B1F001F00
S113207A15111115151F001F13151515131F001F10
S113208A111B1B1B111F001F15151515111F001FEE
S113209A15151115151F001F13151315151F001FEC
S11320AA11171117171F001F17171717111F001FD2
S11320BA111B1B1B1B1F001F11151117171F001FB4
S11320CA131D1D1B111F00207365636F6E6473005B
S11320DA446966663A204561737900446966663ADA
S11320EA204D656469756D00446966663A204861E5
S11320FA72640054696D65207365743A20004469FA
S113210A6666207365743A200020202B2020002A5A
S10F211A2020202D0020202F2020000079
S9030000FC
