S01800004763634170706C69636174696F6E31302E737265632A
S113000045C0000060C000005EC000005CC000008D
S11300105AC0000058C0000056C0000054C0000080
S113002052C0000050C000004EC000004CC0000090
S11300304AC00000BDC0000046C0000044C000002B
S113004042C0000040C000003EC000003CC00000B0
S11300503AC0000038C0000036C0000034C00000C0
S113006032C0000030C000002EC000002CC00000D0
S11300702AC0000028C0000026C0000024C00000E0
S113008022C0000020C000001EC0000011241FBEBA
S1130090CFEFD0E4DEBFCDBF11E0A0E0B1E0E2E9F4
S11300A0F0E100E00BBF02C007900D92A638B10743
S11300B0D9F721E0A6E8B1E001C01D92A039B2074A
S11300C0E1F7BFD7E4C79CCF181619065CF0089572
S11300D0000021503109E1F74F5F5F4F8417950706
S11300E019F4089540E050E027E033E0F1CF289878
S11300F08BB9299A0000299882E090E0E5CF089511
S113010081E0F5CF0895813118F48158F0CF089536
S11301108155EDCF089584E690E0D6DF88E3E7DFEC
S113012086E0E5DF8FE0E3DF81E0E1DF8AE090E075
S1130130CBCF0895289A8BB9299A0000299881E099
S113014090E0C2CF089560930201709303018093FD
S11301500401909305016093890170938A0180934F
S11301608B0190938C0108958BE0809381008DE73F
S113017090E0909389008093880082E080936F00E0
S113018010928500109284008091020190910301E5
S1130190A0910401B09105018093890190938A0193
S11301A0A0938B01B0938C018FB780688FBF0895A3
S11301B01F920F920FB60F9211248F939F93AF93B8
S11301C0BF938091890190918A01A0918B01B09194
S11301D08C010197A109B1098093890190938A0147
S11301E0A0938B01B0938C01892B8A2B8B2B99F4D0
S11301F081E080938D018091020190910301A0918F
S11302000401B09105018093890190938A01A09320
S11302108B01B0938C01BF91AF919F918F910F90FF
S11302200FBE0F901F9018950F931F93CF93DF93DA
S11302308B01880F880F880F805C59DFE801085F05
S11302401F4F899177DFC017D107D9F780E84FDFB7
S1130250DF91CF911F910F910895CF93DF93CDB785
S1130260DEB7A0970FB6F894DEBF0FBECDBF88E00F
S1130270E6E0F1E0DE01119601900D928A95E1F736
S113028088E0EEE0F1E0DE01199601900D928A9586
S1130290E1F788E0E6E1F1E0DE01519601900D928C
S11302A08A95E1F788E0EEE1F1E0DE0159960190EC
S11302B00D928A95E1F7BE016F5F7F4F80E0B4DF56
S11302C0BE01675F7F4F81E0AFDFBE016F5E7F4F8E
S11302D082E0AADFBE01675E7F4F83E0A5DF81E095
S11302E012DF80E027DF82E00EDF81E023DF83E09E
S11302F00ADF82E01FDF84E006DF83E01BDF85E0A6
S113030002DF80E217DF86E0FEDE80E213DF87E0B3
S1130310FADE80E20FDF88E0F6DE80E20BDF89E0C0
S1130320F2DE80E207DF8AE0EEDE80E203DF8BE0CC
S1130330EADE8DE4FFDE8CE0E6DE85E4FBDE8DE0C4
S1130340E2DE84E4F7DE8EE0DEDE89E4F3DE8FE0D5
S1130350DADE85E5EFDE80E1D6DE8DE4EBDE81E1F9
S1130360D2DE88E4E7DE82E1CEDE81E4E3DE83E10F
S1130370CADE82E5DFDE84E1C6DE84E4DBDE85E11D
S1130380C2DE80E2D7DE86E1BEDE80E2D3DE87E134
S1130390BADE80E2CFDE88E1B6DE80E2CBDE89E140
S11303A0B2DE80E2C7DE8AE1AEDE80E2C3DE8BE14C
S11303B0AADE80E2BFDE8CE1A6DE80E2BBDE8DE158
S11303C0A2DE80E2B7DE8EE19EDE80E2B3DE8FE164
S11303D09ADE80E2AFDE80E296DE80E2ABDEA096BB
S11303E00FB6F894DEBF0FBECDBFDF91CF91089555
S11303F0CF93DF93CDB7DEB7A8970FB6F894DEBFDF
S11304000FBECDBF88E0E6E0F1E0DE011196019079
S11304100D928A95E1F788E0E6E2F1E0DE011996B3
S113042001900D928A95E1F788E0EEE2F1E0DE01B9
S1130430519601900D928A95E1F788E0E6E3F1E0A8
S1130440DE01599601900D928A95E1F788E0EEE37A
S1130450F1E0DE01919601900D928A95E1F7BE01DB
S1130460675F7F4F80E0E0DEBE016F5F7F4F81E01A
S1130470DBDEBE016F5E7F4F82E0D6DEBE01675ECB
S11304807F4F83E0D1DEBE016F5D7F4F84E0CCDE21
S113049081E039DE85E44EDE82E035DE81E44ADE49
S11304A083E031DE83E546DE84E02DDE89E542DE4D
S11304B085E029DE80E23EDE86E025DE80E23ADE6B
S11304C087E021DE80E236DE88E01DDE80E232DE77
S11304D089E019DE80E22EDE8AE015DE80E22ADE83
S11304E08BE011DE80E026DE8CE00DDE81E022DE92
S11304F08DE009DE82E01EDE8EE005DE83E01ADE9A
S11305008FE001DE84E016DE80E1FDDD80E012DEB6
S113051081E1F9DD88E40EDE82E1F5DD81E40ADEC5
S113052083E1F1DD82E506DE84E1EDDD84E402DED3
S113053085E1E9DD80E2FEDD86E1E5DD80E2FADDEC
S113054087E1E1DD80E2F6DD88E1DDDD80E2F2DDF8
S113055089E1D9DD80E2EEDD8AE1D5DD80E2EADD04
S11305608BE1D1DD80E2E6DD8CE1CDDD80E2E2DD10
S11305708DE1C9DD80E2DEDD8EE1C5DD80E2DADD1C
S11305808FE1C1DD80E2D6DD80E2BDDD80E2D2DD37
S1130590A8960FB6F894DEBF0FBECDBFDF91CF9102
S11305A00895CF93DF93CDB7DEB7A0970FB6F89435
S11305B0DEBF0FBECDBF88E0E6E4F1E0DE011196B8
S11305C001900D928A95E1F788E0EEE0F1E0DE011A
S11305D0199601900D928A95E1F788E0EEE2F1E038
S11305E0DE01519601900D928A95E1F788E0EEE4E0
S11305F0F1E0DE01599601900D928A95E1F7BE0172
S11306006F5F7F4F80E010DEBE01675F7F4F81E048
S11306100BDEBE01675E7F4F82E006DEBE016F5EC9
S11306207F4F83E001DE81E06EDD85E483DD82E0DF
S11306306ADD81E47FDD83E066DD83E57BDD84E0E4
S113064062DD89E577DD85E05EDD80E273DD86E0ED
S11306505ADD80E26FDD87E056DD80E26BDD88E005
S113066052DD80E267DD89E04EDD80E263DD8AE011
S11306704ADD80E25FDD8BE046DD8DE45BDD8CE00E
S113068042DD85E457DD8DE03EDD84E453DD8EE01C
S11306903ADD89E44FDD8FE036DD85E54BDD80E131
S11306A032DD8DE447DD81E12EDD80E043DD82E152
S11306B02ADD81E03FDD83E126DD82E03BDD84E16C
S11306C022DD83E037DD85E11EDD80E233DD86E176
S11306D01ADD80E22FDD87E116DD80E22BDD88E183
S11306E012DD80E227DD89E10EDD80E223DD8AE18F
S11306F00ADD80E21FDD8BE106DD80E21BDD8CE19B
S113070002DD80E217DD8DE1FEDC80E213DD8EE1A7
S1130710FADC80E20FDD8FE1F6DC80E20BDD80E2C3
S1130720F2DC80E207DDA0960FB6F894DEBF0FBEC0
S1130730CDBFDF91CF91089580918F018130D9F0A1
S113074030F08230A1F1833009F44DC068C080914B
S11307500101882321F081E080938F0176C080918C
S11307608801882321F082E080938F0170C083E0A8
S113077080938F016EC0019904C082E080938F0141
S113078066C0029904C083E080938F0162C004991B
S11307905CC0049BFECF81E080930101109288012C
S11307A01092870110928601809300014EC0039934
S11307B004C081E080938F0148C0029904C083E0A3
S11307C080938F0146C0049942C0049BFECF1092CF
S11307D0010181E0809388011092870110928601C3
S11307E08093000134C0009904C081E080938F019C
S11307F02CC0019904C082E080938F0128C0049921
S113080028C0049BFECF109201011092880181E060
S11308108093870110928601809300011AC0813071
S1130820A1F028F0823099F08330A9F412C08091AD
S11308300101882311F011CD089580918801882346
S113084011F0D6CD0895ADCE089507CD0895D0CD3D
S11308500895A7CE089580910101882311F0FDCC5D
S1130860089580918801882311F0C2CD089599CE0E
S11308700895CF93DF93CDB7DEB7C054D1090FB637
S1130880F894DEBF0FBECDBF88E0EEE2F1E0DE01FA
S1130890119601900D928A95E1F788E0E6E3F1E084
S11308A0DE01199601900D928A95E1F788E0E6E55C
S11308B0F1E0DE01519601900D928A95E1F788E00E
S11308C0EEE5F1E0DE01599601900D928A95E1F78B
S11308D088E0EEE3F1E0DE01919601900D928A95B5
S11308E0E1F788E0E6E6F1E0DE01999601900D92E9
S11308F08A95E1F788E0EEE6F1E0DE01D196019019
S11309000D928A95E1F788E0EEE1F1E0DE01D996F7
S113091001900D928A95E1F7BE016F5F7F4F80E0F1
S113092083DCBE01675F7F4F81E07EDCBE016F5ECA
S11309307F4F82E079DCBE01675E7F4F83E074DC29
S1130940BE016F5D7F4F84E06FDCBE01675D7F4F4A
S113095085E06ADCBE016F5C7F4F86E065DCBE012A
S1130960675C7F4F87E060DC81E0CDDB80E5E2DB24
S113097082E0C9DB8CE4DEDB83E0C5DB81E4DADB27
S113098084E0C1DB89E5D6DB85E0BDDB80E2D2DB38
S113099086E0B9DB80E2CEDB87E0B5DB80E0CADB52
S11309A088E0B1DB81E0C6DB89E0ADDB82E0C2DB5D
S11309B08AE0A9DB82E0BEDB8BE0A5DB81E0BADB69
S11309C08CE0A1DB83E0B6DB8DE09DDB84E0B2DB71
S11309D08EE099DB85E0AEDB8FE095DB86E0AADB79
S11309E080E191DB87E0A6DB81E18DDB84E5A2DB9E
S11309F082E189DB89E49EDB83E185DB8DE49ADB9C
S1130A0084E181DB85E496DB85E17DDB80E292DBBA
S1130A1086E179DB80E28EDB87E175DB80E28ADBCD
S1130A2088E171DB80E286DB89E16DDB80E282DBD9
S1130A308AE169DB82E37EDB8BE165DB80E57ADBDF
S1130A408CE161DB8CE476DB8DE15DDB81E472DBE0
S1130A508EE159DB89E56EDB8FE155DB85E46ADBEA
S1130A6080E251DB82E566DBC05CDF4F0FB6F894B1
S1130A70DEBF0FBECDBFDF91CF910895CF93DF933B
S1130A80CDB7DEB7A0970FB6F894DEBF0FBECDBFCB
S1130A9088E0E6E7F1E0DE01119601900D928A9577
S1130AA0E1F788E0E6E6F1E0DE01199601900D92A7
S1130AB08A95E1F788E0EEE0F1E0DE0151960190DD
S1130AC00D928A95E1F788E0EEE1F1E0DE015996B6
S1130AD001900D928A95E1F7BE016F5F7F4F80E030
S1130AE0A3DBBE01675F7F4F81E09EDBBE016F5ECB
S1130AF07F4F82E099DBBE01675E7F4F83E094DB2A
S1130B0081E001DB80E016DB82E0FDDA81E012DBCC
S1130B1083E0F9DA82E00EDB84E0F5DA83E00ADBD5
S1130B2085E0F1DA80E206DB86E0EDDA80E202DBE2
S1130B3087E0E9DA84E4FEDA88E0E5DA89E4FADADF
S1130B4089E0E1DA86E4F6DA8AE0DDDA86E4F2DAEC
S1130B508BE0D9DA89E4EEDA8CE0D5DA83E4EADAF8
S1130B608DE0D1DA85E5E6DA8EE0CDDA8CE4E2DAFE
S1130B708FE0C9DA84E5DEDA80E1C5DA89E5DADA1C
S1130B8081E1C1DA84E5D6DA82E1BDDA89E4D2DA38
S1130B9083E1B9DA8DE4CEDA84E1B5DA85E4CADA40
S1130BA085E1B1DA80E2C6DA86E1ADDA80E2C2DA62
S1130BB087E1A9DA80E2BEDA88E1A5DA80E2BADA6E
S1130BC089E1A1DA80E2B6DA8AE19DDA82E3B2DA77
S1130BD08BE199DA80E5AEDA8CE195DA8CE4AADA75
S1130BE08DE191DA81E4A6DA8EE18DDA89E5A2DA83
S1130BF08FE189DA85E49EDA80E285DA82E59ADAA1
S1130C00A0960FB6F894DEBF0FBECDBFDF91CF9193
S1130C100895CF93DF93CDB7DEB7E8970FB6F89476
S1130C20DEBF0FBECDBF88E0EEE7F1E0DE01119636
S1130C3001900D928A95E1F788E0E6E7F1E0DE01A4
S1130C40199601900D928A95E1F788E0E6E6F1E0C5
S1130C50DE01519601900D928A95E1F788E0EEE06D
S1130C60F1E0DE01599601900D928A95E1F788E052
S1130C70EEE1F1E0DE01919601900D928A95E1F7A3
S1130C8088E0E6E0F1E0DE01999601900D928A9504
S1130C90E1F788E0EEE4F1E0DE01D19601900D92F7
S1130CA08A95E1F7BE016F5F7F4F80E0BDDABE0138
S1130CB0675F7F4F81E0B8DABE016F5E7F4F82E0ED
S1130CC0B3DABE01675E7F4F83E0AEDABE016F5DCB
S1130CD07F4F84E0A9DABE01675D7F4F85E0A4DA27
S1130CE0BE016F5C7F4F86E09FDA81E00CDA80E51D
S1130CF021DA82E008DA8CE41DDA83E004DA81E4A4
S1130D0019DA84E000DA89E515DA85E0FCD980E2B5
S1130D1011DA86E0F8D980E20DDA87E0F4D984E4C8
S1130D2009DA88E0F0D989E405DA89E0ECD986E4C7
S1130D3001DA8AE0E8D986E4FDD98BE0E4D989E4D4
S1130D40F9D98CE0E0D983E4F5D98DE0DCD985E5E7
S1130D50F1D98EE0D8D98CE4EDD98FE0D4D984E5EB
S1130D60E9D980E1D0D989E5E5D981E1CCD984E517
S1130D70E1D982E1C8D989E4DDD983E1C4D98DE41C
S1130D80D9D984E1C0D985E4D5D985E1BCD980E23B
S1130D90D1D986E1B8D980E2CDD987E1B4D980E24E
S1130DA0C9D988E1B0D980E2C5D989E1ACD980E25A
S1130DB0C1D98AE1A8D980E0BDD98BE1A4D981E069
S1130DC0B9D98CE1A0D982E0B5D98DE19CD983E071
S1130DD0B1D98EE198D984E0ADD98FE194D985E079
S1130DE0A9D980E290D986E0A5D9E8960FB6F894FF
S1130DF0DEBF0FBECDBFDF91CF910895CF93DF93B8
S1130E00CDB7DEB7A0970FB6F894DEBF0FBECDBF47
S1130E1088E0E6E0F1E0DE01119601900D928A95FA
S1130E20E1F788E0E6E2F1E0DE01199601900D9227
S1130E308A95E1F788E0E6E3F1E0DE01519601905E
S1130E400D928A95E1F788E0EEE6F1E0DE0159962D
S1130E5001900D928A95E1F7BE01675E7F4F80E0B5
S1130E60E3D9BE016F5E7F4F81E0DED9BE01675FCB
S1130E707F4F82E0D9D9BE016F5F7F4F83E0D4D921
S1130E8081E041D980E556D982E03DD98CE452D93C
S1130E9083E039D981E44ED984E035D989E54AD94A
S1130EA085E031D980E246D986E02DD980E242D965
S1130EB087E029D984E43ED988E025D989E43AD960
S1130EC089E021D986E436D98AE01DD986E432D96D
S1130ED08BE019D989E42ED98CE015D983E42AD979
S1130EE08DE011D985E526D98EE00DD98CE422D97F
S1130EF08FE009D984E51ED980E105D989E51AD99D
S1130F0081E101D980E016D982E1FDD881E012D9CE
S1130F1083E1F9D882E00ED984E1F5D883E00AD9D7
S1130F2085E1F1D880E206D986E1EDD880E202D9E4
S1130F3087E1E9D880E2FED888E1E5D880E2FAD8F2
S1130F4089E1E1D880E2F6D88AE1DDD882E3F2D8FB
S1130F508BE1D9D880E5EED88CE1D5D88CE4EAD8F9
S1130F608DE1D1D881E4E6D88EE1CDD889E5E2D807
S1130F708FE1C9D885E4DED880E2C5D882E5DAD825
S1130F80A0960FB6F894DEBF0FBECDBFDF91CF9110
S1130F90089580918E018230D9F028F4882341F09D
S1130FA0813051F043C0833049F1843099F13EC01F
S1130FB081E080938E013DC0019904C082E080935A
S1130FC08E0139C0029935C083E080938E0135C00B
S1130FD0039904C081E080938E012BC0029904C060
S1130FE084E080938E012BC0049925C0049BFECF1E
S1130FF01092000181E0809386011DC0009904C015
S113100081E080938E0115C0019917C084E080931C
S11310108E0115C0009904C082E080938E010BC03C
S113102003990DC083E080938E0107C081E0809313
S11310308E0124CD08951DCC0895E0CE0895E9CD08
S1131040089511B88FEF82B984B915B88AB91BB85D
S113105062D888E34CD88CE04AD861E070E080E044
S113106090E071D881D810928E0110928F0148D8E7
S11310708091000181118DDF8091860181115CDBFB
S113108080918D018823E1F310928D01F1CFF894C2
S1051090FFCF8C
S11310920101010000001F11171317111F001F1B6C
S11310A2151115151F001F1117111D111F001F15F2
S11310B2151B1B1B1F001F15111115151F001F13D4
S11310C2151515131F001F111B1B1B111F001F15C4
S11310D2151515111F001F15151115151F001F13C6
S11310E2151315151F001F11171117171F001F11B4
S11310F2171717111F001F17171717111F001F119A
S11311021B1B1B1B1F001F11151117171F001F1379
S10911121D1D1B111F004E
S9030000FC
