:1000000045C0000060C000005EC000005CC0000091
:100010005AC0000058C0000056C0000054C0000084
:1000200052C0000050C000004EC000004CC0000094
:100030004AC00000A1C0000046C0000044C000004B
:1000400042C0000040C000003EC000003CC00000B4
:100050003AC0000038C0000036C0000034C00000C4
:1000600032C0000030C000002EC000002CC00000D4
:100070002AC0000028C0000026C0000024C00000E4
:1000800022C0000020C000001EC0000011241FBEBE
:10009000CFEFD0E4DEBFCDBF11E0A0E0B1E0E0E102
:1000A000F2E000E00BBF02C007900D92A633B1074B
:1000B000D9F721E0A6E3B1E001C01D92AB33B2074E
:1000C000E1F796D0A3C09CCF181619065CF00895EE
:1000D000000021503109E1F74F5F5F4F841795070A
:1000E00019F4089540E050E027E033E0F1CF109894
:1000F0008BB9119A0000119882E090E0E5CF089545
:1001000081E0F5CF0895813118F48158F0CF08953A
:100110008155EDCF089584E690E0D6DF88E3E7DFF0
:1001200086E0E5DF8FE0E3DF81E0E1DF8AE090E079
:10013000CBCF0895109A8BB9119A0000119881E0E5
:1001400090E0C2CF08950F931F93CF93DF93182FA2
:10015000EB01D6DF8881882351F001E0010F812F68
:10016000D2DF8991E7DF102F88818111F6CFDF91EF
:10017000CF911F910F9108951F920F920FB60F927A
:1001800011248F939F93AF93BF93809136019091E9
:100190003701A0913801B09139010197A109B10946
:1001A0008093360190933701A0933801B0933901C1
:1001B000892B8A2B8B2B99F481E080933A018091D3
:1001C000320190913301A0913401B09135018093B7
:1001D000360190933701A0933801B0933901BF9154
:1001E000AF919F918F910F900FBE0F901F90189518
:1001F0008FEF81B912B88AB91BB88DDF81DF60E05B
:1002000071E081E0A0DF80E090E00895F894FFCFF6
:1002100048656C6C6F20576F726C64206162636418
:1002200065666768696A6B6C6D6E6F7000000000D0
:1002300000000000000000000000000000000000BE
:06024000000001000000B7
:00000001FF
