S01800004763634170706C69636174696F6E31302E737265632A
S113000045C0000060C000005EC000005CC000008D
S11300105AC0000058C0000056C0000054C0000080
S113002052C0000050C000004EC000004CC0000090
S11300304AC00000BDC0000046C0000044C000002B
S113004042C0000040C000003EC000003CC00000B0
S11300503AC0000038C0000036C0000034C00000C0
S113006032C0000030C000002EC000002CC00000D0
S11300702AC0000028C0000026C0000024C00000E0
S113008022C0000020C000001EC0000011241FBEBA
S1130090CFEFD0E4DEBFCDBF11E0A0E0B1E0E2E5F8
S11300A0FAE000E00BBF02C007900D92A437B1073D
S11300B0D9F721E0A4E7B1E001C01D92AA37B20745
S11300C0E1F7AAD4C4C49CCF181619065CF00895AD
S11300D0000021503109E1F74F5F5F4F8417950706
S11300E019F4089540E050E027E033E0F1CF289878
S11300F08BB9299A0000299882E090E0E5CF089511
S113010081E0F5CF0895813118F48158F0CF089536
S11301108155EDCF089584E690E0D6DF88E3E7DFEC
S113012086E0E5DF8FE0E3DF81E0E1DF8AE090E075
S1130130CBCF0895289A8BB9299A0000299881E099
S113014090E0C2CF08956093000170930101809301
S1130150020190930301609374017093750180937D
S113016076019093770108958BE0809381008DE769
S113017090E0909389008093880082E080936F00E0
S113018010928500109284008091000190910101E9
S1130190A0910201B09103018093740190937501C1
S11301A0A0937601B09377018FB780688FBF0895CD
S11301B01F920F920FB60F9211248F939F93AF93B8
S11301C0BF938091740190917501A0917601B091D3
S11301D077010197A109B109809374019093750186
S11301E0A0937601B0937701892B8A2B8B2B99F4FA
S11301F081E0809378018091000190910101A091A8
S11302000201B09103018093740190937501A0934E
S11302107601B0937701BF91AF919F918F910F9029
S11302200FBE0F901F9018950F931F93CF93DF93DA
S11302308B01880F880F880F805C59DFE801085F05
S11302401F4F899177DFC017D107D9F780E84FDFB7
S1130250DF91CF911F910F910895CF93DF93CDB785
S1130260DEB7C054D1090FB6F894DEBF0FBECDBFC0
S113027088E0E4E0F1E0DE01119601900D928A95A8
S1130280E1F788E0ECE0F1E0DE01199601900D92CF
S11302908A95E1F788E0E4E1F1E0DE01519601900E
S11302A00D928A95E1F788E0ECE1F1E0DE015996E0
S11302B001900D928A95E1F788E0E4E2F1E0DE0135
S11302C0919601900D928A95E1F788E0ECE2F1E0D5
S11302D0DE01999601900D928A95E1F788E0E4E3B6
S11302E0F1E0DE01D19601900D928A95E1F788E064
S11302F0ECE3F1E0DE01D99601900D928A95E1F7E5
S1130300BE016F5F7F4F80E08FDFBE01675F7F4F6D
S113031081E08ADFBE016F5E7F4F82E085DFBE0130
S1130320675E7F4F83E080DFBE016F5D7F4F84E0B7
S11303307BDFBE01675D7F4F85E076DFBE016F5CCA
S11303407F4F86E071DFBE01675C7F4F87E06CDF23
S113035081E0D9DE80E5EEDE82E0D5DE8CE4EADE03
S113036083E0D1DE81E4E6DE84E0CDDE89E5E2DE11
S113037085E0C9DE80E2DEDE86E0C5DE80E2DADE2C
S113038087E0C1DE80E0D6DE88E0BDDE81E0D2DE3B
S113039089E0B9DE82E0CEDE8AE0B5DE82E0CADE44
S11303A08BE0B1DE81E0C6DE8CE0ADDE83E0C2DE50
S11303B08DE0A9DE84E0BEDE8EE0A5DE85E0BADE57
S11303C08FE0A1DE86E0B6DE80E19DDE87E0B2DE6E
S11303D081E199DE84E5AEDE82E195DE89E4AADE80
S11303E083E191DE8DE4A6DE84E18DDE85E4A2DE88
S11303F085E189DE80E29EDE86E185DE80E29ADEAA
S113040087E181DE80E296DE88E17DDE80E292DEB5
S113041089E179DE80E28EDE8AE175DE82E38ADEBE
S11304208BE171DE80E586DE8CE16DDE8CE482DEBC
S11304308DE169DE81E47EDE8EE165DE89E57ADECA
S11304408FE161DE85E476DE80E25DDE82E572DEE8
S1130450C05CDF4F0FB6F894DEBF0FBECDBFDF9197
S1130460CF910895CF93DF93CDB7DEB7A0970FB6A2
S1130470F894DEBF0FBECDBF88E0E4E4F1E0DE0116
S1130480119601900D928A95E1F788E0ECE2F1E093
S1130490DE01199601900D928A95E1F788E0ECE46B
S11304A0F1E0DE01519601900D928A95E1F788E022
S11304B0ECE3F1E0DE01599601900D928A95E1F7A3
S11304C0BE016F5F7F4F80E0AFDEBE01675F7F4F8D
S11304D081E0AADEBE016F5E7F4F82E0A5DEBE0131
S11304E0675E7F4F83E0A0DE81E00DDE80E022DEE8
S11304F082E009DE81E01EDE83E005DE82E01ADEB2
S113050084E001DE83E016DE85E0FDDD80E212DEBC
S113051086E0F9DD80E20EDE87E0F5DD84E40ADEC4
S113052088E0F1DD89E406DE89E0EDDD86E402DEC3
S11305308AE0E9DD86E4FEDD8BE0E5DD89E4FADDD1
S11305408CE0E1DD83E4F6DD8DE0DDDD85E5F2DDE3
S11305508EE0D9DD8CE4EEDD8FE0D5DD84E5EADDE7
S113056080E1D1DD89E5E6DD81E1CDDD84E5E2DD13
S113057082E1C9DD89E4DEDD83E1C5DD8DE4DADD18
S113058084E1C1DD85E4D6DD85E1BDDD80E2D2DD37
S113059086E1B9DD80E2CEDD87E1B5DD80E2CADD4A
S11305A088E1B1DD80E2C6DD89E1ADDD80E2C2DD56
S11305B08AE1A9DD82E3BEDD8BE1A5DD80E5BADD5C
S11305C08CE1A1DD8CE4B6DD8DE19DDD81E4B2DD5D
S11305D08EE199DD89E5AEDD8FE195DD85E4AADD67
S11305E080E291DD82E5A6DDA0960FB6F894DEBF29
S11305F00FBECDBFDF91CF910895CF93DF93CDB7D9
S1130600DEB7E8970FB6F894DEBF0FBECDBF88E023
S1130610E4E5F1E0DE01119601900D928A95E1F78F
S113062088E0E4E4F1E0DE01199601900D928A95E8
S1130630E1F788E0ECE2F1E0DE01519601900D92E1
S11306408A95E1F788E0ECE4F1E0DE015996019047
S11306500D928A95E1F788E0ECE3F1E0DE019196F2
S113066001900D928A95E1F788E0ECE5F1E0DE0176
S1130670999601900D928A95E1F788E0E4E6F1E01D
S1130680DE01D19601900D928A95E1F7BE016F5F6C
S11306907F4F80E0C9DDBE01675F7F4F81E0C4DD2D
S11306A0BE016F5E7F4F82E0BFDDBE01675E7F4F9C
S11306B083E0BADDBE016F5D7F4F84E0B5DDBE012E
S11306C0675D7F4F85E0B0DDBE016F5C7F4F86E0E4
S11306D0ABDD81E018DD80E52DDD82E014DD8CE406
S11306E029DD83E010DD81E425DD84E00CDD89E58E
S11306F021DD85E008DD80E21DDD86E004DD80E2A9
S113070019DD87E000DD84E415DD88E0FCDC89E4A4
S113071011DD89E0F8DC86E40DDD8AE0F4DC86E4B2
S113072009DD8BE0F0DC89E405DD8CE0ECDC83E4BE
S113073001DD8DE0E8DC85E5FDDC8EE0E4DC8CE4C5
S1130740F9DC8FE0E0DC84E5F5DC80E1DCDC89E5E4
S1130750F1DC81E1D8DC84E5EDDC82E1D4DC89E400
S1130760E9DC83E1D0DC8DE4E5DC84E1CCDC85E408
S1130770E1DC85E1C8DC80E2DDDC86E1C4DC80E22A
S1130780D9DC87E1C0DC80E2D5DC88E1BCDC80E236
S1130790D1DC89E1B8DC80E2CDDC8AE1B4DC80E044
S11307A0C9DC8BE1B0DC81E0C5DC8CE1ACDC82E04F
S11307B0C1DC8DE1A8DC83E0BDDC8EE1A4DC84E057
S11307C0B9DC8FE1A0DC85E0B5DC80E29CDC86E06E
S11307D0B1DCE8960FB6F894DEBF0FBECDBFDF9153
S11307E0CF910895CF93DF93CDB7DEB7A0970FB61F
S11307F0F894DEBF0FBECDBF88E0ECE5F1E0DE018A
S1130800119601900D928A95E1F788E0ECE6F1E00B
S1130810DE01199601900D928A95E1F788E0ECE0EB
S1130820F1E0DE01519601900D928A95E1F788E09E
S1130830E4E3F1E0DE01599601900D928A95E1F727
S1130840BE01675E7F4F80E0EFDCBE016F5E7F4FCD
S113085081E0EADCBE01675F7F4F82E0E5DCBE0138
S11308606F5F7F4F83E0E0DC81E04DDC80E562DC9C
S113087082E049DC8CE45EDC83E045DC81E45ADC24
S113088084E041DC89E556DC85E03DDC80E252DC35
S113089086E039DC80E24EDC87E035DC84E44ADC47
S11308A088E031DC89E446DC89E02DDC86E442DC46
S11308B08AE029DC86E43EDC8BE025DC89E43ADC52
S11308C08CE021DC83E436DC8DE01DDC85E532DC64
S11308D08EE019DC8CE42EDC8FE015DC84E52ADC68
S11308E080E111DC89E526DC81E10DDC80E022DC9D
S11308F082E109DC81E01EDC83E105DC82E01ADCB4
S113090084E101DC83E016DC85E1FDDB80E212DCBE
S113091086E1F9DB80E20EDC87E1F5DB80E20ADCCC
S113092088E1F1DB80E206DC89E1EDDB80E202DCD8
S11309308AE1E9DB82E3FEDB8BE1E5DB80E5FADBE0
S11309408CE1E1DB8CE4F6DB8DE1DDDB81E4F2DBE1
S11309508EE1D9DB89E5EEDB8FE1D5DB85E4EADBEB
S113096080E2D1DB82E5E6DBA0960FB6F894DEBF29
S11309700FBECDBFDF91CF91089580917901823070
S1130980D9F028F4882341F0813051F039C0833004
S1130990F9F0843049F134C081E0809379013AC0A0
S11309A0019904C082E0809379012EC0029932C07B
S11309B083E0809379012AC0039904C081E0809385
S11309C0790128C0029920C084E08093790120C075
S11309D0009904C081E0809379011CC0019916C07C
S11309E084E08093790114C0009904C082E080936C
S11309F079010AC003990CC083E08093790106C091
S1130A0081E08093790106C028CC0895EBCE089547
S1130A10F4CD089527CD089511B88FEF82B984B924
S1130A2015B88AB91BB877DB88E361DB8CE05FDB40
S1130A3061E070E080E090E086DB96DB61DB9DDFC7
S1130A40809178018823E1F310927801F8CFF8942B
S1050A50FFCFD2
S1130A52010000001F13151515131F001F111B1B86
S1130A621B111F001F11171117171F001F11171732
S1130A7217111F001F15151515111F001F17171722
S1130A8217111F001F111B1B1B1B1F001F15151BFA
S1130A921B1B1F001F11151117171F001F1B1511F8
S1130AA215151F001F131D1D1B111F001F111713E6
S1130AB217111F001F13151315151F001F151111F0
S1070AC215151F00E3
S9030000FC
