S01800004763634170706C69636174696F6E31302E737265632A
S113000045C0000060C000005EC000005CC000008D
S11300105AC0000058C0000056C0000054C0000080
S113002052C0000050C000004EC000004CC0000090
S11300304AC00000BDC0000046C0000044C000002B
S113004042C0000040C000003EC000003CC00000B0
S11300503AC0000038C0000036C0000034C00000C0
S113006032C0000030C000002EC000002CC00000D0
S11300702AC0000028C0000026C0000024C00000E0
S113008022C0000020C000001EC0000011241FBEBA
S1130090CFEFD0E4DEBFCDBF11E0A0E0B1E0EAE9EC
S11300A0F4E000E00BBF02C007900D92A435B10745
S11300B0D9F721E0A4E5B1E001C01D92A935B2074A
S11300C0E1F7D0D1E8C19CCF181619065CF0089569
S11300D0000021503109E1F74F5F5F4F8417950706
S11300E019F4089540E050E027E033E0F1CF289878
S11300F08BB9299A0000299882E090E0E5CF089511
S113010081E0F5CF0895813118F48158F0CF089536
S11301108155EDCF089584E690E0D6DF88E3E7DFEC
S113012086E0E5DF8FE0E3DF81E0E1DF8AE090E075
S1130130CBCF0895289A8BB9299A0000299881E099
S113014090E0C2CF08956093000170930101809301
S113015002019093030160935401709355018093BD
S113016056019093570108958BE0809381008DE7A9
S113017090E0909389008093880082E080936F00E0
S113018010928500109284008091000190910101E9
S1130190A0910201B0910301809354019093550101
S11301A0A0935601B09357018FB780688FBF08950D
S11301B01F920F920FB60F9211248F939F93AF93B8
S11301C0BF938091540190915501A0915601B09133
S11301D057010197A109B1098093540190935501E6
S11301E0A0935601B0935701892B8A2B8B2B99F43A
S11301F081E0809358018091000190910101A091C8
S11302000201B09103018093540190935501A0938E
S11302105601B0935701BF91AF919F918F910F9069
S11302200FBE0F901F9018950F931F93CF93DF93DA
S11302308B01880F880F880F805C59DFE801085F05
S11302401F4F899177DFC017D107D9F780E84FDFB7
S1130250DF91CF911F910F910895CF93DF93CDB785
S1130260DEB7C054D1090FB6F894DEBF0FBECDBFC0
S113027088E0E4E0F1E0DE01119601900D928A95A8
S1130280E1F788E0ECE0F1E0DE01199601900D92CF
S11302908A95E1F788E0E4E1F1E0DE01519601900E
S11302A00D928A95E1F788E0ECE1F1E0DE015996E0
S11302B001900D928A95E1F788E0E4E2F1E0DE0135
S11302C0919601900D928A95E1F788E0ECE2F1E0D5
S11302D0DE01999601900D928A95E1F788E0E4E3B6
S11302E0F1E0DE01D19601900D928A95E1F788E064
S11302F0ECE3F1E0DE01D99601900D928A95E1F7E5
S1130300BE016F5F7F4F80E08FDFBE01675F7F4F6D
S113031081E08ADFBE016F5E7F4F82E085DFBE0130
S1130320675E7F4F83E080DFBE016F5D7F4F84E0B7
S11303307BDFBE01675D7F4F85E076DFBE016F5CCA
S11303407F4F86E071DFBE01675C7F4F87E06CDF23
S113035081E0D9DE80E5EEDE82E0D5DE8CE4EADE03
S113036083E0D1DE81E4E6DE84E0CDDE89E5E2DE11
S113037085E0C9DE80E2DEDE86E0C5DE80E2DADE2C
S113038087E0C1DE80E0D6DE88E0BDDE81E0D2DE3B
S113039089E0B9DE82E0CEDE8AE0B5DE82E0CADE44
S11303A08BE0B1DE81E0C6DE8CE0ADDE83E0C2DE50
S11303B08DE0A9DE84E0BEDE8EE0A5DE85E0BADE57
S11303C08FE0A1DE86E0B6DE80E19DDE87E0B2DE6E
S11303D081E199DE84E5AEDE82E195DE89E4AADE80
S11303E083E191DE8DE4A6DE84E18DDE85E4A2DE88
S11303F085E189DE80E29EDE86E185DE80E29ADEAA
S113040087E181DE80E296DE88E17DDE80E292DEB5
S113041089E179DE80E28EDE8AE175DE82E38ADEBE
S11304208BE171DE80E586DE8CE16DDE8CE482DEBC
S11304308DE169DE81E47EDE8EE165DE89E57ADECA
S11304408FE161DE85E476DE80E25DDE82E572DEE8
S1130450C05CDF4F0FB6F894DEBF0FBECDBFDF9197
S1130460CF9108958FEF84B915B88AB91BB853DEBC
S113047088E33DDE8CE03BDE68EE73E080E090E0F4
S113048062DE72DE3DDEE9DE809158018823E1F30D
S10D049010925801F8CFF894FFCF42
S113049A010000001F13151515131F001F111B1B44
S11304AA1B111F001F11171117171F001F111717F0
S11304BA17111F001F15151515111F001F171717E0
S11304CA17111F001F111B1B1B1B1F001F15151BB8
S11304DA1B1B1F001F11151117171F001F1B1511B6
S10704EA15151F00C1
S9030000FC
