S01800004763634170706C69636174696F6E31302E737265632A
S113000074C1000091C100008FC100008DC10000C7
S11300108BC1000089C1000087C1000085C10000B8
S113002083C1000081C100007FC100007DC10000C8
S11300307BC1000002C2000077C1000075C100004E
S113004073C1000071C100006FC100006DC10000E8
S11300506BC1000069C1000067C1000065C10000F8
S113006063C1000061C100005FC100005DC1000008
S11300705BC1000059C1000057C1000055C1000018
S113008053C1000051C100004FC10000F9210822F2
S1130090172226223522442259227E22A322C82254
S11300A0ED22122343237E23B923F4232F246A242D
S11300B0A524E0241B256D25AD25ED252D266D26D3
S11300C0AD26ED262C276B27AA27E92728286728A1
S11300D0A628E52824296329A229E129202A5F2AC0
S11300E0B12AE62A1B2B502B852BBA2BEF2B242C61
S11300F0592C8E2CC32CF82C2D2D622D972DCC2D04
S1130100012E362E6B2EA02ED52E000000000000EE
S1130110005F00000007000700147F147F14242AE6
S11301207F2A1223130864623649552250000503BE
S11301300000001C2241000041221C0014083E085B
S11301401408083E08080050300000080808080891
S1130150006060000020100804023E5149453E0042
S1130160427F400042615149462141454B311814B8
S1130170127F1027454545393C4A494930017109E8
S113018005033649494936064949291E00363600D1
S113019000005636000008142241001414141414EC
S11301A000412214080201510906324979413E7E78
S11301B01111117E7F494949363E414141227F4117
S11301C041221C7F494949417F090909013E4149AE
S11301D0497A7F0808087F00417F41002040413F61
S11301E0017F081422417F404040407F020C027F7F
S11301F07F0408107F3E4141413E7F090909063EC4
S11302004151215E7F091929464649494931010175
S11302107F01013F4040403F1F2040201F3F4038A6
S1130220403F631408146307087008076151494587
S113023043007F41410002040810200041417F0037
S11302400402010204404040404000010204002036
S1130250545454787F4844443838444444203844FF
S113026044487F3854545418087E0901020C5252F1
S1130270523E7F0804047800447D40002040443D01
S1130280007F1028440000417F40007C041804785B
S11302907C0804047838444444387C141414080852
S11302A01414187C7C080404084854545420043F53
S11302B04440203C4040207C1C2040201C3C4030DA
S11302C0403C44281028440C5050503C4464544C46
S11302D044000836410000007F0000004136080059
S11302E01008081008306018040211241FBECFEF54
S11302F0D0E4DEBFCDBF16E0A0E0B1E0E0E4F1E67B
S113030000E00BBF02C007900D92AE34B107D9F7DD
S113031028E0AEE4B6E001C01D92A036B207E1F7D2
S11303200E942C2F0C949E306BCEFC010FB6F894D7
S113033060915C0870915D0880915E0890915F08FF
S11303400FBE309721F06083718382839383089575
S11303502A98662311F02C9A15C02C9813C0AC016E
S1130360022E02C0559547950A94E2F740FF02C059
S11303702D9A01C02D982E9A2E982150310978F784
S11303802A9A089527E030E090E0E9CF60E0E0CFDA
S11303900895181619065CF00895000021503109DB
S11303A0E1F74F5F5F4F8417950719F4089540E014
S11303B050E027E033E0F1CF28988BB9299A000068
S11303C0299882E090E0E5CF089581E0F5CF089583
S11303D0813118F48158F0CF08958155EDCF0895F7
S11303E084E690E0D6DF88E3E7DF86E0E5DF8FE0B0
S11303F0E3DF81E0E1DF8AE090E0CBCF0895289A43
S11304008BB9299A0000299881E090E0C2CF089521
S11304101F93CF93DF93FB019081992351F0EB015C
S113042011E0180FD5DF8991EADF812F98819111AE
S1130430F7CFDF91CF911F9108951F920F920FB6BE
S11304400F9211248F939F93AF93BF938091500881
S113045090915108A0915208B09153080197A109B5
S1130460B1098093500890935108A0935208B09317
S11304705308892B8A2B8B2B99F481E080935408A1
S11304808091090190910A01A0910B01B0910C0196
S11304908093500890935108A0935208B093530846
S11304A0BF91AF919F918F910F900FBE0F901F90AE
S11304B01895CF93DF93229A239A249A259A269A01
S11304C02B9A2A9A83EC99E00197F1F700C0000077
S11304D02B988BE594E40197F1F700C000002B9A68
S11304E02A9881E253DF83E151DF86E04FDF82EC1B
S11304F04DDF80E24BDF89E049DF80E847DF80E4BD
S113050045DFC8EFD1E061E080E022DF2197D9F731
S113051088E03CDF8CE03ADFDF91CF91089580E8FA
S113052035DF80E433DF10924E0810924F08E6E581
S1130530F6E08EE498E01192E817F907E1F70895E0
S1130540262F26952695269590E034E5239F800D49
S1130550911D1124442379F0FC01EA5AF94F677084
S113056081E090E002C0880F991F6A95E2F79081BC
S1130570892B80830895FC01EA5AF94F677081E062
S113058090E002C0880F991F6A95E2F780959081E8
S11305908923808308955F926F927F928F929F92B6
S11305A0AF92BF92CF92DF92EF92FF920F931F937D
S11305B0CF93DF93562E262F30E04901880C991CE7
S11305C0880C991C820E931E181419040CF05BC03D
S11305D08901000F111F000F111F000F111F021BB3
S11305E0130B612CA82EB12CC50180975C01AA0CB9
S11305F0BB1CAA0CBB1CA80EB91E0F2EFFE4CF2EE9
S1130600F8E0DF2EF02D0F2EFEE4EF2EF8E0FF2EA3
S1130610F02D2BC0FE01249130E0872D652D0E9422
S1130620782F02C0359527958A95E2F720FF09C0F7
S1130630F6016081670DF701808141E0860D80DF5E
S113064008C0F6016081670DF701808140E0860DE6
S113065077DF7394872D90E080179107DCF2639421
S1130660862D90E08815990574F410161106BCF7D0
S1130670862D652D0E94782FE501C80FD11DC65F18
S1130680DE4F712CC7CF80914E0891E0980F852DD5
S1130690880F880F850D890F843518F480934E08D0
S11306A00EC010924E08EFE4F8E0808191E0980FBC
S11306B0852D880F880F880F8519890F8083809175
S11306C04F08803320F010924E0810924F08DF91AB
S11306D0CF911F910F91FF90EF90DF90CF90BF903B
S11306E0AF909F908F907F906F905F9008951F932D
S11306F0CF93DF93EC018881882339F0162F21965C
S1130700612F49DF89918111FBCFDF91CF911F9137
S113071008950F931F93CF93DF9380E837DE80E42F
S113072035DEC6E5D6E00EE418E061E0899110DE1E
S1130730C017D107D1F7DF91CF911F910F91089581
S113074061E08FE728CF0895CF93DF93C82FD62F8A
S1130750E6DECE3159F461E083E31DDF61E080E33E
S11307601ADF61E082E694E0C2DF19C0CC3359F4A9
S113077061E086E310DF61E080E30DDF61E082E6A3
S113078094E0B5DF0CC0CA3551F461E089E303DFBE
S113079061E080E300DF61E082E694E0A8DF10928C
S11307A04E088AE080934F08D11105C061E08BE6C2
S11307B094E09DDF0DC0D13029F461E086E794E038
S11307C096DF06C0D23021F461E083E894E08FDF45
S11307D010924E0884E180934F0861E08EE894E023
S11307E086DFCE3121F0CC3311F0CA3509F4A8DF0D
S11307F010924E088EE180934F0861E089E994E0FD
S113080076DFD33008F49CDF84DFDF91CF91089545
S11308100F931F93CF93DF9382DE61E084EA94E029
S113082066DF0EE418E0F8011082CFE4D8E084E13A
S1130830888361E089EB94E05ADFF80110828EE14D
S1130840888361E08CEB94E052DF63DF88EB9BE00C
S1130850A0DD10925506DF91CF911F910F9108955D
S1130860EF92FF920F931F93CF93DF93D82FC62F4E
S113087056DE61E08FEC94E03ADFD11105C061E00F
S11308808DEC94E034DFD3C0D13029F461E08BEDFA
S113089094E02DDFCCC0D23029F461E08EED94E0F9
S11308A026DFC5C0D33029F461E081EE94E01FDF78
S11308B0BEC0D43029F461E084EE94E018DFB7C000
S11308C0D53029F461E087EE94E011DFB0C0D63072
S11308D029F461E08AEE94E00ADFA9C0D73029F454
S11308E061E08DEE94E003DFA2C0D83029F461E02A
S11308F080EF94E0FCDE9BC0D93029F461E083EF03
S113090094E0F5DE94C0DA3029F461E087ED94E0F8
S1130910EEDE8DC0DB3029F461E08AED94E0E7DEA1
S113092086C0DC3029F461E08DED94E0E0DE7FC028
S1130930DD3029F461E080EE94E0D9DE78C0DE3069
S113094029F461E083EE94E0D2DE71C0DF3029F453
S113095061E086EE94E0CBDE6AC0D03129F461E038
S113096089EE94E0C4DE63C0D13129F461E08CEEF9
S113097094E0BDDE5CC0D23129F461E08FEE94E0F6
S1130980B6DE55C0D33129F461E082EF94E0AFDEE6
S11309904EC0D43129F461E085EF94E0A8DE47C06D
S11309A0D53129F461E088EF94E0A1DE40C0D6316E
S11309B029F461E08BEF94E09ADE39C0D73129F451
S11309C061E08EEF94E093DE32C0D83129F461E027
S11309D081E095E08CDE2BC0D93129F461E084E01C
S11309E095E085DE24C0DA3129F461E087E095E002
S11309F07EDE1DC0DB3129F461E08AE095E077DE1C
S1130A0016C0DC3129F461E08DE095E070DE0FC0A2
S1130A10DD3129F461E080E195E069DE08C0DE3172
S1130A2029F461E083E195E062DE01C0F1DE0F2E7E
S1130A30FEE4EF2EF8E0FF2EF02DF70110820FE414
S1130A4018E08AE0F801808361E086E195E04FDEFA
S1130A50F701108284E1F801808361E08CE195E084
S1130A6046DEF70110828EE1F801808361E082E2C4
S1130A7095E03DDEF701108288E2F801808361E0B1
S1130A8088E295E034DEC11105C061E08DEC94E0AC
S1130A902EDE75C2C13029F461E08BED94E027DECF
S1130AA06EC2C23029F461E08EED94E020DE67C2AC
S1130AB0C33029F461E081EE94E019DE60C2C430F1
S1130AC029F461E084EE94E012DE59C2C53029F4C1
S1130AD061E087EE94E00BDE52C2C63029F461E097
S1130AE08AEE94E004DE4BC2C73029F461E08DEE57
S1130AF094E0FDDD44C2C83029F461E080EF94E065
S1130B00F6DD3DC2C93029F461E083EF94E0EFDD06
S1130B1036C2CA3029F461E087ED94E0E8DD2FC2E3
S1130B20CB3029F461E08AED94E0E1DD28C2CC30D9
S1130B3029F461E08DED94E0DADD21C2CD3029F4B1
S1130B4061E080EE94E0D3DD1AC2CE3029F461E096
S1130B5083EE94E0CCDD13C2CF3029F461E086EE5D
S1130B6094E0C5DD0CC2C03129F461E089EE94E063
S1130B70BEDD05C2C13129F461E08CEE94E0B7DD3D
S1130B80FEC1C23129F461E08FEE94E0B0DDF7C11B
S1130B90C33129F461E082EF94E0A9DDF0C1C431EE
S1130BA029F461E085EF94E0A2DDE9C1C53129F4BF
S1130BB061E088EF94E09BDDE2C1C63129F461E095
S1130BC08BEF94E094DDDBC1C73129F461E08EEF53
S1130BD094E08DDDD4C1C83129F461E081E095E071
S1130BE086DDCDC1C93129F461E084E095E07FDD83
S1130BF0C6C1CA3129F461E087E095E078DDBFC160
S1130C00CB3129F461E08AE095E071DDB8C1CC31E3
S1130C1029F461E08DE095E06ADDB1C1CD3129F4BC
S1130C2061E080E195E063DDAAC1CE3129F461E0A1
S1130C3083E195E05CDDA3C1CF3129F461E080E379
S1130C4095E055DD9CC1C03229F461E083E395E071
S1130C504EDD95C1C13229F461E086E395E047DDBC
S1130C608EC1C23229F461E089E395E040DD87C199
S1130C70C33229F461E08CE395E039DD80C1C432EC
S1130C8029F461E08FE395E032DD79C1C53229F4BE
S1130C9061E082E495E02BDD72C1C63229F461E0A3
S1130CA085E495E024DD6BC1C73229F461E088E472
S1130CB095E01DDD64C1C83229F461E08BE495E060
S1130CC016DD5DC1C93229F461E08EE495E00FDDE3
S1130CD056C1CA3229F461E081E595E008DD4FC1CF
S1130CE0CB3229F461E084E595E001DD48C1CC32E2
S1130CF029F461E087E595E0FADC41C1CD3229F4BD
S1130D0061E08AE595E0F3DC3AC1CE3229F461E092
S1130D108DE595E0ECDC33C1CF3229F461E080E667
S1130D2095E0E5DC2CC1C03329F461E083E695E06D
S1130D30DEDC25C1C13329F461E086E695E0D7DC29
S1130D401EC1C23329F461E089E695E0D0DC17C105
S1130D50C33329F461E08CE695E0C9DC10C1C433E7
S1130D6029F461E08FE695E0C2DC09C1C53329F4BA
S1130D7061E082E795E0BBDC02C1C63329F461E09F
S1130D8085E795E0B4DCFBC0C73329F461E088E76C
S1130D9095E0ADDCF4C0C83329F461E08BE795E05D
S1130DA0A6DCEDC0C93329F461E08EE795E09FDC51
S1130DB0E6C0CA3329F461E081E895E098DCDFC03D
S1130DC0CB3329F461E084E895E091DCD8C0CC33DE
S1130DD029F461E087E895E08ADCD1C0CD3329F4B9
S1130DE061E08AE895E083DCCAC0CE3329F461E08F
S1130DF08DE895E07CDCC3C0CF3329F461E080E961
S1130E0095E075DCBCC0C03429F461E083E995E069
S1130E106EDCB5C0C13429F461E086E995E067DC95
S1130E20AEC0C23429F461E089E995E060DCA7C072
S1130E30C33429F461E08CE995E059DCA0C0C434E2
S1130E4029F461E08FE995E052DC99C0C53429F4B6
S1130E5061E082EA95E04BDC92C0C63429F461E09B
S1130E6085EA95E044DC8BC0C73429F461E088EA64
S1130E7095E03DDC84C0C83429F461E08BEA95E058
S1130E8036DC7DC0C93429F461E08EEA95E02FDCBC
S1130E9076C0CA3429F461E081EB95E028DC6FC0A8
S1130EA0CB3429F461E084EB95E021DC68C0CC34D8
S1130EB029F461E087EB95E01ADC61C0CD3429F4B4
S1130EC061E08AEB95E013DC5AC0CE3429F461E08A
S1130ED08DEB95E00CDC53C0CF3429F461E080EC59
S1130EE095E005DC4CC0C03529F461E083EC95E065
S1130EF0FEDB45C0C13529F461E086EC95E0F7DB03
S1130F003EC0C23529F461E089EC95E0F0DB37C0DE
S1130F10C33529F461E08CEC95E0E9DB30C0C435DD
S1130F2029F461E08FEC95E0E2DB29C0C53529F4B2
S1130F3061E082ED95E0DBDB22C0C63529F461E097
S1130F4085ED95E0D4DB1BC0C73529F461E088ED5D
S1130F5095E0CDDB14C0C83529F461E08BED95E054
S1130F60C6DB0DC0C93529F461E08EED95E0BFDB29
S1130F7006C0CA3521F461E081EE95E0B8DBC9DB37
S1130F80DF91CF911F910F91FF90EF9008950F93F0
S1130F901F93CF93DF938B01880F880F880F805C9A
S1130FA00BDAE801085F1F4F899129DAC017D107CE
S1130FB0D9F780E801DADF91CF911F910F9108955D
S1130FC0CF93DF93CDB7DEB7A8970FB6F894DEBF03
S1130FD00FBECDBF88E0EDE0F1E0DE011196019097
S1130FE00D928A95E1F788E0E5E1F1E0DE011996DA
S1130FF001900D928A95E1F788E0EDE1F1E0DE01E0
S1131000519601900D928A95E1F788E0E5E2F1E0CE
S1131010DE01599601900D928A95E1F788E0EDE2A0
S1131020F1E0DE01919601900D928A95E1F7BE01FF
S11310306F5F7F4F80E0ABDFBE01675F7F4F81E072
S1131040A6DFBE016F5E7F4F82E0A1DFBE01675E57
S11310507F4F83E09CDFBE016F5D7F4F84E097DFAD
S113106081E0B6D980E0CBD982E0B2D981E0C7D99A
S113107083E0AED980E2C3D984E0AAD982E0BFD9A3
S113108085E0A6D983E0BBD986E0A2D984E0B7D9AC
S113109087E09ED980E2B3D988E09AD980E2AFD9BB
S11310A089E096D980E2ABD98AE092D980E2A7D9C7
S11310B08BE08ED986E3A3D98CE08AD980E39FD9CB
S11310C08DE086D980E29BD98EE082D983E597D9D9
S11310D08FE07ED985E493D980E17AD983E48FD9EE
S11310E081E176D989E38BD982E172D980E387D90A
S11310F083E16ED980E283D984E16AD983E57FD91B
S113110085E166D985E47BD986E162D983E477D920
S113111087E15ED980E273D988E15AD980E26FD938
S113112089E156D980E26BD98AE152D980E267D944
S11311308BE14ED980E263D98CE14AD980E25FD950
S11311408DE146D980E25BD98EE142D980E257D95C
S11311508FE13ED980E253D980E23AD980E24FD977
S1131160A8960FB6F894DEBF0FBECDBFDF91CF9126
S11311700895CF93DF93CDB7DEB7A8970FB6F89451
S1131180DEBF0FBECDBF88E0E5E3F1E0DE011196DE
S113119001900D928A95E1F788E0E5E1F1E0DE0146
S11311A0199601900D928A95E1F788E0EDE1F1E05E
S11311B0DE01519601900D928A95E1F788E0E5E20F
S11311C0F1E0DE01599601900D928A95E1F788E0ED
S11311D0EDE2F1E0DE01919601900D928A95E1F73E
S11311E0BE016F5F7F4F80E0D2DEBE01675F7F4F3D
S11311F081E0CDDEBE016F5E7F4F82E0C8DEBE01BE
S1131200675E7F4F83E0C3DEBE016F5D7F4F84E086
S1131210BEDE81E0DDD883E3F2D882E0D9D880E372
S1131220EED883E0D5D880E2EAD884E0D1D883E54B
S1131230E6D885E0CDD885E4E2D886E0C9D883E451
S1131240DED887E0C5D880E2DAD888E0C1D880E269
S1131250D6D889E0BDD880E2D2D88AE0B9D880E275
S1131260CED88BE0B5D880E0CAD88CE0B1D881E084
S1131270C6D88DE0ADD880E2C2D88EE0A9D882E08D
S1131280BED88FE0A5D883E0BAD880E1A1D884E0A5
S1131290B6D881E19DD889E3B2D882E199D880E3B8
S11312A0AED883E195D880E2AAD884E191D883E5C9
S11312B0A6D885E18DD885E4A2D886E189D883E4CF
S11312C09ED887E185D880E29AD888E181D880E2E7
S11312D096D889E17DD880E292D88AE179D880E2F3
S11312E08ED88BE175D880E28AD88CE171D880E2FF
S11312F086D88DE16DD880E282D88EE169D880E20B
S11313007ED88FE165D880E27AD880E261D880E225
S113131076D8A8960FB6F894DEBF0FBECDBFDF9186
S1131320CF910895CF93DF93CDB7DEB7A8970FB6CB
S1131330F894DEBF0FBECDBF88E0EDE3F1E0DE013F
S1131340119601900D928A95E1F788E0E5E1F1E0CC
S1131350DE01199601900D928A95E1F788E0EDE19E
S1131360F1E0DE01519601900D928A95E1F788E053
S1131370E5E2F1E0DE01599601900D928A95E1F7DC
S113138088E0EDE2F1E0DE01919601900D928A95FC
S1131390E1F7BE016F5F7F4F80E0F9DDBE01675F5B
S11313A07F4F81E0F4DDBE016F5E7F4F82E0EFDDB1
S11313B0BE01675E7F4F83E0EADDBE016F5D7F4F54
S11313C084E0E5DD81E004D883E319D882E000D825
S11313D080E315D883E00E94E80180E210D884E01D
S11313E00E94E80183E50BD885E00E94E80185E4CA
S11313F006D886E00E94E80183E401D887E00E94D1
S1131400E80180E20E94FF0188E00E94E80180E296
S11314100E94FF0189E00E94E80180E20E94FF012E
S11314208AE00E94E80180E20E94FF018BE00E94B2
S1131430E80186E30E94FF018CE00E94E80180E35A
S11314400E94FF018DE00E94E80180E20E94FF01FA
S11314508EE00E94E80183E50E94FF018FE00E9474
S1131460E80185E40E94FF0180E10E94E80183E431
S11314700E94FF0181E10E94E80180E00E94FF01D7
S113148082E10E94E80181E00E94FF0183E10E9461
S1131490E80180E20E94FF0184E10E94E80182E009
S11314A00E94FF0185E10E94E80183E00E94FF01A0
S11314B086E10E94E80184E00E94FF0187E10E9426
S11314C0E80180E20E94FF0188E10E94E80180E2D5
S11314D00E94FF0189E10E94E80180E20E94FF016D
S11314E08AE10E94E80180E20E94FF018BE10E94F0
S11314F0E80180E20E94FF018CE10E94E80180E2A1
S11315000E94FF018DE10E94E80180E20E94FF0138
S11315108EE10E94E80180E20E94FF018FE10E94B7
S1131520E80180E20E94FF0180E20E94E80180E27B
S11315300E94FF01A8960FB6F894DEBF0FBECDBF80
S1131540DF91CF91089580915A088130C9F030F02D
S11315508230E9F1833009F461C086C080910701CB
S11315608E3121F481E080935A0894C08C3321F4A5
S113157082E080935A0890C083E080935A088EC01A
S1131580019904C082E080935A0886C0029904C07D
S113159083E080935A0882C004997CC0049BFECFE8
S11315A08EE1809307016091080170E080E090E093
S11315B00E9420306091070170E081E090E00E9479
S11315C0203010924F0681E0809304014DC00399AE
S11315D004C081E080935A085DC0029904C083E08E
S11315E080935A085BC0049957C0049BFECF8CE3D8
S11315F0809307016091080170E080E090E00E9410
S113160020306091070170E081E090E00E9420307A
S113161010924F0681E08093040126C0009904C013
S113162081E080935A0836C0019904C082E0809317
S11316305A0832C0049932C0049BFECF8AE58093D5
S113164007016091080170E080E090E00E94203082
S11316506091070170E081E090E00E9420301092D8
S11316604F0681E08093040180915A08813091F003
S113167028F0823089F0833091F410C08091070102
S11316808E3111F49DCC08958C3311F472CD0895EC
S113169049CE089595CC08956CCD089543CE089510
S11316A0CF93DF93CDB7DEB7A0970FB6F894DEBF24
S11316B00FBECDBF88E0E5E2F1E0DE0111960190B6
S11316C00D928A95E1F788E0E5E4F1E0DE011996F0
S11316D001900D928A95E1F788E0EDE1F1E0DE01F9
S11316E0519601900D928A95E1F788E0EDE4F1E0DE
S11316F0DE01599601900D928A95E1F7BE016F5F64
S11317007F4F80E044DCBE01675F7F4F81E03FDCB8
S1131710BE016F5E7F4F82E03ADCBE01675E7F4FA1
S113172083E035DC81E00E94E80180E00E94FF0153
S113173082E00E94E80181E00E94FF0183E00E94B0
S1131740E80182E00E94FF0184E00E94E80183E056
S11317500E94FF0185E00E94E80180E20E94FF01EF
S113176086E00E94E80180E20E94FF0187E00E9477
S1131770E80180E20E94FF0188E00E94E80180E223
S11317800E94FF0189E00E94E80180E20E94FF01BB
S11317908AE00E94E80180E20E94FF018BE00E943F
S11317A0E8018DE40E94FF018CE00E94E80185E4D9
S11317B00E94FF018DE00E94E80184E40E94FF0181
S11317C08EE00E94E80189E40E94FF018FE00E94FC
S11317D0E80185E50E94FF0180E10E94E8018DE4B3
S11317E00E94FF0181E10E94E80188E40E94FF0158
S11317F082E10E94E80181E40E94FF0183E10E94EA
S1131800E80182E50E94FF0184E10E94E80184E48A
S11318100E94FF0185E10E94E80180E20E94FF012D
S113182086E10E94E80180E20E94FF0187E10E94B4
S1131830E80180E20E94FF0188E10E94E80180E261
S11318400E94FF0189E10E94E80180E20E94FF01F9
S11318508AE10E94E80180E20E94FF018BE10E947C
S1131860E80180E20E94FF018CE10E94E80180E22D
S11318700E94FF018DE10E94E80180E20E94FF01C5
S11318808EE10E94E80180E20E94FF018FE10E9444
S1131890E80180E20E94FF0180E20E94E80180E208
S11318A00E94FF01A0960FB6F894DEBF0FBECDBF15
S11318B0DF91CF910895CF93DF93CDB7DEB7A8978B
S11318C00FB6F894DEBF0FBECDBF88E0E5E2F1E0CD
S11318D0DE01119601900D928A95E1F788E0E5E525
S11318E0F1E0DE01199601900D928A95E1F788E006
S11318F0EDE5F1E0DE01519601900D928A95E1F754
S113190088E0E5E6F1E0DE01599601900D928A95B2
S1131910E1F788E0EDE6F1E0DE01919601900D92A9
S11319208A95E1F7BE01675F7F4F80E030DBBE013F
S11319306F5F7F4F81E02BDBBE016F5E7F4F82E0E4
S113194026DBBE01675E7F4F83E021DBBE016F5D56
S11319507F4F84E01CDB81E00E94E80185E40E9463
S1131960FF0182E00E94E80181E40E94FF0183E01C
S11319700E94E80183E50E94FF0184E00E94E801DF
S113198089E50E94FF0185E00E94E80180E20E944F
S1131990FF0186E00E94E80180E20E94FF0187E0E7
S11319A00E94E80180E20E94FF0188E00E94E801B1
S11319B080E20E94FF0189E00E94E80180E20E9427
S11319C0FF018AE00E94E80180E20E94FF018BE0AF
S11319D00E94E80180E00E94FF018CE00E94E8017F
S11319E081E00E94FF018DE00E94E80182E00E94F4
S11319F0FF018EE00E94E80183E00E94FF018FE076
S1131A000E94E80184E00E94FF0180E10E94E80155
S1131A1080E00E94FF0181E10E94E80188E40E94C5
S1131A20FF0182E10E94E80181E40E94FF0183E159
S1131A300E94E80182E50E94FF0184E10E94E8011E
S1131A4084E40E94FF0185E10E94E80180E20E9493
S1131A50FF0186E10E94E80180E20E94FF0187E124
S1131A600E94E80180E20E94FF0188E10E94E801EF
S1131A7080E20E94FF0189E10E94E80180E20E9465
S1131A80FF018AE10E94E80180E20E94FF018BE1EC
S1131A900E94E80180E20E94FF018CE10E94E801BB
S1131AA080E20E94FF018DE10E94E80180E20E9431
S1131AB0FF018EE10E94E80180E20E94FF018FE1B4
S1131AC00E94E80180E20E94FF0180E20E94E80196
S1131AD080E20E94FF01A8960FB6F894DEBF0FBE05
S1131AE0CDBFDF91CF910895CF93DF93CDB7DEB70C
S1131AF0A0970FB6F894DEBF0FBECDBF88E0E5E730
S1131B00F1E0DE01119601900D928A95E1F788E0EB
S1131B10E5E4F1E0DE01199601900D928A95E1F772
S1131B2088E0EDE5F1E0DE01519601900D928A9591
S1131B30E1F788E0EDE7F1E0DE01599601900D92BE
S1131B408A95E1F7BE016F5F7F4F80E020DABE0126
S1131B50675F7F4F81E01BDABE01675E7F4F82E0E3
S1131B6016DABE016F5E7F4F83E011DA81E00E94D6
S1131B70E80185E40E94FF0182E00E94E80181E41B
S1131B800E94FF0183E00E94E80183E50E94FF01B7
S1131B9084E00E94E80189E50E94FF0185E00E943B
S1131BA0E80180E20E94FF0186E00E94E80180E2F1
S1131BB00E94FF0187E00E94E80180E20E94FF0189
S1131BC088E00E94E80180E20E94FF0189E00E940F
S1131BD0E80180E20E94FF018AE00E94E80180E2BD
S1131BE00E94FF018BE00E94E8018DE40E94FF0146
S1131BF08CE00E94E80185E40E94FF018DE00E94D0
S1131C00E80184E40E94FF018EE00E94E80189E477
S1131C100E94FF018FE00E94E80185E50E94FF0118
S1131C2080E10E94E8018DE40E94FF0181E10E94AD
S1131C30E80180E00E94FF0182E10E94E80181E066
S1131C400E94FF0183E10E94E80182E00E94FF01FB
S1131C5084E10E94E80183E00E94FF0185E10E9483
S1131C60E80180E20E94FF0186E10E94E80180E22F
S1131C700E94FF0187E10E94E80180E20E94FF01C7
S1131C8088E10E94E80180E20E94FF0189E10E944C
S1131C90E80180E20E94FF018AE10E94E80180E2FB
S1131CA00E94FF018BE10E94E80180E20E94FF0193
S1131CB08CE10E94E80180E20E94FF018DE10E9414
S1131CC0E80180E20E94FF018EE10E94E80180E2C7
S1131CD00E94FF018FE10E94E80180E20E94FF015F
S1131CE080E20E94E80180E20E94FF01A0960FB604
S1131CF0F894DEBF0FBECDBFDF91CF910895CF938F
S1131D0080915B088130C9F030F08230D9F18330A2
S1131D1009F45DC081C080910801811104C081E093
S1131D2080935B088FC0813021F482E080935B084C
S1131D308BC083E080935B0889C0019904C082E072
S1131D4080935B0881C0029904C083E080935B08A0
S1131D507DC0049977C0049BFECF1092080160E017
S1131D6070E080E090E00E9420306091070170E014
S1131D7081E090E00E9420301092500681E0809330
S1131D8004014AC0039904C081E080935B085AC0EF
S1131D90029904C083E080935B0858C0049954C03E
S1131DA0049BFECFC1E0C093080161E070E080E0D5
S1131DB090E00E9420306091070170E081E090E0A3
S1131DC00E94203010925006C093040125C000994F
S1131DD004C081E080935B0835C0019904C082E0AF
S1131DE080935B0831C0049931C0049BFECF82E02C
S1131DF08093080162E070E080E090E00E9420306F
S1131E006091070170E081E090E00E942030109220
S1131E10500681E08093040180915B08813091F049
S1131E2028F0823089F0833091F410C08091080149
S1131E30811102C035DC0BC0813011F43CDD07C0D8
S1131E4053DE05C02DDC03C036DD01C04DDECF916D
S1131E500895CF93DF93CDB7DEB7C054D1090FB641
S1131E60F894DEBF0FBECDBF88E0EDE5F1E0DE0102
S1131E70119601900D928A95E1F788E0E5E6F1E08C
S1131E80DE01199601900D928A95E1F788E0E5E864
S1131E90F1E0DE01519601900D928A95E1F788E018
S1131EA0EDE2F1E0DE01599601900D928A95E1F799
S1131EB088E0EDE6F1E0DE01919601900D928A95BD
S1131EC0E1F788E0EDE8F1E0DE01999601900D92EA
S1131ED08A95E1F788E0E5E9F1E0DE01D196019029
S1131EE00D928A95E1F788E0EDE4F1E0DE01D99600
S1131EF001900D928A95E1F7BE016F5F7F4F80E0FC
S1131F0046D8BE01675F7F4F81E041D8BE016F5E56
S1131F107F4F82E03CD8BE01675E7F4F83E037D8B5
S1131F20BE016F5D7F4F84E032D8BE01675D7F4F95
S1131F3085E02DD8BE016F5C7F4F86E028D8BE01B6
S1131F40675C7F4F87E023D881E00E94E80180E549
S1131F500E94FF0182E00E94E8018CE40E94FF01DC
S1131F6083E00E94E80181E40E94FF0184E00E9472
S1131F70E80189E50E94FF0185E00E94E80180E212
S1131F800E94FF0186E00E94E80180E20E94FF01B6
S1131F9087E00E94E80180E00E94FF0188E00E943F
S1131FA0E80181E00E94FF0189E00E94E80182E0EB
S1131FB00E94FF018AE00E94E80182E00E94FF0182
S1131FC08BE00E94E80181E00E94FF018CE00E9406
S1131FD0E80183E00E94FF018DE00E94E80184E0B3
S1131FE00E94FF018EE00E94E80185E00E94FF014B
S1131FF08FE00E94E80186E00E94FF0180E10E94D8
S1132000E80187E00E94FF0181E10E94E80184E584
S11320100E94FF0182E10E94E80189E40E94FF011D
S113202083E10E94E8018DE40E94FF0184E10E94A3
S1132030E80185E40E94FF0185E10E94E80180E255
S11320400E94FF0186E10E94E80180E20E94FF01F4
S113205087E10E94E80180E20E94FF0188E10E947A
S1132060E80180E20E94FF0189E10E94E80180E228
S11320700E94FF018AE10E94E80182E30E94FF01BD
S11320808BE10E94E80180E50E94FF018CE10E943F
S1132090E8018CE40E94FF018DE10E94E80181E4E3
S11320A00E94FF018EE10E94E80189E50E94FF0180
S11320B08FE10E94E80185E40E94FF0180E20E9412
S11320C0E80182E50E94FF01C05CDF4F0FB6F8947F
S11320D0DEBF0FBECDBFDF91CF910895CF93DF93C5
S11320E0CDB7DEB7A0970FB6F894DEBF0FBECDBF55
S11320F088E0EDE9F1E0DE01119601900D928A95F8
S1132100E1F788E0EDE8F1E0DE01199601900D9227
S11321108A95E1F788E0E5E4F1E0DE01519601906B
S11321200D928A95E1F788E0EDE4F1E0DE0159963D
S113213001900D928A95E1F7BE016F5F7F4F80E0B9
S11321400E94C707BE01675F7F4F81E00E94C707F7
S1132150BE016F5E7F4F82E00E94C707BE01675ECB
S11321607F4F83E00E94C70781E00E94E80180E07E
S11321700E94FF0182E00E94E80181E00E94FF01C9
S113218083E00E94E80182E00E94FF0184E00E9453
S1132190E80183E00E94FF0185E00E94E80180E2FB
S11321A00E94FF0186E00E94E80180E20E94FF0194
S11321B087E00E94E80184E40E94FF0188E00E9415
S11321C0E80189E40E94FF0189E00E94E80186E4B5
S11321D00E94FF018AE00E94E80186E40E94FF0158
S11321E08BE00E94E80189E40E94FF018CE00E94D8
S11321F0E80183E40E94FF018DE00E94E80185E587
S11322000E94FF018EE00E94E8018CE40E94FF011D
S11322108FE00E94E80184E50E94FF0180E10E94B2
S1132220E80189E50E94FF0181E10E94E80184E55B
S11322300E94FF0182E10E94E80189E40E94FF01FB
S113224083E10E94E8018DE40E94FF0184E10E9481
S1132250E80185E40E94FF0185E10E94E80180E233
S11322600E94FF0186E10E94E80180E20E94FF01D2
S113227087E10E94E80180E20E94FF0188E10E9458
S1132280E80180E20E94FF0189E10E94E80180E206
S11322900E94FF018AE10E94E80182E30E94FF019B
S11322A08BE10E94E80180E50E94FF018CE10E941D
S11322B0E8018CE40E94FF018DE10E94E80181E4C1
S11322C00E94FF018EE10E94E80189E50E94FF015E
S11322D08FE10E94E80185E40E94FF0180E20E94F0
S11322E0E80182E50E94FF01A0960FB6F894DEBFD4
S11322F00FBECDBFDF91CF910895CF93DF93CDB7BC
S1132300DEB7E8970FB6F894DEBF0FBECDBF88E006
S1132310E5EAF1E0DE01119601900D928A95E1F76C
S113232088E0EDE9F1E0DE01199601900D928A95BD
S1132330E1F788E0EDE8F1E0DE01519601900D92BD
S11323408A95E1F788E0E5E4F1E0DE015996019031
S11323500D928A95E1F788E0EDE4F1E0DE019196D3
S113236001900D928A95E1F788E0E5E2F1E0DE0163
S1132370999601900D928A95E1F788E0EDE7F1E0F6
S1132380DE01D19601900D928A95E1F7BE016F5F4F
S11323907F4F80E00E94C707BE01675F7F4F81E0E7
S11323A00E94C707BE016F5E7F4F82E00E94C7078D
S11323B0BE01675E7F4F83E00E94C707BE016F5D69
S11323C07F4F84E00E94C707BE01675D7F4F85E0B1
S11323D00E94C707BE016F5C7F4F86E00E94C7075B
S11323E081E00E94E80180E50E94FF0182E00E94F2
S11323F0E8018CE40E94FF0183E00E94E80181E48B
S11324000E94FF0184E00E94E80189E50E94FF0127
S113241085E00E94E80180E20E94FF0186E00E94BC
S1132420E80180E20E94FF0187E00E94E80184E461
S11324300E94FF0188E00E94E80189E40E94FF01F4
S113244089E00E94E80186E40E94FF018AE00E947C
S1132450E80186E40E94FF018BE00E94E80189E420
S11324600E94FF018CE00E94E80183E40E94FF01C6
S11324708DE00E94E80185E50E94FF018EE00E9444
S1132480E8018CE40E94FF018FE00E94E80184E5EA
S11324900E94FF0180E10E94E80189E50E94FF019A
S11324A081E10E94E80184E50E94FF0182E10E942B
S11324B0E80189E40E94FF0183E10E94E8018DE4C0
S11324C00E94FF0184E10E94E80185E40E94FF016B
S11324D085E10E94E80180E20E94FF0186E10E94FA
S11324E0E80180E20E94FF0187E10E94E80180E2A6
S11324F00E94FF0188E10E94E80180E20E94FF013E
S113250089E10E94E80180E20E94FF018AE10E94C1
S1132510E80180E00E94FF018BE10E94E80181E074
S11325200E94FF018CE10E94E80182E00E94FF0109
S11325308DE10E94E80183E00E94FF018EE10E9488
S1132540E80184E00E94FF018FE10E94E80185E038
S11325500E94FF0180E20E94E80186E00E94FF01E0
S1132560E8960FB6F894DEBF0FBECDBFDF91CF91D2
S11325700895CF93DF93CDB7DEB7A0970FB6F89445
S1132580DEBF0FBECDBF88E0E5E2F1E0DE011196CB
S113259001900D928A95E1F788E0E5E5F1E0DE012E
S11325A0199601900D928A95E1F788E0E5E6F1E04D
S11325B0DE01519601900D928A95E1F788E0E5E9F4
S11325C0F1E0DE01599601900D928A95E1F7BE0182
S11325D0675E7F4F80E00E94C707BE016F5E7F4F3A
S11325E081E00E94C707BE01675F7F4F82E00E94BF
S11325F0C707BE016F5F7F4F83E00E94C70781E07A
S11326000E94E80180E50E94FF0182E00E94E80147
S11326108CE40E94FF0183E00E94E80181E40E94AF
S1132620FF0184E00E94E80189E50E94FF0185E042
S11326300E94E80180E20E94FF0186E00E94E80116
S113264080E20E94FF0187E00E94E80184E40E9486
S1132650FF0188E00E94E80189E40E94FF0189E00B
S11326600E94E80186E40E94FF018AE00E94E801DA
S113267086E40E94FF018BE00E94E80189E40E9445
S1132680FF018CE00E94E80183E40E94FF018DE0D9
S11326900E94E80185E50E94FF018EE00E94E801A6
S11326A08CE40E94FF018FE00E94E80184E50E940F
S11326B0FF0180E10E94E80189E50E94FF0181E1B8
S11326C00E94E80180E00E94FF0182E10E94E8018B
S11326D081E00E94FF0183E10E94E80182E00E9400
S11326E0FF0184E10E94E80183E00E94FF0185E18B
S11326F00E94E80180E20E94FF0186E10E94E80155
S113270080E20E94FF0187E10E94E80180E20E94CA
S1132710FF0188E10E94E80180E20E94FF0189E153
S11327200E94E80180E20E94FF018AE10E94E80120
S113273082E30E94FF018BE10E94E80180E50E9490
S1132740FF018CE10E94E8018CE40E94FF018DE10D
S11327500E94E80181E40E94FF018EE10E94E801E9
S113276089E50E94FF018FE10E94E80185E40E944F
S1132770FF0180E20E94E80182E50E94FF01A09629
S11327800FB6F894DEBF0FBECDBFDF91CF91089591
S11327901092550680915908823031F128F488232B
S11327A049F0813059F058C08330A1F1843009F4E4
S11327B047C052C081E08093590854C0019904C0B5
S11327C082E08093590850C0029904C083E080934A
S11327D059084CC0049946C0049BFECF10920401D2
S11327E081E080934E063EC0039904C081E080934B
S11327F0590838C0029904C084E08093590830C055
S1132800049932C0049BFECF1092040181E08093AE
S113281050062AC0009904C081E08093590822C060
S1132820019904C084E0809359081AC004991EC019
S1132830049BFECF1092040181E080934F0616C0E2
S1132840009904C082E0809359080EC0039908C01F
S113285083E0809359080AC081E08093590802C03C
S11328604CCD08953BCC0895F4CA089582CE0895C2
S1132870179A169A0895169A169880B185FB882798
S113288080F9089567EE70E080E090E00E942030C7
S113289067EE70E081E090E00E94203087EE809344
S11328A007018093080108950E948F0261E084EE7D
S11328B095E00E9477030E94890380ED97E00C94D1
S11328C0C90108950F931F93CF93DF930E948F0242
S11328D061E086E096E00E94770310924E088AE059
S11328E080934F0861E081E196E00E947703809134
S11328F05506811106C061E08DEC94E00E947703D7
S1132900EFC0813031F461E08BED94E00E947703F5
S1132910E7C0823031F461E08EED94E00E947703E9
S1132920DFC0833031F461E081EE94E00E947703EC
S1132930D7C0843031F461E084EE94E00E947703E0
S1132940CFC0853031F461E087EE94E00E947703D4
S1132950C7C0863031F461E08AEE94E00E947703C8
S1132960BFC0873031F461E08DEE94E00E947703BC
S1132970B7C0883031F461E080EF94E00E947703BF
S1132980AFC0893031F461E083EF94E00E947703B3
S1132990A7C08A3031F461E087ED94E00E947703A8
S11329A09FC08B3031F461E08AED94E00E9477039C
S11329B097C08C3031F461E08DED94E00E94770390
S11329C08FC08D3031F461E080EE94E00E94770393
S11329D087C08E3031F461E083EE94E00E94770387
S11329E07FC08F3031F461E086EE94E00E9477037B
S11329F077C0803131F461E089EE94E00E9477037E
S1132A006FC0813131F461E08CEE94E00E94770371
S1132A1067C0823131F461E08FEE94E00E94770365
S1132A205FC0833131F461E082EF94E00E94770368
S1132A3057C0843131F461E085EF94E00E9477035C
S1132A404FC0853131F461E088EF94E00E94770350
S1132A5047C0863131F461E08BEF94E00E94770344
S1132A603FC0873131F461E08EEF94E00E94770338
S1132A7037C0883131F461E081E095E00E9477034A
S1132A802FC0893131F461E084E095E00E9477033E
S1132A9027C08A3131F461E087E095E00E94770332
S1132AA01FC08B3131F461E08AE095E00E94770326
S1132AB017C08C3131F461E08DE095E00E9477031A
S1132AC00FC08D3131F461E080E195E00E9477031D
S1132AD007C08E3129F461E083E195E00E94770319
S1132AE00EE418E0F8011082CFE4D8E084E1888392
S1132AF061E08DE196E00E947703F80110828EE197
S1132B00888361E083E296E00E9477030E94890350
S1132B1088E893E10E94C901DF91CF911F910F9141
S1132B2008953F924F925F926F927F928F929F92FD
S1132B30AF92BF92CF92DF92EF92FF920F931F93C7
S1132B40CF93DF93CDB7DEB7CF56D1090FB6F89444
S1132B50DEBF0FBECDBFA696EFAEA697A796FFAE7B
S1132B60A797A8960FAFA897A9961FAFA997AA965B
S1132B702FAFAA97AB963FAFAB97AC964FAFAC973E
S1132B80AD965FAFAD97AE966FAFAE97AF967FAF92
S1132B90AF97E0968FAFE097BE016B597F4F8E01E0
S1132BA00F5F1F4FC8010E941430F80101900020EC
S1132BB0E9F731976894EE24E5F8F12CF182E0828C
S1132BC065E670E06C0F7D1F6D5F7F4FC8010E944A
S1132BD00930F80101900020E9F731978DE390E086
S1132BE09183808365E670E06C0F7D1F6A5F7F4F81
S1132BF0C8010E940930D8010D900020E9F711970F
S1132C008DE0EDE3F6E001900D928A95E1F7FCAAE0
S1132C10EBAA0E94E50181E00E94E8017E0180E1C7
S1132C20E80EF11CF80181918F010E94FF01E0166A
S1132C30F106C1F781E10E94E801312C01E010E0C6
S1132C406E01F3E3CF0ED11C0F2EFBE2AF2EF0E2A8
S1132C50BF2EF02D0F2EFDE28F2EF0E29F2EF02DD1
S1132C600F2EFFE26F2EF0E27F2EF02D0F2EFAE2F0
S1132C704F2EF0E25F2EF02D0F2EF1E5EF2EF6E051
S1132C80FF2EF02D009920C0009BFECFE0968EAD64
S1132C909FADE097009761F09C01265031092230E6
S1132CA0310530F08B30910519F04397029708F401
S1132CB03394F60101900020E9F73197B182A082A4
S1132CC012820F5F1F4F5BC0019922C0019BFECF90
S1132CD0E0968EAD9FADE0979C01235031092230E0
S1132CE0310550F08C30910539F02E5031092230E5
S1132CF0310510F0079709F43394F6010190002090
S1132D00E9F731979182808212820F5F1F4F37C09B
S1132D1002991AC0029BFECFE0968EAD9FADE0975C
S1132D209C01277F2230310519F00D97049708F490
S1132D303394F60101900020E9F7319771826082A3
S1132D4012820F5F1F4F1BC0039919C0039BFECF54
S1132D50E0968EAD9FADE0979C012B7F213031052D
S1132D6019F00897029708F43394F60101900020B3
S1132D70E9F731975182408212820F5F1F4F809191
S1132D805306909154062091050130910601821753
S1132D90930770F08091510690915206019690939A
S1132DA0520680935106109254061092530605C0A1
S1132DB00196909354068093530660910701F7019E
S1132DC08081681B809155060E9430048091070120
S1132DD090E02091510630915206281739073CF0B3
S1132DE071DD10924E0681E08093040104C002302C
S1132DF011050CF447CF1016110674F47E01F3E3A9
S1132E00EF0EF11C0E0D1F1DF70181917F010E9431
S1132E10FF01E016F106C1F7F1E03F1206C0809110
S1132E2055068F5F8093550605C0809155068150E5
S1132E3080935506C159DF4F0FB6F894DEBF0FBE1D
S1132E40CDBFDF91CF911F910F91FF90EF90DF9055
S1132E50CF90BF90AF909F908F907F906F905F9036
S1132E604F903F9008952F923F924F925F926F92AE
S1132E707F928F929F92AF92BF92CF92DF92EF9206
S1132E80FF920F931F93CF93DF93CDB7DEB7C25A50
S1132E90D1090FB6F894DEBF0FBECDBFC956DF4FC0
S1132EA00883C759D040C856DF4F1883C859D0404B
S1132EB0C756DF4F2883C959D040C656DF4F3883E1
S1132EC0CA59D040C556DF4F4883CB59D040C45669
S1132ED0DF4F5883CC59D040C356DF4F6883CD5958
S1132EE0D040C256DF4F7883CE59D040C156DF4F11
S1132EF08883CF59D040C056DF4F9883C05AD04002
S1132F00C156DF4FA880B980CF59D040C956DF4F92
S1132F1068817981C759D0408E010F5F1F4FC80166
S1132F200E941430F80101900020E9F73197689469
S1132F30EE24E5F8F12CF182E082C756DF4F688178
S1132F407981C959D040C8010E940930F801019023
S1132F500020E9F73197F182E082C556DF4F68819E
S1132F607981CB59D040C8010E940930F801019001
S1132F700020E9F731978DE390E091838083C35675
S1132F80DF4F68817981CD59D040C8010E94093052
S1132F90D8010D900020E9F711978DE0EDE3F6E0FC
S1132FA001900D928A95E1F7FCAAEBAAA796FFAED1
S1132FB0EEAEA7970E94E50181E00E94E8017E0140
S1132FC080E1E80EF11CF80181918F010E94FF015C
S1132FD0E016F106C1F781E10E94E801CC24C39414
S1132FE0D12C1E01F5E62F0E311C0F2EFBE26F2EA5
S1132FF0712CF02DCE01C396CF55DF4F9983888372
S1133000C15AD0400F2EFBE24F2EF0E25F2EF02D7E
S11330100F2EF1E58F2EF6E09F2EF02D00991AC0A9
S1133020009BFECFF10101900020E9F731977182F6
S11330306082CF55DF4FE881F981C15AD0400190B9
S11330400020E9F731975182408212829FEFC91A1A
S1133050D90A5FC001991EC0019BFECFF101019006
S11330600020E9F731978DE290E091838083CF557A
S1133070DF4FE881F981C15AD04001900020E9F77F
S113308031978DE290E29183808312829FEFC91A77
S1133090D90A3FC002991EC0029BFECFF1010190E4
S11330A00020E9F731978FE290E091838083CF5538
S11330B0DF4FE881F981C15AD04001900020E9F73F
S11330C031978FE290E29183808312829FEFC91A35
S11330D0D90A1FC003991DC0039BFECFF1010190C3
S11330E00020E9F731978AE290E091838083CF55FD
S11330F0DF4FE881F981C15AD04001900020E9F7FF
S113310031978AE290E29183808312829FEFC91AF9
S1133110D90A80915306909154062091050130916B
S113312006018217930770F0809151069091520620
S11331300196909352068093510610925406109271
S1133140530605C0019690935406809353066091EC
S11331500701F4018081681B809155060E943004A8
S113316081E10E94E8011C141D0474F48E010D5CBD
S11331701F4F7801EC0CFD1CF80181918F010E9416
S1133180FF01E016F106C1F78091070190E020915C
S1133190510630915206281739073CF093DB109200
S11331A04E0681E08093040105C0F3E0CF16D104FC
S11331B00CF434CFA114B104B1F4A7968FADA79742
S11331C08B3259F4A8968FADA8978B3231F4809145
S11331D055068F5F809355063AC0809155068150FD
S11331E08093550634C081E0A816B104B1F4A796C3
S11331F08FADA7978B3259F4A8968FADA8978A32D2
S113320031F4809155068F5F809355063AC08091C2
S1133210550681508093550634C092E0A916B10436
S1133220B1F4A7968FADA7978A3259F4A8968FADBB
S1133230A8978B3231F4809155068F5F80935506A1
S11332403AC08091550681508093550634C0E3E01E
S1133250AE16B104B1F4A7968FADA7978A3259F48C
S1133260A8968FADA8978D3231F4809155068F5F63
S1133270809355063AC08091550681508093550637
S113328034C0F4E0AF16B104B1F4A7968FADA7979C
S11332908D3259F4A8968FADA8978F3231F480916E
S11332A055068F5F809355063AC08091550681502C
S11332B08093550634C085E0A816B104B1F4A796EE
S11332C08FADA7978F3259F4A8968FADA8978B32FC
S11332D031F4809155068F5F809355063AC08091F2
S11332E0550681508093550634C096E0A916B10462
S11332F0B1F4A7968FADA7978B3259F4A8968FADEA
S1133300A8978F3231F4809155068F5F80935506CC
S11333103AC08091550681508093550634C0E7E049
S1133320AE16B104B1F4A7968FADA7978D3259F4B8
S1133330A8968FADA8978B3231F4809155068F5F94
S1133340809355063AC08091550681508093550666
S113335034C0F8E0AF16B104B1F4A7968FADA797C7
S11333608A3259F4A8968FADA8978A3231F48091A5
S113337055068F5F809355063AC08091550681505B
S11333808093550634C089E0A816B104B1F4A79619
S11333908FADA7978D3259F4A8968FADA8978A322E
S11333A031F4809155068F5F809355063AC0809121
S11333B0550681508093550634C09AE0A916B1048D
S11333C0B1F4A7968FADA7978F3259F4A8968FAD15
S11333D0A8978F3231F4809155068F5F80935506FC
S11333E03AC08091550681508093550634C0EBE075
S11333F0AE16B104B1F4A7968FADA7978A3259F4EB
S1133400A8968FADA8978B3231F4809155068F5FC3
S1133410809355063AC08091550681508093550695
S113342034C0FCE0AF16B104B1F4A7968FADA797F2
S11334308B3259F4A8968FADA8978A3231F48091D3
S113344055068F5F809355063AC08091550681508A
S11334508093550634C08DE0A816B104B1F4A79644
S11334608FADA7978B3259F4A8968FADA8978F325A
S113347031F4809155068F5F809355063AC0809150
S1133480550681508093550634C09EE0A916B104B8
S1133490B1F4A7968FADA7978A3259F4A8968FAD49
S11334A0A8978D3231F4809155068F5F809355062D
S11334B03AC08091550681508093550634C0EFE0A0
S11334C0AE16B104B1F4A7968FADA7978D3259F417
S11334D0A8968FADA8978F3231F4809155068F5FEF
S11334E0809355063AC080915506815080935506C5
S11334F034C0F0E1AF16B104B1F4A7968FADA7972D
S11335008F3259F4A8968FADA8978B3231F48091FD
S113351055068F5F809355063AC0809155068150B9
S11335208093550634C081E1A816B104B1F4A7967E
S11335308FADA7978D3259F4A8968FADA8978A328C
S113354031F4809155068F5F809355063AC080917F
S1133550550681508093550634C092E1A916B104F2
S1133560B1F4A7968FADA7978A3259F4A8968FAD78
S1133570A8978D3231F4809155068F5F809355065C
S113358039C08091550681508093550633C0E3E1DC
S1133590AE16B104B1F4A7968FADA7978F3259F444
S11335A0A8968FADA8978A3231F4809155068F5F23
S11335B0809355061FC0809155068150809355060F
S11335C019C0F4E1AF16B104A9F4A7968FADA7977B
S11335D08F3259F4A8968FADA8978A3231F480912E
S11335E055068F5F8093550605C08091550681501E
S11335F080935506CE55DF4F0FB6F894DEBF0FBE4D
S1133600CDBFDF91CF911F910F91FF90EF90DF908D
S1133610CF90BF90AF909F908F907F906F905F906E
S11336204F903F902F9008952F923F924F925F9228
S11336306F927F928F929F92AF92BF92CF92DF92BE
S1133640EF92FF920F931F93CF93DF93CDB7DEB723
S1133650C25AD1090FB6F894DEBF0FBECDBFC9560A
S1133660DF4FE882C759D040C856DF4FF882C859A7
S1133670D040C756DF4F0883C959D040C656DF4FE4
S11336801883CA59D040C556DF4F2883CB59D04040
S1133690C456DF4F3883CC59D040C356DF4F4883DC
S11336A0CD59D040C256DF4F5883CE59D040C15671
S11336B0DF4F6883CF59D040C056DF4F7883C05A5C
S11336C0D040CF55DF4F8883C15AD040CE55DF4F0D
S11336D09883C25AD040CF55DF4FC880D980C15A91
S11336E0D040C956DF4F68817981C759D0408E01D7
S11336F00F5F1F4FC8010E941430F8010190002091
S1133700E9F731976894EE24E5F8F12CF182E08230
S1133710C756DF4F68817981C959D040C8010E94DA
S11337200930F80101900020E9F73197F182E08235
S1133730C556DF4F68817981CB59D040C8010E94BA
S11337400930F80101900020E9F73197F182E08215
S1133750C356DF4F68817981CD59D040C8010E949A
S11337600930F80101900020E9F731978DE390E0EA
S113377091838083C156DF4F68817981CF59D040CE
S1133780C8010E940930D8010D900020E9F7119773
S11337908DE0EDE3F6E001900D928A95E1F7FCAA45
S11337A0EBAAA796FFAEEEAEA7970E94E50181E0D3
S11337B00E94E8017E0180E1E80EF11CF80181918C
S11337C08F010E94FF010E151F05C1F781E10E94C0
S11337D0E80101E010E02E01F5E64F0E511C0F2E1A
S11337E0FBE28F2E912CF02D7E0183E3E80EF11C79
S11337F00F2EFBE2AF2EF0E2BF2EF02D0F2EFDE2D6
S11338002F2E312CF02D0F2EF1E56F2EF6E07F2EAA
S1133810F02D009914C0009BFECFF201019000200E
S1133820E9F7319791828082F70101900020E9F74E
S11338303197B182A08212820F5F1F4F4BC0019952
S113384016C0019BFECFF20101900020E9F73197E9
S113385031822082F70101900020E9F731978DE24F
S113386090E29183808312820F5F1F4F33C00299CD
S113387018C0029BFECFF20101900020E9F73197B6
S11338808FE290E091838083F70101900020E9F7B3
S113389031978FE290E29183808312820F5F1F4FF2
S11338A019C0039917C0039BFECFF20101900020B9
S11338B0E9F731978AE290E091838083F7010190E0
S11338C00020E9F731978AE290E2918380831282A3
S11338D00F5F1F4F8091530690915406209105016C
S11338E0309106018217930770F0809151069091F0
S11338F052060196909352068093510610925406F4
S11339001092530605C00196909354068093530673
S113391060910701F3018081681B809155060E9424
S11339203004B70181E10E9408028091070190E010
S113393020915106309152062817390744F00E940D
S1133940621410924E0681E08093040104C0043096
S113395011050CF45ECFC114D104D9F4A7968FAD30
S1133960A7978A3281F4A8968FADA8978F3259F41D
S1133970A9968FADA9978B3231F4809155068F5F4C
S11339808093550644C08091550681508093550616
S11339903EC0F1E0CF16D104D9F4A7968FADA79716
S11339A08D3281F4A8968FADA8978A3259F4A996DE
S11339B08FADA9978B3231F4809155068F5F809338
S11339C0550644C0809155068150809355063EC0EB
S11339D082E0C816D104D9F4A7968FADA7978A328E
S11339E081F4A8968FADA8978F3259F4A9968FAD1C
S11339F0A9978B3231F4809155068F5F80935506D9
S1133A0044C0809155068150809355063EC093E092
S1133A10C916D104D9F4A7968FADA7978B3281F438
S1133A20A8968FADA8978B3259F4A9968FADA99714
S1133A308B3231F4809155068F5F8093550644C0D4
S1133A40809155068150809355063EC0E4E0CE1621
S1133A50D104D9F4A7968FADA7978B3281F4A89699
S1133A608FADA8978A3259F4A9968FADA9978D3254
S1133A7031F4809155068F5F8093550644C0809140
S1133A8055068150809355063EC0F5E0CF16D1040B
S1133A90D9F4A7968FADA7978A3281F4A8968FADF3
S1133AA0A8978B3259F4A9968FADA9978B3231F42C
S1133AB0809155068F5F8093550644C080915506CA
S1133AC08150809355063EC086E0C816D104D9F4CF
S1133AD0A7968FADA7978A3281F4A8968FADA89741
S1133AE08D3259F4A9968FADA9978B3231F4809118
S1133AF055068F5F8093550644C0809155068150CA
S1133B00809355063EC097E0C916D104D9F4A79610
S1133B108FADA7978D3281F4A8968FADA8978D327B
S1133B2059F4A9968FADA9978D3231F48091550639
S1133B308F5F8093550644C08091550681508093D1
S1133B4055063EC0E8E0CE16D104D9F4A7968FAD51
S1133B50A7978D3281F4A8968FADA8978B3259F42C
S1133B60A9968FADA9978A3231F4809155068F5F5B
S1133B708093550644C08091550681508093550624
S1133B803EC0F9E0CF16D104D9F4A7968FADA7971C
S1133B908B3281F4A8968FADA8978B3259F4A996ED
S1133BA08FADA9978D3231F4809155068F5F809344
S1133BB0550644C0809155068150809355063EC0F9
S1133BC08AE0C816D104D9F4A7968FADA7978A3294
S1133BD081F4A8968FADA8978A3259F4A9968FAD2F
S1133BE0A9978A3231F4809155068F5F80935506E8
S1133BF044C0809155068150809355063EC09BE099
S1133C00C916D104D9F4A7968FADA7978D3281F444
S1133C10A8968FADA8978A3259F4A9968FADA99723
S1133C208B3231F4809155068F5F8093550644C0E2
S1133C30809155068150809355063EC0ECE0CE1627
S1133C40D104D9F4A7968FADA7978B3281F4A896A7
S1133C508FADA8978B3259F4A9968FADA9978F325F
S1133C6031F4809155068F5F8093550644C080914E
S1133C7055068150809355063EC0FDE0CF16D10411
S1133C80D9F4A7968FADA7978D3281F4A8968FADFE
S1133C90A8978F3259F4A9968FADA9978B3231F436
S1133CA0809155068F5F8093550644C080915506D8
S1133CB08150809355063EC08EE0C816D104D9F4D5
S1133CC0A7968FADA7978A3281F4A8968FADA8974F
S1133CD08F3259F4A9968FADA9978B3231F4809124
S1133CE055068F5F8093550644C0809155068150D8
S1133CF0809355063EC09FE0C916D104D9F4A79617
S1133D008FADA7978B3281F4A8968FADA8978F3289
S1133D1059F4A9968FADA9978D3231F48091550647
S1133D208F5F8093550644C08091550681508093DF
S1133D3055063EC0E0E1CE16D104D9F4A7968FAD66
S1133D40A7978D3281F4A8968FADA8978A3259F43B
S1133D50A9968FADA9978B3231F4809155068F5F68
S1133D608093550644C08091550681508093550632
S1133D703EC0F1E1CF16D104D9F4A7968FADA79731
S1133D808B3281F4A8968FADA8978F3259F4A996F7
S1133D908FADA9978F3231F4809155068F5F809350
S1133DA0550644C0809155068150809355063EC007
S1133DB082E1C816D104D9F4A7968FADA7978F32A4
S1133DC081F4A8968FADA8978B3259F4A9968FAD3C
S1133DD0A9978F3231F4809155068F5F80935506F1
S1133DE043C0809155068150809355063DC093E1B0
S1133DF0C916D104D9F4A7968FADA7978A3281F456
S1133E00A8968FADA8978B3259F4A9968FADA99730
S1133E108B3231F4809155068F5F8093550624C010
S1133E20809155068150809355061EC0E4E1CE165C
S1133E30D104D1F4A7968FADA7978A3281F4A896BE
S1133E408FADA8978F3259F4A9968FADA9978D326B
S1133E5031F4809155068F5F8093550605C080919B
S1133E605506815080935506CE55DF4F0FB6F89412
S1133E70DEBF0FBECDBFDF91CF911F910F91FF9099
S1133E80EF90DF90CF90BF90AF909F908F907F90F6
S1133E906F905F904F903F902F900895EF92FF9214
S1133EA00F931F93CF93DF93CDB7DEB7C55BD2409B
S1133EB00FB6F894DEBF0FBECDBF1092520610921B
S1133EC051068BE0EDEAF1E0DE01119601900D92CE
S1133ED08A95E1F78BE0E8EBF1E0DE011C960190B6
S1133EE00D928A95E1F78BE0E3ECF1E0DE01579661
S1133EF001900D928A95E1F78BE0EEECF1E0DE01A2
S1133F00929601900D928A95E1F78BE0E9EDF1E04C
S1133F10DE019D9601900D928A95E1F78BE0E4EE27
S1133F20F1E0DE01D89601900D928A95E1F78BE0DD
S1133F30EFEEF1E0DE01AD5BBF4F01900D928A958B
S1133F40E1F78BE0EAEFF1E0DE01A25BBF4F019005
S1133F500D928A95E1F78BE0E5E0F2E0DE01A75AE5
S1133F60BF4F01900D928A95E1F78BE0E0E1F2E01A
S1133F70DE01AC59BF4F01900D928A95E1F78BE0B9
S1133F80EBE1F2E0DE01A159BF4F01900D928A9559
S1133F90E1F78BE0E6E2F2E0DE01A658BF4F0190C4
S1133FA00D928A95E1F78BE0E1E3F2E0DE01AB5795
S1133FB0BF4F01900D928A95E1F78BE0ECE3F2E0BC
S1133FC0DE01A057BF4F01900D928A95E1F78BE077
S1133FD0E7E4F2E0DE01A556BF4F01900D928A9509
S1133FE0E1F78BE0E2E5F2E0DE01AA55BF4F019074
S1133FF00D928A95E1F78BE0EDE5F2E0DE01AF5436
S1134000BF4F01900D928A95E1F78BE0E8E6F2E06C
S1134010DE01A454BF4F01900D928A95E1F78BE025
S1134020E3E7F2E0DE01A953BF4F01900D928A95B8
S1134030E1F78BE0EEE7F2E0DE01AE52BF4F019014
S11340400D928A95E1F78BE0E9E8F2E0DE01A352F4
S1134050BF4F01900D928A95E1F78AE0E4E9F2E01E
S1134060DE01A851BF4F01900D928A95E1F78AE0D5
S1134070EEE9F2E0DE01AE50BF4F01900D928A9559
S1134080E1F78AE0E8EAF2E0DE01A450BF4F0190D4
S11340900D928A95E1F78AE0E2EBF2E0DE01AA5F95
S11340A0BE4F01900D928A95E1F78AE0ECEBF2E0C5
S11340B0DE01A05FBE4F01900D928A95E1F78AE080
S11340C0E6ECF2E0DE01A65EBE4F01900D928A9509
S11340D0E1F78AE0E0EDF2E0DE01AC5DBE4F019075
S11340E00D928A95E1F78AE0EAEDF2E0DE01A25D45
S11340F0BE4F01900D928A95E1F78AE0E4EEF2E07A
S1134100DE01A85CBE4F01900D928A95E1F78AE02A
S1134110EEEEF2E0DE01AE5BBE4F01900D928A95A9
S1134120E1F78AE0E8EFF2E0DE01A45BBE4F019024
S11341300D928A95E1F78AE0E2E0F3E0DE01AA5A03
S1134140BE4F01900D928A95E1F78AE0ECE0F3E02E
S1134150DE01A05ABE4F01900D928A95E1F78AE0E4
S1134160E6E1F3E0DE01A659BE4F01900D928A9577
S1134170E1F78AE0E0E2F3E0DE01AC58BE4F0190E3
S11341800D928A95E1F78AE0EAE2F3E0DE01A258B3
S1134190BE4F01900D928A95E1F78AE0E4E3F3E0E3
S11341A0DE01A857BE4F01900D928A95E1F78AE08F
S11341B0EEE3F3E0DE01AE56BE4F01900D928A9518
S11341C0E1F78AE0E8E4F3E0DE01A456BE4F019093
S11341D00D928A95E1F78AE0E2E5F3E0DE01AA5563
S11341E0BE4F01900D928A95E1F78AE0ECE5F3E089
S11341F0DE01A055BE4F01900D928A95E1F78CE047
S1134200E6E6F3E0DE01A654BE4F01900D928A95D6
S1134210E1F78CE0E2E7F3E0DE01AA53BE4F019040
S11342200D928A95E1F78CE0EEE7F3E0DE01AE5201
S1134230BE4F01900D928A95E1F78CE0EAE8F3E035
S1134240DE01A252BE4F01900D928A95E1F78CE0F7
S1134250E6E9F3E0DE01A651BE4F01900D928A9586
S1134260E1F78CE0E2EAF3E0DE01AA50BE4F0190F0
S11342700D928A95E1F78CE0EEEAF3E0DE01AE5FA1
S1134280BD4F01900D928A95E1F78CE0EAEBF3E0E3
S1134290DE01A25FBD4F01900D928A95E1F78CE09B
S11342A0E6ECF3E0DE01A65EBD4F01900D928A9527
S11342B0E1F78CE0E2EDF3E0DE01AA5DBD4F019091
S11342C00D928A95E1F78CE0EEEDF3E0DE01AE5C51
S11342D0BD4F01900D928A95E1F78CE0EAEEF3E090
S11342E0DE01A25CBD4F01900D928A95E1F78CE04E
S11342F0E6EFF3E0DE01A65BBD4F01900D928A95D7
S1134300E1F78CE0E2E0F4E0DE01AA5ABD4F01904F
S11343100D928A95E1F78CE0EEE0F4E0DE01AE590F
S1134320BD4F01900D928A95E1F78CE0EAE1F4E04B
S1134330DE01A259BD4F01900D928A95E1F78CE000
S1134340E6E2F4E0DE01A658BD4F01900D928A9595
S1134350E1F78CE0E2E3F4E0DE01AA57BD4F0190FF
S11343600D928A95E1F78CE0EEE3F4E0DE01AE56BF
S1134370BD4F01900D928A95E1F78CE0EAE4F4E0F8
S1134380DE01A256BD4F01900D928A95E1F78CE0B3
S1134390E6E5F4E0DE01A655BD4F01900D928A9545
S11343A0E1F7809107018E3111F40C94112F8C33B5
S11343B011F40C94112F8A3511F00C94172F0C94CE
S11343C0112F80910801811171C30E94FB2F8C0170
S11343D00E94E501C80165E170E00E94842F8531E7
S11343E0910510F00C94112FFC01EA5BFF4F0C9423
S11343F0972FE980FA800B811C812D813E814F81AA
S1134400588569857A858B850E9491150C94112FA6
S1134410EC84FD840E851F85288939894A895B8946
S11344206C897D898E890E9491150C94112FEF88D7
S1134430F88C098D1A8D2B8D3C8D4D8D5E8D6F8D75
S113444078A189A10E9491150C94112FEAA0FBA0D8
S11344500CA11DA12EA13FA148A559A56AA57BA524
S11344608CA50E9491150C94112FEDA4FEA40FA508
S113447018A929A93AA94BA95CA96DA97EA98FA954
S11344800E9491150C94112FE8ACF9AC0AAD1BAD48
S11344902CAD3DAD4EAD5FAD21966FAD219722960B
S11344A07FAD229723968FAD23970E9491150C948C
S11344B0112F2496EFAC24972596FFAC25972696CA
S11344C00FAD269727961FAD279728962FAD2897CF
S11344D029963FAD29972A964FAD2A972B965FAD23
S11344E02B972C966FAD2C972D967FAD2D972E96EE
S11344F08FAD2E970E9491150C94112F2F96EFAC2F
S11345002F976096FFAC609761960FAD61976296A6
S11345101FAD629763962FAD639764963FAD649722
S113452065964FAD659766965FAD669767966FAD76
S1134530679768967FAD689769968FAD69970E9473
S113454091150C94112F6A96EFAC6A976B96FFAC99
S11345506B976C960FAD6C976D961FAD6D976E96BD
S11345602FAD6E976F963FAD6F97A0964FADA09706
S1134570A1965FADA197A2966FADA297A3967FADCA
S1134580A397A4968FADA4970E9491150C94112F14
S1134590A596EFACA597A696FFACA697A7960FADE8
S11345A0A797A8961FADA897A9962FADA997AA96E5
S11345B03FADAA97AB964FADAB97AC965FADAC97BA
S11345C0AD966FADAD97AE967FADAE97AF968FAD0E
S11345D0AF970E9491150C94112FE096EFACE097E1
S11345E0E196FFACE197E2960FADE297E3961FAD3B
S11345F0E397E4962FADE497E5963FADE597E6960D
S11346004FADE697E7965FADE797E8966FADE8970D
S1134610E9967FADE997EA968FADEA970E949115E6
S11346200C94112FEB96EFACEB97EC96FFACEC9758
S1134630ED960FADED97EE961FADEE97EF962FAD7D
S1134640EF97C158DF4F3881CF57D040C058DF4F64
S11346504881C058D040CF57DF4F5881C158D0400F
S1134660CE57DF4F6881C258D040CD57DF4F788195
S1134670C358D040CC57DF4F8881C458D0400E94E3
S113468091150C94112FCB57DF4FE880C558D040BB
S1134690CA57DF4FF880C658D040C957DF4F08814A
S11346A0C758D040C857DF4F1881C858D040C757A3
S11346B0DF4F2881C958D040C657DF4F3881CA58C8
S11346C0D040C557DF4F4881CB58D040C457DF4F47
S11346D05881CC58D040C357DF4F6881CD58D04063
S11346E0C257DF4F7881CE58D040C157DF4F888101
S11346F0CF58D0400E9491150C94112FC057DF4F12
S1134700E880C059D040CF56DF4FF880C159D0401F
S1134710CE56DF4F0881C259D040CD56DF4F1881A5
S1134720C359D040CC56DF4F2881C459D040CB5612
S1134730DF4F3881C559D040CA56DF4F4881C6592A
S1134740D040C956DF4F5881C759D040C856DF4FB3
S11347506881C859D040C756DF4F7881C959D040C5
S1134760C656DF4F8881CA59D0400E9491150C94D7
S1134770112FC556DF4FE880CB59D040C456DF4FC8
S1134780F880CC59D040C356DF4F0881CD59D04072
S1134790C256DF4F1881CE59D040C156DF4F288111
S11347A0CF59D040C056DF4F3881C05AD040CF5582
S11347B0DF4F4881C15AD040CE55DF4F5881C25A8D
S11347C0D040CD55DF4F6881C35AD040CC55DF4F20
S11347D07881C45AD040CB55DF4F8881C55AD04028
S11347E00E9491150C94112FCA55DF4FE880C65AC8
S11347F0D040C955DF4FF880C75AD040C855DF4F65
S11348000881C85AD040C755DF4F1881C95AD040D3
S1134810C655DF4F2881CA5AD040C555DF4F38816D
S1134820CB5AD040C455DF4F4881CC5AD040C355F1
S1134830DF4F5881CD5AD040C255DF4F6881CE5AE0
S1134840D040C155DF4F7881CF5AD040C055DF4F9B
S11348508881C05BD0400E9491150C94112FCF54D5
S1134860DF4FE880C15BD040CE54DF4FF880C25B9D
S1134870D040CD54DF4F0881C35BD040CC54DF4FD0
S11348801881C45BD040CB54DF4F2881C55BD04036
S1134890CA54DF4F3881C65BD040C954DF4F4881CA
S11348A0C75BD040C854DF4F5881C85BD040C75461
S11348B0DF4F6881C95BD040C654DF4F7881CA5B43
S11348C0D040C554DF4F8881CB5BD0400E94911506
S11348D00C94112FC454DF4FE880CC5BD040C354F8
S11348E0DF4FF880CD5BD040C254DF4F0881CE5BF0
S11348F0D040C154DF4F1881CF5BD040C054DF4F4C
S11349002881C05CD040CF53DF4F3881C15CD04098
S1134910CE53DF4F4881C25CD040CD53DF4F588126
S1134920C35CD040CC53DF4F6881C45CD040CB53D0
S1134930DF4F7881C55CD040CA53DF4F8881C65CA5
S1134940D0400E9491150C94112FC953DF4FE88079
S1134950C75CD040C853DF4FF880C85CD040C75311
S1134960DF4F0881C95CD040C653DF4F1881CA5C51
S1134970D040C553DF4F2881CB5CD040C453DF4FB8
S11349803881CC5CD040C353DF4F4881CD5CD040EC
S1134990C253DF4F5881CE5CD040C153DF4F688192
S11349A0CF5CD040C053DF4F7881C05DD040CF5240
S11349B0DF4F8881C15DD0400E9491150C94112F66
S11349C0CE52DF4FE880C25DD040CD52DF4FF88039
S11349D0C35DD040CC52DF4F0881C45DD040CB5280
S11349E0DF4F1881C55DD040CA52DF4F2881C65DB4
S11349F0D040C952DF4F3881C75DD040C852DF4F25
S1134A004881C85DD040C752DF4F5881C95DD0404E
S1134A10C652DF4F6881CA5DD040C552DF4F7881EE
S1134A20CB5DD040C452DF4F8881CC5DD0400E9422
S1134A3091150C94112FC352DF4FE880CD5DD04007
S1134A40C252DF4FF880CE5DD040C152DF4F0881A3
S1134A50CF5DD040C052DF4F1881C05ED040CF51EF
S1134A60DF4F2881C15ED040CE51DF4F3881C25E16
S1134A70D040CD51DF4F4881C35ED040CC51DF4F91
S1134A805881C45ED040CB51DF4F6881C55ED040B1
S1134A90CA51DF4F7881C65ED040C951DF4F88814B
S1134AA0C75ED0400E9491150C94112F823009F0FA
S1134AB045C50E94FB2F8C010E94E501C80165E1F8
S1134AC070E00E94842F8531910510F00C94112F11
S1134AD0FC01E55AFF4F0C94972FC654DE4FE88033
S1134AE0CA5BD140C554DE4FF880CB5BD140C4547F
S1134AF0DE4F0881CC5BD140C354DE4F1881CD5BBF
S1134B00D140C254DE4F2881CE5BD140C154DE4F28
S1134B103881CF5BD140C054DE4F4881C05CD14066
S1134B20CF53DE4F5881C15CD140CE53DE4F6881F4
S1134B30C25CD140CD53DE4F7881C35CD140CC53AD
S1134B40DE4F8881C45CD140CB53DE4F9881C55C75
S1134B50D1400E94141B0C94112FCA53DE4FE880DD
S1134B60C65CD140C953DE4FF880C75CD140C853FE
S1134B70DE4F0881C85CD140C753DE4F1881C95C41
S1134B80D140C653DE4F2881CA5CD140C553DE4FA5
S1134B903881CB5CD140C453DE4F4881CC5CD140DA
S1134BA0C353DE4F5881CD5CD140C253DE4F688180
S1134BB0CE5CD140C153DE4F7881CF5CD140C0532D
S1134BC0DE4F8881C05DD140CF52DE4F9881C15DF8
S1134BD0D1400E94141B0C94112FCE52DE4FE8805A
S1134BE0C25DD140CD52DE4FF880C35DD140CC527E
S1134BF0DE4F0881C45DD140CB52DE4F1881C55DC4
S1134C00D140CA52DE4F2881C65DD140C952DE4F21
S1134C103881C75DD140C852DE4F4881C85DD1405C
S1134C20C752DE4F5881C95DD140C652DE4F6881FC
S1134C30CA5DD140C552DE4F7881CB5DD140C452AC
S1134C40DE4F8881CC5DD140C352DE4F9881CD5D6B
S1134C50D1400E94141B0C94112FC252DE4FE880E5
S1134C60CE5DD140C152DE4FF880CF5DD140C052FD
S1134C70DE4F0881C05ED140CF51DE4F1881C15E46
S1134C80D140CE51DE4F2881C25ED140CD51DE4F9E
S1134C903881C35ED140CC51DE4F4881C45ED140DF
S1134CA0CB51DE4F5881C55ED140CA51DE4F688179
S1134CB0C65ED140C951DE4F7881C75ED140C8512C
S1134CC0DE4F8881C85ED140C751DE4F9881C95EEE
S1134CD0D1400E94141B0C94112FC651DE4FE88062
S1134CE0CA5ED140C551DE4FF880CB5ED140C4517D
S1134CF0DE4F0881CC5ED140C351DE4F1881CD5EBA
S1134D00D140C251DE4F2881CE5ED140C151DE4F29
S1134D103881CF5ED140C051DE4F4881C05FD14061
S1134D20CF50DE4F5881C15FD140CE50DE4F6881F5
S1134D30C25FD140CD50DE4F7881C35FD140CC50AB
S1134D40DE4F8881C45FD140CB50DE4F9881C55F70
S1134D50D1400E94141B0C94112FCA50DE4FE880DE
S1134D60C65FD140C950DE4FF880C75FD140C850FC
S1134D70DE4F0881C85FD140C750DE4F1881C95F3C
S1134D80D140C650DE4F2881CA5FD140C550DE4FA6
S1134D903881CB5FD140C450DE4F4881CC5FD140D5
S1134DA0C350DE4F5881CD5FD140C250DE4F688181
S1134DB0CE5FD140C150DE4F7881CF5FD140C0502B
S1134DC0DE4F8881C050D240CF5FDD4F9881C15003
S1134DD0D2400E94141B0C94112FCE5FDD4FE8804B
S1134DE0C250D240CD5FDD4FF880C350D240CC5F7B
S1134DF0DD4F0881C450D240CB5FDD4F1881C550D0
S1134E00D240CA5FDD4F2881C650D240C95FDD4F12
S1134E103881C750D240C85FDD4F4881C850D24066
S1134E20C75FDD4F5881C950D240C65FDD4F6881EE
S1134E30CA50D240C55FDD4F7881CB50D240C45FA9
S1134E40DD4F8881CC50D240C35FDD4F9881CD5077
S1134E50D2400E94141BE5C7C25FDD4FE880CE50EC
S1134E60D240C15FDD4FF880CF50D240C05FDD4FEC
S1134E700881C051D240CF5EDD4F1881C151D2406C
S1134E80CE5EDD4F2881C251D240CD5EDD4F3881E8
S1134E90C351D240CC5EDD4F4881C451D240CB5E79
S1134EA0DD4F5881C551D240CA5EDD4F6881C6517D
S1134EB0D240C95EDD4F7881C751D240C85EDD4F14
S1134EC08881C851D240C75EDD4F9881C951D24014
S1134ED00E94141BA6C7C65EDD4FE880CA51D240AB
S1134EE0C55EDD4FF880CB51D240C45EDD4F0881F2
S1134EF0CC51D240C35EDD4F1881CD51D240C25E49
S1134F00DD4F2881CE51D240C15EDD4F3881CF5173
S1134F10D240C05EDD4F4881C052D240CF5DDD4FEC
S1134F205881C152D240CE5DDD4F6881C252D24019
S1134F30CD5DDD4F7881C352D240CC5DDD4F888199
S1134F40C452D240CB5DDD4F9881C552D2400E94FD
S1134F50141B67C7CA5DDD4FE880C652D240C95DE5
S1134F60DD4FF880C752D240C85DDD4F0881C8527A
S1134F70D240C75DDD4F1881C952D240C65DDD4FB6
S1134F802881CA52D240C55DDD4F3881CB52D24010
S1134F90C45DDD4F4881CC52D240C35DDD4F5881A2
S1134FA0CD52D240C25DDD4F6881CE52D240C15D48
S1134FB0DD4F7881CF52D240C05DDD4F8881C05330
S1134FC0D240CF5CDD4F9881C153D2400E94141B64
S1134FD028C7CE5CDD4FE880C253D240CD5CDD4FA4
S1134FE0F880C353D240CC5CDD4F0881C453D24017
S1134FF0CB5CDD4F1881C553D240CA5CDD4F28819C
S1135000C653D240C95CDD4F3881C753D240C85C17
S1135010DD4F4881C853D240C75CDD4F5881C95326
S1135020D240C65CDD4F6881CA53D240C55CDD4FB7
S11350307881CB53D240C45CDD4F8881CC53D240BD
S1135040C35CDD4F9881CD53D2400E94141BE9C646
S1135050C25CDD4FE880CE53D240C15CDD4FF880A6
S1135060CF53D240C05CDD4F0881C054D240CF5BE7
S1135070DD4F1881C154D240CE5BDD4F2881C2542C
S1135080D240CD5BDD4F3881C354D240CC5BDD4F81
S11350904881C454D240CB5BDD4F5881C554D240C3
S11350A0CA5BDD4F6881C654D240C95BDD4F78814D
S11350B0C754D240C85BDD4F8881C854D240C75B17
S11350C0DD4F9881C954D2400E94141BAAC6C65B06
S11350D0DD4FE880CA54D240C55BDD4FF880CB5425
S11350E0D240C45BDD4F0881CC54D240C35BDD4F5A
S11350F01881CD54D240C25BDD4F2881CE54D240BA
S1135100C15BDD4F3881CF54D240C05BDD4F488155
S1135110C055D240CF5ADD4F5881C155D240CE5AE6
S1135120DD4F6881C255D240CD5ADD4F7881C355D9
S1135130D240CC5ADD4F8881C455D240CB5ADD4F82
S11351409881C555D2400E94141B6BC6CA5ADD4FC4
S1135150E880C655D240C95ADD4FF880C755D240C1
S1135160C85ADD4F0881C855D240C75ADD4F18814F
S1135170C955D240C65ADD4F2881CA55D240C55AB6
S1135180DD4F3881CB55D240C45ADD4F4881CC55D0
S1135190D240C35ADD4F5881CD55D240C25ADD4F5B
S11351A06881CE55D240C15ADD4F7881CF55D24067
S11351B0C05ADD4F8881C056D240CF59DD4F988107
S11351C0C156D2400E94141B2CC6CE59DD4FE88034
S11351D0C256D240CD59DD4FF880C356D240CC5987
S11351E0DD4F0881C456D240CB59DD4F1881C556D6
S11351F0D240CA59DD4F2881C656D240C959DD4F25
S11352003881C756D240C859DD4F4881C856D2406C
S1135210C759DD4F5881C956D240C659DD4F688100
S1135220CA56D240C559DD4F7881CB56D240C459B5
S1135230DD4F8881CC56D240C359DD4F9881CD567D
S1135240D2400E94141BEDC5C259DD4FE880CE56F2
S1135250D240C159DD4FF880CF56D240C059DD4FFE
S11352600881C057D240CF58DD4F1881C157D24072
S1135270CE58DD4F2881C257D240CD58DD4F3881FA
S1135280C357D240CC58DD4F4881C457D240CB5885
S1135290DD4F5881C557D240CA58DD4F6881C65783
S11352A0D240C958DD4F7881C757D240C858DD4F26
S11352B08881C857D240C758DD4F9881C957D2401A
S11352C00E94141BAEC5C658DD4FE880CA57D240B1
S11352D0C558DD4FF880CB57D240C458DD4F088104
S11352E0CC57D240C358DD4F1881CD57D240C25855
S11352F0DD4F2881CE57D240C158DD4F3881CF577A
S1135300D240C058DD4F4881C058D240CF57DD4FFE
S11353105881C158D240CE57DD4F6881C258D2401F
S1135320CD57DD4F7881C358D240CC57DD4F8881AB
S1135330C458D240CB57DD4F9881C558D2400E9403
S1135340141B6FC5CA57DD4FE880C658D240C957F1
S1135350DD4FF880C758D240C857DD4F0881C85880
S1135360D240C757DD4F1881C958D240C657DD4FC8
S11353702881CA58D240C557DD4F3881CB58D24016
S1135380C457DD4F4881CC58D240C357DD4F5881B4
S1135390CD58D240C257DD4F6881CE58D240C15754
S11353A0DD4F7881CF58D240C057DD4F8881C05936
S11353B0D240CF56DD4F9881C159D2400E94141B70
S11353C030C5CE56DD4FE880C259D240CD56DD4FB0
S11353D0F880C359D240CC56DD4F0881C459D2401D
S11353E0CB56DD4F1881C559D240CA56DD4F2881AE
S11353F0C659D240C956DD4F3881C759D240C85624
S1135400DD4F4881C859D240C756DD4F5881C9592C
S1135410D240C656DD4F6881CA59D240C556DD4FC9
S11354207881CB59D240C456DD4F8881CC59D240C3
S1135430C356DD4F9881CD59D2400E94141BF1C44C
S1135440C256DD4FE880CE59D240C156DD4FF880B8
S1135450CF59D240C056DD4F0881C05AD240CF55F3
S1135460DD4F1881C15AD240CE55DD4F2881C25A32
S1135470D240CD55DD4F3881C35AD240CC55DD4F93
S11354804881C45AD240CB55DD4F5881C55AD240C9
S1135490CA55DD4F6881C65AD240C955DD4F78815F
S11354A0C75AD240C855DD4F8881C85AD240C75523
S11354B0DD4F9881C95AD2400E94141BB2C4C6550C
S11354C0DD4FE880CA5AD240C555DD4FF880CB5A2B
S11354D0D240C455DD4F0881CC5AD240C355DD4F6C
S11354E01881CD5AD240C255DD4F2881CE5AD240C0
S11354F0C155DD4F3881CF5AD240C055DD4F488168
S1135500C05BD240CF54DD4F5881C15BD240CE54F2
S1135510DD4F6881C25BD240CD54DD4F7881C35BDF
S1135520D240CC54DD4F8881C45BD240CB54DD4F94
S11355309881C55BD2400E94141B73C4813009F06A
S113554069C459D58C010E94E501C80165E170E088
S1135550DBD48531910508F064C4FC01E059FF4FA8
S1135560E6C4C851DF4F0881C85ED040C751DF4F41
S11355701881C95ED040C651DF4F2881CA5ED04031
S1135580C551DF4F3881CB5ED040C451DF4F4881D5
S1135590CC5ED040C351DF4F5881CD5ED040C25164
S11355A0DF4F6881CE5ED040C151DF4F7881CF5E3E
S11355B0D040C051DF4F8881C05FD040CF50DF4F13
S11355C09881C15FD0400E9433172BC4CE50DF4F67
S11355D00881C25FD040CD50DF4F1881C35FD040F7
S11355E0CC50DF4F2881C45FD040CB50DF4F38818F
S11355F0C55FD040CA50DF4F4881C65FD040C95014
S1135600DF4F5881C75FD040C850DF4F6881C85F03
S1135610D040C750DF4F7881C95FD040C650DF4FBC
S11356208881CA5FD040C550DF4F9881CB5FD0409E
S11356300E943317F6C3C450DF4F0881CC5FD040BB
S1135640C350DF4F1881CD5FD040C250DF4F288157
S1135650CE5FD040C150DF4F3881CF5FD040C050C3
S1135660DF4F4881C050D140CF5FDE4F5881C150D9
S1135670D140CE5FDE4F6881C250D140CD5FDE4F56
S11356807881C350D140CC5FDE4F8881C450D14073
S1135690CB5FDE4F9881C550D1400E943317C1C300
S11356A0CA5FDE4F0881C650D140C95FDE4F188102
S11356B0C750D140C85FDE4F2881C850D140C75F72
S11356C0DE4F3881C950D140C65FDE4F4881CA5091
S11356D0D140C55FDE4F5881CB50D140C45FDE4F0F
S11356E06881CC50D140C35FDE4F7881CD50D1402A
S11356F0C25FDE4F8881CE50D140C15FDE4F9881BA
S1135700CF50D1400E9433178CC3C05FDE4F088155
S1135710C051D140CF5EDE4F1881C151D140CE5E21
S1135720DE4F2881C251D140CD5EDE4F3881C35156
S1135730D140CC5EDE4F4881C451D140CB5EDE4FB8
S11357405881C551D140CA5EDE4F6881C651D140EF
S1135750C95EDE4F7881C751D140C85EDE4F888173
S1135760C851D140C75EDE4F9881C951D1400E94D3
S1135770331757C3C65EDE4F0881CA51D140C55E98
S1135780DE4F1881CB51D140C45EDE4F2881CC510D
S1135790D140C35EDE4F3881CD51D140C25EDE4F71
S11357A04881CE51D140C15EDE4F5881CF51D140A6
S11357B0C05EDE4F6881C052D140CF5DDE4F78813C
S11357C0C152D140CE5DDE4F8881C252D140CD5D01
S11357D0DE4F9881C352D1400E94331722C3CC5D5F
S11357E0DE4F0881C452D140CB5DDE4F1881C552D3
S11357F0D140CA5DDE4F2881C652D140C95DDE4F1B
S11358003881C752D140C85DDE4F4881C852D1406B
S1135810C75DDE4F5881C952D140C65DDE4F6881F5
S1135820CA52D140C55DDE4F7881CB52D140C45DB0
S1135830DE4F8881CC52D140C35DDE4F9881CD527A
S1135840D1400E943317EDC2C25DDE4F0881CE52B3
S1135850D140C15DDE4F1881CF52D140C05DDE4FD3
S11358602881C053D140CF5CDE4F3881C153D14031
S1135870CE5CDE4F4881C253D140CD5CDE4F5881AF
S1135880C353D140CC5CDE4F6881C453D140CB5C60
S1135890DE4F7881C553D140CA5CDE4F8881C65340
S11358A0D140C95CDE4F9881C753D1400E94331761
S11358B0B8C2C85CDE4F0881C853D140C75CDE4F14
S11358C01881C953D140C65CDE4F2881CA53D140E8
S11358D0C55CDE4F3881CB53D140C45CDE4F488178
S11358E0CC53D140C35CDE4F5881CD53D140C25C10
S11358F0DE4F6881CE53D140C15CDE4F7881CF53F7
S1135900D140C05CDE4F8881C054D140CF5BDE4FB4
S11359109881C154D1400E94331783C2CE5BDE4FBD
S11359200881C254D140CD5BDE4F1881C354D140AD
S1135930CC5BDE4F2881C454D140CB5BDE4F388131
S1135940C554D140CA5BDE4F4881C654D140C95BBF
S1135950DE4F5881C754D140C85BDE4F6881C854BC
S1135960D140C75BDE4F7881C954D140C65BDE4F5E
S11359708881CA54D140C55BDE4F9881CB54D14055
S11359800E9433174EC2C45BDE4F0881CC54D14011
S1135990C35BDE4F1881CD54D140C25BDE4F2881FA
S11359A0CE54D140C15BDE4F3881CF54D140C05B6F
S11359B0DE4F4881C055D140CF5ADE4F5881C15582
S11359C0D140CE5ADE4F6881C255D140CD5ADE4F08
S11359D07881C355D140CC5ADE4F8881C455D1401B
S11359E0CB5ADE4F9881C555D1400E94331719C256
S11359F0CA5ADE4F0881C655D140C95ADE4F1881B4
S1135A00C755D140C85ADE4F2881C855D140C75A1E
S1135A10DE4F3881C955D140C65ADE4F4881CA5538
S1135A20D140C55ADE4F5881CB55D140C45ADE4FC0
S1135A306881CC55D140C35ADE4F7881CD55D140D1
S1135A40C25ADE4F8881CE55D140C15ADE4F98816B
S1135A50CF55D1400E943317E4C1C05ADE4F0881AC
S1135A60C056D140CF59DE4F1881C156D140CE59CE
S1135A70DE4F2881C256D140CD59DE4F3881C356FE
S1135A80D140CC59DE4F4881C456D140CB59DE4F6A
S1135A905881C556D140CA59DE4F6881C656D14097
S1135AA0C959DE4F7881C756D140C859DE4F888125
S1135AB0C856D140C759DE4F9881C956D1400E947B
S1135AC03317AFC1C659DE4F0881CA56D140C559F4
S1135AD0DE4F1881CB56D140C459DE4F2881CC56B5
S1135AE0D140C359DE4F3881CD56D140C259DE4F23
S1135AF04881CE56D140C159DE4F5881CF56D1404E
S1135B00C059DE4F6881C057D140CF58DE4F7881ED
S1135B10C157D140CE58DE4F8881C257D140CD58AD
S1135B20DE4F9881C357D1400E9433177AC1CC58B5
S1135B30DE4F0881C457D140CB58DE4F1881C5577A
S1135B40D140CA58DE4F2881C657D140C958DE4FCC
S1135B503881C757D140C858DE4F4881C857D14013
S1135B60C758DE4F5881C957D140C658DE4F6881A7
S1135B70CA57D140C558DE4F7881CB57D140C4585D
S1135B80DE4F8881CC57D140C358DE4F9881CD5722
S1135B90D1400E94331745C1C258DE4F0881CE5709
S1135BA0D140C158DE4F1881CF57D140C058DE4F85
S1135BB02881C058D140CF57DE4F3881C158D140D9
S1135BC0CE57DE4F4881C258D140CD57DE4F588161
S1135BD0C358D140CC57DE4F6881C458D140CB570D
S1135BE0DE4F7881C558D140CA57DE4F8881C658E8
S1135BF0D140C957DE4F9881C758D1400E9433170E
S1135C0010C1C857DE4F0881C858D140C757DE4F6E
S1135C101881C958D140C657DE4F2881CA58D1408F
S1135C20C557DE4F3881CB58D140C457DE4F488129
S1135C30CC58D140C357DE4F5881CD58D140C257BC
S1135C40DE4F6881CE58D140C157DE4F7881CF589E
S1135C50D140C057DE4F8881C059D140CF56DE4F66
S1135C609881C159D1400E943317DBC0CE56DE4F14
S1135C700881C259D140CD56DE4F1881C359D14055
S1135C80CC56DE4F2881C459D140CB56DE4F3881E3
S1135C90C559D140CA56DE4F4881C659D140C9566C
S1135CA0DE4F5881C759D140C856DE4F6881C85964
S1135CB0D140C756DE4F7881C959D140C656DE4F10
S1135CC08881CA59D140C556DE4F9881CB59D140FD
S1135CD00E943317A6C0C456DE4F0881CC59D14068
S1135CE0C356DE4F1881CD59D140C256DE4F2881AC
