:1000000045C0000060C000005EC000005CC0000091
:100010005AC0000058C0000056C0000054C0000084
:1000200052C0000050C000004EC000004CC0000094
:100030004AC000007DC0000046C0000044C000006F
:1000400042C0000040C000003EC000003CC00000B4
:100050003AC0000038C0000036C0000034C00000C4
:1000600032C0000030C000002EC000002CC00000D4
:100070002AC0000028C0000026C0000024C00000E4
:1000800022C0000020C000001EC0000011241FBEBE
:10009000CFEFD0E4DEBFCDBF11E0A0E0B1E0E4E2FD
:1000A000F2E000E00BBF02C007900D92AC30B10748
:1000B000D9F721E0ACE0B1E001C01D92A131B20757
:1000C000E1F78BD0ADC09CCF181619065CF00895EF
:1000D000000021503109E1F74F5F5F4F841795070A
:1000E00019F4089540E050E027E033E0F1CF109894
:1000F0008BB9119A0000119882E090E0E5CF089545
:1001000084E690E0E1DF88E3F2DF86E0F0DF8FE075
:10011000EEDF81E0ECDF8AE090E0D6CF0895109A20
:100120008BB9119A0000119881E090E0CDCF08952D
:100130001F920F920FB60F9211248F939F93AF933C
:10014000BF9380910C0190910D01A0910E01B0918F
:100150000F010197A109B10980930C0190930D0142
:10016000A0930E01B0930F01892B8A2B8B2B99F44E
:1001700081E0809310018091000190910101A09194
:100180000201B091030180930C0190930D01A093A3
:100190000E01B0930F01BF91AF919F918F910F907E
:1001A0000FBE0F901F9018950F931F93CF93DF935F
:1001B0008B01880F880F880F805C99DFE801095F49
:1001C0001F4F8991ACDFC017D107D9F780E88FDFC7
:1001D000DF91CF911F910F910895CF93DF93CDB70A
:1001E000DEB727970FB6F894DEBF0FBECDBF8FEFF7
:1001F00081B912B88AB91BB887E0E4E0F1E0DE010A
:10020000119601900D928A95E1F77ADF80E06FDF19
:10021000BE016F5F7F4F80E0C7DF80E080DFFFCFF0
:04022000F894FFCF80
:0C022400010000000E0A1B1111111F0048
:00000001FF
