:1000000074C1000091C100008FC100008DC10000CB
:100010008BC1000089C1000087C1000085C10000BC
:1000200083C1000081C100007FC100007DC10000CC
:100030007BC10000EDC1000077C1000075C1000068
:1000400073C1000071C100006FC100006DC10000EC
:100050006BC1000069C1000067C1000065C10000FC
:1000600063C1000061C100005FC100005DC100000C
:100070005BC1000059C1000057C1000055C100001C
:1000800053C1000051C100004FC10000A221B121A5
:10009000C021CF21DE21ED21022227224C22712214
:1000A0009622BB22EC22272362239D23D8231324EC
:1000B0004E248924C424162556259625D625162691
:1000C00056269626D526142753279227D12710285F
:1000D0004F288E28CD280C294B298A29C929082A7E
:1000E0005A2A8F2AC42AF92A2E2B632B982BCD2B20
:1000F000022C372C6C2CA12CD62C0B2D402D752DC1
:10010000AA2DDF2D142E492E7E2E000000000000A7
:10011000005F00000007000700147F147F14242AEA
:100120007F2A1223130864623649552250000503C2
:100130000000001C2241000041221C0014083E085F
:100140001408083E08080050300000080808080895
:10015000006060000020100804023E5149453E0046
:10016000427F400042615149462141454B311814BC
:10017000127F1027454545393C4A494930017109EC
:1001800005033649494936064949291E00363600D5
:1001900000005636000008142241001414141414F0
:1001A00000412214080201510906324979413E7E7C
:1001B0001111117E7F494949363E414141227F411B
:1001C00041221C7F494949417F090909013E4149B2
:1001D000497A7F0808087F00417F41002040413F65
:1001E000017F081422417F404040407F020C027F83
:1001F0007F0408107F3E4141413E7F090909063EC8
:100200004151215E7F091929464649494931010179
:100210007F01013F4040403F1F2040201F3F4038AA
:10022000403F63140814630708700807615149458B
:1002300043007F41410002040810200041417F003B
:10024000040201020440404040400001020400203A
:10025000545454787F484444383844444420384403
:1002600044487F3854545418087E0901020C5252F5
:10027000523E7F0804047800447D40002040443D05
:10028000007F1028440000417F40007C041804785F
:100290007C0804047838444444387C141414080856
:1002A0001414187C7C080404084854545420043F57
:1002B0004440203C4040207C1C2040201C3C4030DE
:1002C000403C44281028440C5050503C4464544C4A
:1002D00044000836410000007F000000413608005D
:1002E0001008081008306018040211241FBECFEF58
:1002F000D0E4DEBFCDBF16E0A0E0B1E0E2E9F0E679
:1003000000E00BBF02C007900D92A832B107D9F7E9
:1003100028E0A8E2B6E001C01D92AA33B207E1F7D7
:100320000E94D52E0C9447306BCEFC010FB6F8948A
:10033000609136087091370880913808909139089B
:100340000FBE309721F06083718382839383089579
:100350002A98662311F02C9A15C02C9813C0AC0172
:10036000022E02C0559547950A94E2F740FF02C05D
:100370002D9A01C02D982E9A2E982150310978F788
:100380002A9A089527E030E090E0E9CF60E0E0CFDE
:100390000895181619065CF00895000021503109DF
:1003A000E1F74F5F5F4F8417950719F4089540E018
:1003B00050E027E033E0F1CF28988BB9299A00006C
:1003C000299882E090E0E5CF089581E0F5CF089587
:1003D000813118F48158F0CF08958155EDCF0895FB
:1003E00084E690E0D6DF88E3E7DF86E0E5DF8FE0B4
:1003F000E3DF81E0E1DF8AE090E0CBCF0895289A47
:100400008BB9299A0000299881E090E0C2CF089525
:100410001F920F920FB60F9211248F939F93AF9359
:10042000BF9380912A0890912B08A0912C08B0913D
:100430002D080197A109B10980932A0890932B08F0
:10044000A0932C08B0932D08892B8A2B8B2B99F421
:1004500081E080932E088091090190910A01A0917A
:100460000B01B0910C0180932A0890932B08A09364
:100470002C08B0932D08BF91AF919F918F910F9051
:100480000FBE0F901F901895CF93DF93229A239A57
:10049000249A259A269A2B9A2A9A83EC99E0019716
:1004A000F1F700C000002B988BE594E40197F1F779
:1004B00000C000002B9A2A9881E268DF83E166DFA2
:1004C00086E064DF82EC62DF80E260DF89E05EDF8D
:1004D00080E85CDF80E45ADFC8EFD1E061E080E0D3
:1004E00037DF2197D9F788E051DF8CE04FDFDF91CC
:1004F000CF91089580E84ADF80E448DF1092280811
:1005000010922908E0E3F6E088E298E01192E817FB
:10051000F907E1F70895262F26952695269590E070
:1005200034E5239F800D911D1124442379F0FC01B3
:10053000E05DF94F677081E090E002C0880F991F7D
:100540006A95E2F79081892B80830895FC01E05D34
:10055000F94F677081E090E002C0880F991F6A959B
:10056000E2F7809590818923808308955F926F924E
:100570007F928F929F92AF92BF92CF92DF92EF9233
:10058000FF920F931F93CF93DF93562E262F30E0C9
:100590004901880C991C880C991C820E931E181412
:1005A00019040CF05BC08901000F111F000F111F0F
:1005B000000F111F021B130B612CA82EB12CC501BB
:1005C00080975C01AA0CBB1CAA0CBB1CA80EB91E10
:1005D0000F2EF9E2CF2EF8E0DF2EF02D0F2EF8E2ED
:1005E000EF2EF8E0FF2EF02D2BC0FE01249130E01D
:1005F000872D652D0E94212F02C0359527958A955C
:10060000E2F720FF09C0F6016081670DF7018081E4
:1006100041E0860D80DF08C0F6016081670DF701BB
:10062000808140E0860D77DF7394872D90E08017FE
:100630009107DCF26394862D90E08815990574F497
:1006400010161106BCF7862D652D0E94212FE5019D
:10065000C80FD11DC65FDE4F712CC7CF809128080F
:1006600091E0980F852D880F880F850D890F8435AF
:1006700018F4809328080EC010922808E9E2F8E0E8
:10068000808191E0980F852D880F880F880F85193C
:10069000890F808380912908803320F010922808E8
:1006A00010922908DF91CF911F910F91FF90EF9049
:1006B000DF90CF90BF90AF909F908F907F906F9082
:1006C0005F9008951F93CF93DF93EC018881882377
:1006D00039F0162F2196612F49DF89918111FBCFC7
:1006E000DF91CF911F9108950F931F93CF93DF93C5
:1006F00080E84CDE80E44ADEC0E3D6E008E218E0A1
:1007000061E0899125DEC017D107D1F7DF91CF9144
:100710001F910F91089561E08FE728CF0895CF933F
:10072000DF93C82FD62FE6DECE3159F461E083E3A4
:100730001DDF61E080E31ADF61E082E694E0C2DF62
:1007400019C0CC3359F461E086E310DF61E080E347
:100750000DDF61E082E694E0B5DF0CC0CA3551F4EC
:1007600061E089E303DF61E080E300DF61E082E6CE
:1007700094E0A8DF109228088AE080932908D1111C
:1007800005C061E08BE694E09DDF0DC0D13029F417
:1007900061E086E794E096DF06C0D23021F461E0A4
:1007A00083E894E08FDF1092280884E18093290881
:1007B00061E08EE894E086DFCE3121F0CC3311F099
:1007C000CA3509F4A8DF109228088EE18093290821
:1007D00061E089E994E076DFD33008F49CDF84DFC0
:1007E000DF91CF910895EF92FF920F931F93CF93D4
:1007F000DF93D82FC62F7EDE61E084EA94E062DFCB
:10080000D11105C061E085E296E05CDF89C0D1309E
:1008100029F461E080EB94E055DF82C0D23029F406
:1008200061E083EB94E04EDF7BC0D33029F461E0DC
:1008300086EB94E047DF74C0D43029F461E089EBA3
:1008400094E040DF6DC0D53029F461E08CEB94E09A
:1008500039DF66C0D63029F461E08FEB94E032DFF7
:100860005FC0D73029F461E082EC94E02BDF58C000
:10087000D83029F461E085EC94E024DF51C0D93010
:1008800029F461E088EC94E01DDF4AC0DA3029F4F5
:1008900061E08CEA94E016DF43C0DB3029F461E0CC
:1008A0008FEA94E00FDF3CC0DC3029F461E082EB9A
:1008B00094E008DF35C0DD3029F461E085EB94E099
:1008C00001DF2EC0DE3029F461E088EB94E0FADE2F
:1008D00027C0DF3029F461E08BEB94E0F3DE20C029
:1008E000D03129F461E08EEB94E0ECDE19C0D13117
:1008F00029F461E081EC94E0E5DE12C0D23129F404
:1009000061E084EC94E0DEDE0BC0D33129F461E0D9
:1009100087EC94E0D7DE04C061E08AEC94E0D2DE9C
:100920000F2EF8E2EF2EF8E0FF2EF02DF7011082E7
:1009300009E218E08AE0F801808361E08DEC94E040
:10094000C1DEF701108284E1F801808361E083ED6C
:1009500094E0B8DEF70110828EE1F801808361E057
:1009600089ED94E0AFDEF701108288E2F801808320
:1009700061E08FED94E0A6DEC11105C061E085E283
:1009800096E0A0DE75C2C13029F461E080EB94E00E
:1009900099DE6EC2C23029F461E083EB94E092DE0E
:1009A00067C2C33029F461E086EB94E08BDE60C25D
:1009B000C43029F461E089EB94E084DE59C2C5308B
:1009C00029F461E08CEB94E07DDE52C2C63029F45C
:1009D00061E08FEB94E076DE4BC2C73029F461E032
:1009E00082EC94E06FDE44C2C83029F461E085EC0B
:1009F00094E068DE3DC2C93029F461E088EC94E0FF
:100A000061DE36C2CA3029F461E08CEA94E05ADE35
:100A10002FC2CB3029F461E08FEA94E053DE28C284
:100A2000CC3029F461E082EB94E04CDE21C2CD3081
:100A300029F461E085EB94E045DE1AC2CE3029F45A
:100A400061E088EB94E03EDE13C2CF3029F461E030
:100A50008BEB94E037DE0CC2C03129F461E08EEB01
:100A600094E030DE05C2C13129F461E081EC94E00C
:100A700029DEFEC1C23129F461E084EC94E022DE7B
:100A8000F7C1C33129F461E087EC94E01BDEF0C1CB
:100A9000C43129F461E08AEC94E014DEE9C1C53187
:100AA00029F461E087EE94E00DDEE2C1C63129F45D
:100AB00061E08AEE94E006DEDBC1C73129F461E033
:100AC0008DEE94E0FFDDD4C1C83129F461E080EF00
:100AD00094E0F8DDCDC1C93129F461E083EF94E001
:100AE000F1DDC6C1CA3129F461E086EF94E0EADDA8
:100AF000BFC1CB3129F461E089EF94E0E3DDB8C1F7
:100B0000CC3129F461E08CEF94E0DCDDB1C1CD3172
:100B100029F461E08FEF94E0D5DDAAC1CE3129F44C
:100B200061E082E095E0CEDDA3C1CF3129F461E040
:100B300085E095E0C7DD9CC1C03229F461E088E022
:100B400095E0C0DD95C1C13229F461E08BE095E00C
:100B5000B9DD8EC1C23229F461E08EE095E0B2DDEC
:100B600087C1C33229F461E081E195E0ABDD80C14A
:100B7000C43229F461E084E195E0A4DD79C1C53295
:100B800029F461E087E195E09DDD72C1C63229F468
:100B900061E08AE195E096DD6BC1C73229F461E03E
:100BA0008DE195E08FDD64C1C83229F461E080E217
:100BB00095E088DD5DC1C93229F461E083E295E00A
:100BC00081DD56C1CA3229F461E086E295E07ADD22
:100BD0004FC1CB3229F461E089E295E073DD48C171
:100BE000CC3229F461E08CE295E06CDD41C1CD327C
:100BF00029F461E08FE295E065DD3AC1CE3229F457
:100C000061E082E395E05EDD33C1CF3229F461E03B
:100C100085E395E057DD2CC1C03329F461E088E31A
:100C200095E050DD25C1C13329F461E08BE395E007
:100C300049DD1EC1C23329F461E08EE395E042DD57
:100C400017C1C33329F461E081E495E03BDD10C1B5
:100C5000C43329F461E084E495E034DD09C1C5338F
:100C600029F461E087E495E02DDD02C1C63329F463
:100C700061E08AE495E026DDFBC0C73329F461E03A
:100C80008DE495E01FDDF4C0C83329F461E080E510
:100C900095E018DDEDC0C93329F461E083E595E006
:100CA00011DDE6C0CA3329F461E086E595E00ADD8E
:100CB000DFC0CB3329F461E089E595E003DDD8C0DE
:100CC000CC3329F461E08CE595E0FCDCD1C0CD3378
:100CD00029F461E08FE595E0F5DCCAC0CE3329F454
:100CE00061E082E695E0EEDCC3C0CF3329F461E039
:100CF00085E695E0E7DCBCC0C03429F461E088E615
:100D000095E0E0DCB5C0C13429F461E08BE695E004
:100D1000D9DCAEC0C23429F461E08EE695E0D2DCC5
:100D2000A7C0C33429F461E081E795E0CBDCA0C023
:100D3000C43429F461E084E795E0C4DC99C0C5348B
:100D400029F461E087E795E0BDDC92C0C63429F460
:100D500061E08AE795E0B6DC8BC0C73429F461E036
:100D60008DE795E0AFDC84C0C83429F461E080E809
:100D700095E0A8DC7DC0C93429F461E083E895E002
:100D8000A1DC76C0CA3429F461E086E895E09ADCFB
:100D90006FC0CB3429F461E089E895E093DC68C04A
:100DA000CC3429F461E08CE895E08CDC61C0CD3472
:100DB00029F461E08FE895E085DC5AC0CE3429F44F
:100DC00061E082E995E07EDC53C0CF3429F461E034
:100DD00085E995E077DC4CC0C03529F461E088E90D
:100DE00095E070DC45C0C13529F461E08BE995E000
:100DF00069DC3EC0C23529F461E08EE995E062DC31
:100E000037C0C33529F461E081EA95E05BDC30C08E
:100E1000C43529F461E084EA95E054DC29C0C53585
:100E200029F461E087EA95E04DDC22C0C63529F45B
:100E300061E08AEA95E046DC1BC0C73529F461E031
:100E40008DEA95E03FDC14C0C83529F461E080EB01
:100E500095E038DC0DC0C93529F461E083EB95E0FD
:100E600031DC06C0CA3521F461E086EB95E02ADC6E
:100E70003BDCDF91CF911F910F91FF90EF90089590
:100E80000F931F93CF93DF938B01880F880F880FE9
:100E9000805C92DAE801085F1F4F8991B0DAC017D1
:100EA000D107D9F780E888DADF91CF911F910F91B0
:100EB0000895CF93DF93CDB7DEB7A8970FB6F89418
:100EC000DEBF0FBECDBF88E0EDE0F1E0DE011196A0
:100ED00001900D928A95E1F788E0E5E1F1E0DE010D
:100EE000199601900D928A95E1F788E0EDE1F1E025
:100EF000DE01519601900D928A95E1F788E0E5E2D6
:100F0000F1E0DE01599601900D928A95E1F788E0B3
:100F1000EDE2F1E0DE01919601900D928A95E1F704
:100F2000BE016F5F7F4F80E0ABDFBE01675F7F4F29
:100F300081E0A6DFBE016F5E7F4F82E0A1DFBE01D0
:100F4000675E7F4F83E09CDFBE016F5D7F4F84E073
:100F500097DF81E03DDA80E052DA82E039DA81E041
:100F60004EDA83E035DA80E24ADA84E031DA82E090
:100F700046DA85E02DDA83E042DA86E029DA84E099
:100F80003EDA87E025DA80E23ADA88E021DA80E2A8
:100F900036DA89E01DDA80E232DA8AE019DA80E2B4
:100FA0002EDA8BE015DA86E32ADA8CE011DA80E3B8
:100FB00026DA8DE00DDA80E222DA8EE009DA83E5C6
:100FC0001EDA8FE005DA85E41ADA80E101DA83E4DB
:100FD00016DA81E1FDD989E312DA82E1F9D980E3F9
:100FE0000EDA83E1F5D980E20ADA84E1F1D983E50A
:100FF00006DA85E1EDD985E402DA86E1E9D983E410
:10100000FED987E1E5D980E2FAD988E1E1D980E229
:10101000F6D989E1DDD980E2F2D98AE1D9D980E235
:10102000EED98BE1D5D980E2EAD98CE1D1D980E241
:10103000E6D98DE1CDD980E2E2D98EE1C9D980E24D
:10104000DED98FE1C5D980E2DAD980E2C1D980E268
:10105000D6D9A8960FB6F894DEBF0FBECDBFDF91EC
:10106000CF910895CF93DF93CDB7DEB7A8970FB692
:10107000F894DEBF0FBECDBF88E0E5E3F1E0DE010E
:10108000119601900D928A95E1F788E0E5E1F1E093
:10109000DE01199601900D928A95E1F788E0EDE165
:1010A000F1E0DE01519601900D928A95E1F788E01A
:1010B000E5E2F1E0DE01599601900D928A95E1F7A3
:1010C00088E0EDE2F1E0DE01919601900D928A95C3
:1010D000E1F7BE016F5F7F4F80E0D2DEBE01675F48
:1010E0007F4F81E0CDDEBE016F5E7F4F82E0C8DEC4
:1010F000BE01675E7F4F83E0C3DEBE016F5D7F4F41
:1011000084E0BEDE81E064D983E379D982E060D9EE
:1011100080E375D983E05CD980E271D984E058D945
:1011200083E56DD985E054D985E469D986E050D945
:1011300083E465D987E04CD980E261D988E048D959
:1011400080E25DD989E044D980E259D98AE040D96A
:1011500080E255D98BE03CD980E051D98CE038D978
:1011600081E04DD98DE034D980E249D98EE030D983
:1011700082E045D98FE02CD983E041D980E128D99C
:1011800084E03DD981E124D989E339D982E120D9AC
:1011900080E335D983E11CD980E231D984E118D9C3
:1011A00083E52DD985E114D985E429D986E110D9C3
:1011B00083E425D987E10CD980E221D988E108D9D7
:1011C00080E21DD989E104D980E219D98AE100D9E8
:1011D00080E215D98BE1FCD880E211D98CE1F8D8F6
:1011E00080E20DD98DE1F4D880E209D98EE1F0D802
:1011F00080E205D98FE1ECD880E201D980E2E8D81D
:1012000080E2FDD8A8960FB6F894DEBF0FBECDBF22
:10121000DF91CF910895CF93DF93CDB7DEB7A89735
:101220000FB6F894DEBF0FBECDBF88E0EDE3F1E06E
:10123000DE01119601900D928A95E1F788E0E5E1D3
:10124000F1E0DE01199601900D928A95E1F788E0B0
:10125000EDE1F1E0DE01519601900D928A95E1F702
:1012600088E0E5E2F1E0DE01599601900D928A9561
:10127000E1F788E0EDE2F1E0DE01919601900D9258
:101280008A95E1F7BE016F5F7F4F80E0F9DDBE0117
:10129000675F7F4F81E0F4DDBE016F5E7F4F82E0CC
:1012A000EFDDBE01675E7F4F83E0EADDBE016F5D6B
:1012B0007F4F84E0E5DD81E08BD883E3A0D882E036
:1012C00087D880E39CD883E083D880E298D884E0F4
:1012D0007FD883E594D885E07BD885E490D886E0F4
:1012E00077D883E48CD887E073D880E288D888E008
:1012F0006FD880E284D889E06BD880E280D88AE019
:1013000067D880E27CD88BE063D886E378D88CE01D
:101310005FD880E374D88DE05BD880E270D88EE02F
:1013200057D883E56CD88FE053D885E468D880E13E
:101330004FD883E464D881E14BD880E060D882E163
:1013400047D881E05CD883E143D880E258D884E173
:101350003FD882E054D885E13BD883E050D886E17D
:1013600037D884E04CD887E133D880E248D888E188
:101370002FD880E244D889E12BD880E240D88AE196
:1013800027D880E23CD88BE123D880E238D88CE1A2
:101390001FD880E234D88DE11BD880E230D88EE1AE
:1013A00017D880E22CD88FE113D880E228D880E2C9
:1013B0000FD880E224D8A8960FB6F894DEBF0FBEEF
:1013C000CDBFDF91CF910895809134088130C9F06D
:1013D00030F08230E9F1833009F461C086C0809139
:1013E00007018E3121F481E08093340894C08C335E
:1013F00021F482E08093340890C083E08093340825
:101400008EC0019904C082E08093340886C002999E
:1014100004C083E08093340882C004997CC0049B9C
:10142000FECF8EE1809307016091080170E080E0BB
:1014300090E00E94C92F6091070170E081E090E088
:101440000E94C92F1092290681E0809304014DC0AB
:10145000039904C081E0809334085DC0029904C000
:1014600083E0809334085BC0049957C0049BFECF8F
:101470008CE3809307016091080170E080E090E0C8
:101480000E94C92F6091070170E081E090E00E9406
:10149000C92F1092290681E08093040126C000998B
:1014A00004C081E08093340836C0019904C082E012
:1014B0008093340832C0049932C0049BFECF8AE581
:1014C000809307016091080170E080E090E00E9445
:1014D000C92F6091070170E081E090E00E94C92F60
:1014E0001092290681E080930401809134088130B4
:1014F00091F028F0823089F0833091F410C080910F
:1015000007018E3111F4D5CC08958C3311F4AACD96
:10151000089581CE0895CDCC0895A4CD08957BCEB5
:101520000895CF93DF93CDB7DEB7A0970FB6F894A9
:10153000DEBF0FBECDBF88E0E5E2F1E0DE0111962F
:1015400001900D928A95E1F788E0E5E4F1E0DE0193
:10155000199601900D928A95E1F788E0EDE1F1E0AE
:10156000DE01519601900D928A95E1F788E0EDE455
:10157000F1E0DE01599601900D928A95E1F7BE01E6
:101580006F5F7F4F80E07CDCBE01675F7F4F81E053
:1015900077DCBE016F5E7F4F82E072DCBE01675E6A
:1015A0007F4F83E06DDC81E00E94E80180E00E94D3
:1015B000FF0182E00E94E80181E00E94FF0183E0D8
:1015C0000E94E80182E00E94FF0184E00E94E8019D
:1015D00083E00E94FF0185E00E94E80180E20E9412
:1015E000FF0186E00E94E80180E20E94FF0187E09F
:1015F0000E94E80180E20E94FF0188E00E94E80169
:1016000080E20E94FF0189E00E94E80180E20E94DE
:10161000FF018AE00E94E80180E20E94FF018BE066
:101620000E94E8018DE40E94FF018CE00E94E80125
:1016300085E40E94FF018DE00E94E80184E40E949D
:10164000FF018EE00E94E80189E40E94FF018FE023
:101650000E94E80185E50E94FF0180E10E94E80107
:101660008DE40E94FF0181E10E94E80188E40E946C
:10167000FF0182E10E94E80181E40E94FF0183E111
:101680000E94E80182E50E94FF0184E10E94E801D6
:1016900084E40E94FF0185E10E94E80180E20E944B
:1016A000FF0186E10E94E80180E20E94FF0187E1DC
:1016B0000E94E80180E20E94FF0188E10E94E801A7
:1016C00080E20E94FF0189E10E94E80180E20E941D
:1016D000FF018AE10E94E80180E20E94FF018BE1A4
:1016E0000E94E80180E20E94FF018CE10E94E80173
:1016F00080E20E94FF018DE10E94E80180E20E94E9
:10170000FF018EE10E94E80180E20E94FF018FE16B
:101710000E94E80180E20E94FF0180E20E94E8014D
:1017200080E20E94FF01A0960FB6F894DEBF0FBEC4
:10173000CDBFDF91CF910895CF93DF93CDB7DEB7C3
:10174000A8970FB6F894DEBF0FBECDBF88E0E5E2E4
:10175000F1E0DE01119601900D928A95E1F788E0A3
:10176000E5E5F1E0DE01199601900D928A95E1F729
:1017700088E0EDE5F1E0DE01519601900D928A9549
:10178000E1F788E0E5E6F1E0DE01599601900D927F
:101790008A95E1F788E0EDE6F1E0DE0191960190AF
:1017A0000D928A95E1F7BE01675F7F4F80E068DBAD
:1017B000BE016F5F7F4F81E063DBBE016F5E7F4FD5
:1017C00082E05EDBBE01675E7F4F83E059DBBE01D6
:1017D0006F5D7F4F84E054DB81E00E94E80185E487
:1017E0000E94FF0182E00E94E80181E40E94FF0163
:1017F00083E00E94E80183E50E94FF0184E00E94EB
:10180000E80189E50E94FF0185E00E94E80180E28D
:101810000E94FF0186E00E94E80180E20E94FF0131
:1018200087E00E94E80180E20E94FF0188E00E94B8
:10183000E80180E20E94FF0189E00E94E80180E265
:101840000E94FF018AE00E94E80180E20E94FF01FD
:101850008BE00E94E80180E00E94FF018CE00E9482
:10186000E80181E00E94FF018DE00E94E80182E032
:101870000E94FF018EE00E94E80183E00E94FF01C8
:101880008FE00E94E80184E00E94FF0180E10E9455
:10189000E80180E00E94FF0181E10E94E80188E404
:1018A0000E94FF0182E10E94E80181E40E94FF01A1
:1018B00083E10E94E80182E50E94FF0184E10E9429
:1018C000E80184E40E94FF0185E10E94E80180E2D2
:1018D0000E94FF0186E10E94E80180E20E94FF0170
:1018E00087E10E94E80180E20E94FF0188E10E94F6
:1018F000E80180E20E94FF0189E10E94E80180E2A4
:101900000E94FF018AE10E94E80180E20E94FF013B
:101910008BE10E94E80180E20E94FF018CE10E94BD
:10192000E80180E20E94FF018DE10E94E80180E26F
:101930000E94FF018EE10E94E80180E20E94FF0107
:101940008FE10E94E80180E20E94FF0180E20E9494
:10195000E80180E20E94FF01A8960FB6F894DEBF6E
:101960000FBECDBFDF91CF910895CF93DF93CDB759
:10197000DEB7A0970FB6F894DEBF0FBECDBF88E0EC
:10198000E5E7F1E0DE01119601900D928A95E1F70D
:1019900088E0E5E4F1E0DE01199601900D928A9568
:1019A000E1F788E0EDE5F1E0DE01519601900D925E
:1019B0008A95E1F788E0EDE7F1E0DE0159960190C4
:1019C0000D928A95E1F7BE016F5F7F4F80E058DA94
:1019D000BE01675F7F4F81E053DABE01675E7F4FD4
:1019E00082E04EDABE016F5E7F4F83E049DA81E02C
:1019F0000E94E80185E40E94FF0182E00E94E80164
:101A000081E40E94FF0183E00E94E80183E50E94D7
:101A1000FF0184E00E94E80189E50E94FF0185E062
:101A20000E94E80180E20E94FF0186E00E94E80136
:101A300080E20E94FF0187E00E94E80180E20E94AC
:101A4000FF0188E00E94E80180E20E94FF0189E036
:101A50000E94E80180E20E94FF018AE00E94E80102
:101A600080E20E94FF018BE00E94E8018DE40E9469
:101A7000FF018CE00E94E80185E40E94FF018DE0F7
:101A80000E94E80184E40E94FF018EE00E94E801C8
:101A900089E40E94FF018FE00E94E80185E50E9431
:101AA000FF0180E10E94E8018DE40E94FF0181E1D5
:101AB0000E94E80180E00E94FF0182E10E94E801AB
:101AC00081E00E94FF0183E10E94E80182E00E9420
:101AD000FF0184E10E94E80183E00E94FF0185E1AB
:101AE0000E94E80180E20E94FF0186E10E94E80175
:101AF00080E20E94FF0187E10E94E80180E20E94EB
:101B0000FF0188E10E94E80180E20E94FF0189E173
:101B10000E94E80180E20E94FF018AE10E94E80140
:101B200080E20E94FF018BE10E94E80180E20E94B6
:101B3000FF018CE10E94E80180E20E94FF018DE13B
:101B40000E94E80180E20E94FF018EE10E94E8010C
:101B500080E20E94FF018FE10E94E80180E20E9482
:101B6000FF0180E20E94E80180E20E94FF01A0964E
:101B70000FB6F894DEBF0FBECDBFDF91CF910895B1
:101B8000CF93809135088130C9F030F08230D9F19F
:101B9000833009F45DC081C080910801811104C0C7
:101BA00081E0809335088FC0813021F482E08093FA
:101BB00035088BC083E08093350889C0019904C043
:101BC00082E08093350881C0029904C083E080934D
:101BD00035087DC0049977C0049BFECF10920801A0
:101BE00060E070E080E090E00E94C92F6091070102
:101BF00070E081E090E00E94C92F10922A0681E0F7
:101C0000809304014AC0039904C081E080933508A1
:101C10005AC0029904C083E08093350858C00499E3
:101C200054C0049BFECFC1E0C093080161E070E0A6
:101C300080E090E00E94C92F6091070170E081E090
:101C400090E00E94C92F10922A06C093040125C07B
:101C5000009904C081E08093350835C0019904C023
:101C600082E08093350831C0049931C0049BFECFD7
:101C700082E08093080162E070E080E090E00E94E2
:101C8000C92F6091070170E081E090E00E94C92FA8
:101C900010922A0681E080930401809135088130FA
:101CA00091F028F0823089F0833091F410C0809157
:101CB0000801811102C035DC0BC0813011F43CDD1C
:101CC00007C053DE05C02DDC03C036DD01C04DDE8C
:101CD000CF910895CF93DF93CDB7DEB7C054D1092C
:101CE0000FB6F894DEBF0FBECDBF88E0EDE5F1E0A2
:101CF000DE01119601900D928A95E1F788E0E5E604
:101D0000F1E0DE01199601900D928A95E1F788E0E5
:101D1000E5E8F1E0DE01519601900D928A95E1F738
:101D200088E0EDE2F1E0DE01599601900D928A958E
:101D3000E1F788E0EDE6F1E0DE01919601900D9289
:101D40008A95E1F788E0EDE8F1E0DE0199960190EF
:101D50000D928A95E1F788E0E5E9F1E0DE01D196A0
:101D600001900D928A95E1F788E0EDE4F1E0DE0163
:101D7000D99601900D928A95E1F7BE016F5F7F4F72
:101D800080E07ED8BE01675F7F4F81E079D8BE01D9
:101D90006F5E7F4F82E074D8BE01675E7F4F83E045
:101DA0006FD8BE016F5D7F4F84E06AD8BE01675D6A
:101DB0007F4F85E065D8BE016F5C7F4F86E060D8BD
:101DC000BE01675C7F4F87E05BD881E00E94E8013D
:101DD00080E50E94FF0182E00E94E8018CE40E94FD
:101DE000FF0183E00E94E80181E40E94FF0184E09A
:101DF0000E94E80189E50E94FF0185E00E94E80158
:101E000080E20E94FF0186E00E94E80180E20E94D9
:101E1000FF0187E00E94E80180E00E94FF0188E066
:101E20000E94E80181E00E94FF0189E00E94E80130
:101E300082E00E94FF018AE00E94E80182E00E94A5
:101E4000FF018BE00E94E80181E00E94FF018CE02D
:101E50000E94E80183E00E94FF018DE00E94E801FA
:101E600084E00E94FF018EE00E94E80185E00E946C
:101E7000FF018FE00E94E80186E00E94FF0180E1FF
:101E80000E94E80187E00E94FF0181E10E94E801D1
:101E900084E50E94FF0182E10E94E80189E40E943A
:101EA000FF0183E10E94E8018DE40E94FF0184E1CB
:101EB0000E94E80185E40E94FF0185E10E94E8019B
:101EC00080E20E94FF0186E10E94E80180E20E9418
:101ED000FF0187E10E94E80180E20E94FF0188E1A2
:101EE0000E94E80180E20E94FF0189E10E94E8016E
:101EF00080E20E94FF018AE10E94E80182E30E94E1
:101F0000FF018BE10E94E80180E50E94FF018CE166
:101F10000E94E8018CE40E94FF018DE10E94E8012B
:101F200081E40E94FF018EE10E94E80189E50E94A0
:101F3000FF018FE10E94E80185E40E94FF0180E239
:101F40000E94E80182E50E94FF01C05CDF4F0FB6EE
:101F5000F894DEBF0FBECDBFDF91CF910895CF9330
:101F6000DF93CDB7DEB7A0970FB6F894DEBF0FBEF4
:101F7000CDBF88E0EDE9F1E0DE01119601900D9210
:101F80008A95E1F788E0EDE8F1E0DE01199601902D
:101F90000D928A95E1F788E0E5E4F1E0DE015196E3
:101FA00001900D928A95E1F788E0EDE4F1E0DE0121
:101FB000599601900D928A95E1F7BE016F5F7F4FB0
:101FC00080E00E944007BE01675F7F4F81E00E9472
:101FD0004007BE016F5E7F4F82E00E944007BE0156
:101FE000675E7F4F83E00E94400781E00E94E80126
:101FF00080E00E94FF0182E00E94E80181E00E94EF
:10200000FF0183E00E94E80182E00E94FF0184E07A
:102010000E94E80183E00E94FF0185E00E94E80140
:1020200080E20E94FF0186E00E94E80180E20E94B7
:10203000FF0187E00E94E80184E40E94FF0188E03C
:102040000E94E80189E40E94FF0189E00E94E80102
:1020500086E40E94FF018AE00E94E80186E40E9473
:10206000FF018BE00E94E80189E40E94FF018CE0FF
:102070000E94E80183E40E94FF018DE00E94E801D4
:1020800085E50E94FF018EE00E94E8018CE40E9439
:10209000FF018FE00E94E80184E50E94FF0180E1DA
:1020A0000E94E80189E50E94FF0181E10E94E801A8
:1020B00084E50E94FF0182E10E94E80189E40E9418
:1020C000FF0183E10E94E8018DE40E94FF0184E1A9
:1020D0000E94E80185E40E94FF0185E10E94E80179
:1020E00080E20E94FF0186E10E94E80180E20E94F6
:1020F000FF0187E10E94E80180E20E94FF0188E180
:102100000E94E80180E20E94FF0189E10E94E8014B
:1021100080E20E94FF018AE10E94E80182E30E94BE
:10212000FF018BE10E94E80180E50E94FF018CE144
:102130000E94E8018CE40E94FF018DE10E94E80109
:1021400081E40E94FF018EE10E94E80189E50E947E
:10215000FF018FE10E94E80185E40E94FF0180E217
:102160000E94E80182E50E94FF01A0960FB6F89454
:10217000DEBF0FBECDBFDF91CF910895CF93DF9328
:10218000CDB7DEB7E8970FB6F894DEBF0FBECDBF70
:1021900088E0E5EAF1E0DE01119601900D928A9562
:1021A000E1F788E0EDE9F1E0DE01199601900D928A
:1021B0008A95E1F788E0EDE8F1E0DE0151960190C3
:1021C0000D928A95E1F788E0E5E4F1E0DE015996A9
:1021D00001900D928A95E1F788E0EDE4F1E0DE01EF
:1021E000919601900D928A95E1F788E0E5E2F1E0A1
:1021F000DE01999601900D928A95E1F788E0EDE76E
:10220000F1E0DE01D19601900D928A95E1F7BE01D1
:102210006F5F7F4F80E00E944007BE01675F7F4F86
:1022200081E00E944007BE016F5E7F4F82E00E9406
:102230004007BE01675E7F4F83E00E944007BE01FA
:102240006F5D7F4F84E00E944007BE01675D7F4F56
:1022500085E00E944007BE016F5C7F4F86E00E94D0
:10226000400781E00E94E80180E50E94FF0182E0D2
:102270000E94E8018CE40E94FF0183E00E94E801D3
:1022800081E40E94FF0184E00E94E80189E50E9448
:10229000FF0185E00E94E80180E20E94FF0186E0E4
:1022A0000E94E80180E20E94FF0187E00E94E801AD
:1022B00084E40E94FF0188E00E94E80189E40E9412
:1022C000FF0189E00E94E80186E40E94FF018AE0A4
:1022D0000E94E80186E40E94FF018BE00E94E80171
:1022E00089E40E94FF018CE00E94E80183E40E94DF
:1022F000FF018DE00E94E80185E50E94FF018EE06C
:102300000E94E8018CE40E94FF018FE00E94E80136
:1023100084E50E94FF0180E10E94E80189E50E94B6
:10232000FF0181E10E94E80184E50E94FF0182E152
:102330000E94E80189E40E94FF0183E10E94E80114
:102340008DE40E94FF0184E10E94E80185E40E947F
:10235000FF0185E10E94E80180E20E94FF0186E121
:102360000E94E80180E20E94FF0187E10E94E801EB
:1023700080E20E94FF0188E10E94E80180E20E9461
:10238000FF0189E10E94E80180E20E94FF018AE1E9
:102390000E94E80180E00E94FF018BE10E94E801B9
:1023A00081E00E94FF018CE10E94E80182E00E942E
:1023B000FF018DE10E94E80183E00E94FF018EE1B0
:1023C0000E94E80184E00E94FF018FE10E94E80181
:1023D00085E00E94FF0180E20E94E80186E00E9401
:1023E000FF01E8960FB6F894DEBF0FBECDBFDF91B8
:1023F000CF910895CF93DF93CDB7DEB7A0970FB6F7
:10240000F894DEBF0FBECDBF88E0E5E2F1E0DE016B
:10241000119601900D928A95E1F788E0E5E5F1E0EB
:10242000DE01199601900D928A95E1F788E0E5E6C4
:10243000F1E0DE01519601900D928A95E1F788E076
:10244000E5E9F1E0DE01599601900D928A95E1F7F8
:10245000BE01675E7F4F80E00E944007BE016F5E55
:102460007F4F81E00E944007BE01675F7F4F82E09F
:102470000E944007BE016F5F7F4F83E00E944007CC
:1024800081E00E94E80180E50E94FF0182E00E9455
:10249000E8018CE40E94FF0183E00E94E80181E4EE
:1024A0000E94FF0184E00E94E80189E50E94FF018B
:1024B00085E00E94E80180E20E94FF0186E00E9420
:1024C000E80180E20E94FF0187E00E94E80184E4C5
:1024D0000E94FF0188E00E94E80189E40E94FF0158
:1024E00089E00E94E80186E40E94FF018AE00E94E0
:1024F000E80186E40E94FF018BE00E94E80189E484
:102500000E94FF018CE00E94E80183E40E94FF0129
:102510008DE00E94E80185E50E94FF018EE00E94A7
:10252000E8018CE40E94FF018FE00E94E80184E54D
:102530000E94FF0180E10E94E80189E50E94FF01FD
:1025400081E10E94E80180E00E94FF0182E10E9497
:10255000E80181E00E94FF0183E10E94E80182E03E
:102560000E94FF0184E10E94E80183E00E94FF01D4
:1025700085E10E94E80180E20E94FF0186E10E945D
:10258000E80180E20E94FF0187E10E94E80180E209
:102590000E94FF0188E10E94E80180E20E94FF01A1
:1025A00089E10E94E80180E20E94FF018AE10E9425
:1025B000E80182E30E94FF018BE10E94E80180E5CF
:1025C0000E94FF018CE10E94E8018CE40E94FF015F
:1025D0008DE10E94E80181E40E94FF018EE10E94EA
:1025E000E80189E50E94FF018FE10E94E80185E48E
:1025F0000E94FF0180E20E94E80182E50E94FF0143
:10260000A0960FB6F894DEBF0FBECDBFDF91CF917D
:10261000089510922F0680913308823031F128F40A
:10262000882349F0813059F058C08330A1F18430BB
:1026300009F447C052C081E08093330854C0019927
:1026400004C082E08093330850C0029904C083E044
:10265000809333084CC0049946C0049BFECF10926F
:10266000040181E0809328063EC0039904C081E004
:102670008093330838C0029904C084E08093330803
:1026800030C0049932C0049BFECF1092040181E057
:1026900080932A062AC0009904C081E08093330801
:1026A00022C0019904C084E0809333081AC00499C1
:1026B0001EC0049BFECF1092040181E08093290686
:1026C00016C0009904C082E0809333080EC00399BD
:1026D00008C083E0809333080AC081E08093330808
:1026E00002C04CCD08953BCC0895F4CA089582CE23
:1026F0000895179A169A0895169A169880B185FB30
:10270000882780F9089567EE70E080E090E00E94ED
:10271000C92F67EE70E081E090E00E94C92F87EE3C
:10272000809307018093080108950E947A0261E076
:1027300089EB95E00E9462030E94740380ED97E0AC
:102740000C94C90108950F931F93CF93DF930E94B8
:102750007A0261E08BED95E00E94620310922808F6
:102760008AE08093290861E086EE95E00E9462038A
:1027700080912F06811106C061E085E296E00E94FB
:102780006203A5C0813031F461E080EB94E00E94E7
:1027900062039DC0823031F461E083EB94E00E94DB
:1027A000620395C0833031F461E086EB94E00E94CF
:1027B00062038DC0843031F461E089EB94E00E94C3
:1027C000620385C0853031F461E08CEB94E00E94B7
:1027D00062037DC0863031F461E08FEB94E00E94AB
:1027E000620375C0873031F461E082EC94E00E94AE
:1027F00062036DC0883031F461E085EC94E00E94A2
:10280000620365C0893031F461E088EC94E00E9495
:1028100062035DC08A3031F461E08CEA94E00E948A
:10282000620355C08B3031F461E08FEA94E00E947E
:1028300062034DC08C3031F461E082EB94E00E9481
:10284000620345C08D3031F461E085EB94E00E9475
:1028500062033DC08E3031F461E088EB94E00E9469
:10286000620335C08F3031F461E08BEB94E00E945D
:1028700062032DC0803131F461E08EEB94E00E9460
:10288000620325C0813131F461E081EC94E00E9463
:1028900062031DC0823131F461E084EC94E00E9457
:1028A000620315C0833131F461E087EC94E00E944B
:1028B00062030DC0843131F461E08AEC94E00E943F
:1028C000620305C061E082EF95E00E94620308E2C6
:1028D00018E0F8011082C9E2D8E084E1888361E061
:1028E00086EF95E00E946203F80110828EE18883F2
:1028F00061E08CEF95E00E9462030E94740388E817
:1029000093E10E94C901DF91CF911F910F9108952A
:102910002F923F924F925F926F927F928F929F92EF
:10292000AF92BF92CF92DF92EF92FF920F931F93DD
:10293000CF93DF93CDB7DEB7CF56D1090FB6F8945A
:10294000DEBF0FBECDBFA696EFAEA697A796FFAE91
:10295000A797A8960FAFA897A9961FAFA997AA9671
:102960002FAFAA97AB963FAFAB97AC964FAFAC9754
:10297000AD965FAFAD97AE966FAFAE97AF967FAFA8
:10298000AF97E0968FAFE097BE016B597F4F8E01F6
:102990000F5F1F4FC8010E94BD2FF801019000205A
:1029A000E9F731976894EE24E5F8F12CF182E082A2
:1029B00065E670E06C0F7D1F6D5F7F4FC8010E9460
:1029C000B22FF80101900020E9F731978DE390E0F4
:1029D0009183808365E670E06C0F7D1F6A5F7F4F97
:1029E000C8010E94B22FD8010D900020E9F711977D
:1029F0008DE0E6E1F6E001900D928A95E1F7FCAA00
:102A0000EBAA0E94E50181E00E94E8017E0180E1DD
:102A1000E80EF11CF80181918F010E94FF01E01680
:102A2000F106C1F781E10E94E801312C01E010E0DC
:102A30006E01F3E3CF0ED11C0F2EFBE2AF2EF0E2BE
:102A4000BF2EF02D0F2EFDE28F2EF0E29F2EF02DE7
:102A50000F2EFFE26F2EF0E27F2EF02D0F2EFAE206
:102A60004F2EF0E25F2EF02D0F2EFBE2EF2EF6E060
:102A7000FF2EF02D22242394009920C0009BFECF2E
:102A8000E0968EAD9FADE097009761F09C012650D7
:102A900031092230310530F08B30910519F0439720
:102AA000029708F43394F60101900020E9F731977A
:102AB000B182A08212820F5F1F4F57C001991EC0C2
:102AC000019BFECFE0968EAD9FADE0979C01235019
:102AD00031092230310530F08C30910519F04197E1
:102AE000029708F43394F60101900020E9F731973A
:102AF0009182808212820F5F1F4F37C002991AC0E5
:102B0000029BFECFE0968EAD9FADE0979C01277FA4
:102B10002230310519F00D97049708F43394F6012B
:102B200001900020E9F731977182608212820F5F75
:102B30001F4F1BC0039919C0039BFECFE0968EADBB
:102B40009FADE0979C012B7F2130310519F008974C
:102B5000029708F43394F60101900020E9F73197C9
:102B60005182408212820F5F1F4F80912D069091FB
:102B70002E0620910501309106018217930770F00F
:102B800080912B0690912C06019690932C068093B1
:102B90002B0610922E0610922D0605C001969093DA
:102BA0002E0680932D0660910701F7018081681B36
:102BB00080912F060E94F3038091070190E02091FD
:102BC0002B0630912C06281739072CF0BCDD10920B
:102BD000280620920401023011050CF44DCF101686
:102BE000110674F47E01F3E3EF0EF11C0E0D1F1DB0
:102BF000F70181917F010E94FF01E016F106C1F704
:102C0000F1E03F1206C080912F068F5F80932F0660
:102C100005C080912F06815080932F06C159DF4F48
:102C20000FB6F894DEBF0FBECDBFDF91CF911F91DD
:102C30000F91FF90EF90DF90CF90BF90AF909F905B
:102C40008F907F906F905F904F903F902F9008955E
:102C50002F923F924F925F926F927F928F929F92AC
:102C6000AF92BF92CF92DF92EF92FF920F931F939A
:102C7000CF93DF93CDB7DEB7C25AD1090FB6F89420
:102C8000DEBF0FBECDBFC956DF4F0883C759D04046
:102C9000C856DF4F1883C859D040C756DF4F288326
:102CA000C959D040C656DF4F3883CA59D040C5569F
:102CB000DF4F4883CB59D040C456DF4F5883CC599F
:102CC000D040C356DF4F6883CD59D040C256DF4F46
:102CD0007883CE59D040C156DF4F8883CF59D0403A
:102CE000C056DF4F9883C05AD040C156DF4FA880EE
:102CF000B980CF59D040C956DF4F68817981C75913
:102D0000D0408E010F5F1F4FC8010E94BD2FF801F8
:102D100001900020E9F731976894EE24E5F8F12C52
:102D2000F182E082C756DF4F68817981C959D0406E
:102D3000C8010E94B22FF80101900020E9F73197F5
:102D4000F182E082C556DF4F68817981CB59D0404E
:102D5000C8010E94B22FF80101900020E9F73197D5
:102D60008DE390E091838083C356DF4F6881798142
:102D7000CD59D040C8010E94B22FD8010D9000203B
:102D8000E9F711978DE0E6E1F6E001900D928A9562
:102D9000E1F7FCAAEBAAA796FFAEEEAEA7970E94BA
:102DA000E50181E00E94E8017E0180E1E80EF11C6E
:102DB000F80181918F010E94FF010E151F05C1F7D7
:102DC00081E10E94E801CC24C394D12C1E01F5E6D8
:102DD0002F0E311CCE01C396CF55DF4F99838883C8
:102DE000C15AD0400F2EFBE26F2E712CF02D0F2E0A
:102DF000FBE24F2EF0E25F2EF02D0F2EFBE28F2E26
:102E0000F6E09F2EF02D009939C0209105013091F8
:102E100006011AC080912D0690912E068217930705
:102E200070F080912B0690912C06019690932C06C1
:102E300080932B0610922E0610922D0605C0019647
:102E400090932E0680932D06009BE4CFF101019014
:102E50000020E9F7319771826082CF55DF4FE8811A
:102E6000F981C15AD04001900020E9F73197518291
:102E7000408212829FEFC91AD90ABCC001993DC095
:102E800020910501309106011AC080912D06909184
:102E90002E068217930770F080912B0690912C06D6
:102EA000019690932C0680932B0610922E0610927A
:102EB0002D0605C0019690932E0680932D06019B4A
:102EC000E4CFF10101900020E9F731978DE290E025
:102ED00091838083CF55DF4FE881F981C15AD0407B
:102EE00001900020E9F731978DE290E29183808391
:102EF00012829FEFC91AD90A7DC002993DC0209164
:102F00000501309106011AC080912D0690912E0680
:102F10008217930770F080912B0690912C060196F2
:102F200090932C0680932B0610922E0610922D065D
:102F300005C0019690932E0680932D06029BE4CF48
:102F4000F10101900020E9F731978FE290E0918341
:102F50008083CF55DF4FE881F981C15AD04001907D
:102F60000020E9F731978FE290E29183808312820B
:102F70009FEFC91AD90A3EC003993CC020910501B0
:102F8000309106011AC080912D0690912E0682176D
:102F9000930770F080912B0690912C0601969093E8
:102FA0002C0680932B0610922E0610922D0605C03B
:102FB000019690932E0680932D06039BE4CFF1019A
:102FC00001900020E9F731978AE290E091838083B5
:102FD000CF55DF4FE881F981C15AD04001900020E0
:102FE000E9F731978AE290E29183808312829FEF22
:102FF000C91AD90A80912D0690912E0620910501BB
:10300000309106018217930770F080912B06909102
:103010002C06019690932C0680932B0610922E0678
:1030200010922D0605C0019690932E0680932D06D2
:1030300060910701F4018081681B80912F060E9436
:10304000F30381E10E94E8011C141D0474F48E0155
:103050000D5C1F4F7801EC0CFD1CF80181918F0174
:103060000E94FF01E016F106C1F78091070190E090
:1030700020912B0630912C062817390734F063DB9A
:1030800010922806F1E0F093040183E0C816D10401
:103090000CF4B9CEA114B104B1F4A7968FADA797E3
:1030A0008B3259F4A8968FADA8978B3231F480916A
:1030B0002F068F5F80932F063AC080912F06815094
:1030C00080932F0634C091E0A916B104B1F4A796FD
:1030D0008FADA7978B3259F4A8968FADA8978A32F7
:1030E00031F480912F068F5F80932F063AC0809134
:1030F0002F06815080932F0634C0E2E0AE16B10453
:10310000B1F4A7968FADA7978A3259F4A8968FADE0
:10311000A8978B3231F480912F068F5F80932F0612
:103120003AC080912F06815080932F0634C0F3E07F
:10313000AF16B104B1F4A7968FADA7978A3259F4B0
:10314000A8968FADA8978D3231F480912F068F5FAE
:1031500080932F063AC080912F06815080932F06CE
:1031600034C084E0A816B104B1F4A7968FADA79738
:103170008D3259F4A8968FADA8978F3231F4809193
:103180002F068F5F80932F063AC080912F068150C3
:1031900080932F0634C095E0A916B104B1F4A79628
:1031A0008FADA7978F3259F4A8968FADA8978B3221
:1031B00031F480912F068F5F80932F063AC0809163
:1031C0002F06815080932F0634C0E6E0AE16B1047E
:1031D000B1F4A7968FADA7978B3259F4A8968FAD0F
:1031E000A8978F3231F480912F068F5F80932F063E
:1031F0003AC080912F06815080932F0634C0F7E0AB
:10320000AF16B104B1F4A7968FADA7978D3259F4DC
:10321000A8968FADA8978B3231F480912F068F5FDF
:1032200080932F063AC080912F06815080932F06FD
:1032300034C088E0A816B104B1F4A7968FADA79763
:103240008A3259F4A8968FADA8978A3231F48091CA
:103250002F068F5F80932F063AC080912F068150F2
:1032600080932F0634C099E0A916B104B1F4A79653
:103270008FADA7978D3259F4A8968FADA8978A3253
:1032800031F480912F068F5F80932F063AC0809192
:103290002F06815080932F0634C0EAE0AE16B104A9
:1032A000B1F4A7968FADA7978F3259F4A8968FAD3A
:1032B000A8978F3231F480912F068F5F80932F066D
:1032C0003AC080912F06815080932F0634C0FBE0D6
:1032D000AF16B104B1F4A7968FADA7978A3259F40F
:1032E000A8968FADA8978B3231F480912F068F5F0F
:1032F00080932F063AC080912F06815080932F062D
:1033000034C08CE0A816B104B1F4A7968FADA7978E
:103310008B3259F4A8968FADA8978A3231F48091F8
:103320002F068F5F80932F063AC080912F06815021
:1033300080932F0634C09DE0A916B104B1F4A7967E
:103340008FADA7978B3259F4A8968FADA8978F327F
:1033500031F480912F068F5F80932F063AC08091C1
:103360002F06815080932F0634C0EEE0AE16B104D4
:10337000B1F4A7968FADA7978A3259F4A8968FAD6E
:10338000A8978D3231F480912F068F5F80932F069E
:103390003AC080912F06815080932F0634C0FFE001
:1033A000AF16B104B1F4A7968FADA7978D3259F43B
:1033B000A8968FADA8978F3231F480912F068F5F3A
:1033C00080932F063AC080912F06815080932F065C
:1033D00034C080E1A816B104B1F4A7968FADA797C9
:1033E0008F3259F4A8968FADA8978B3231F4809123
:1033F0002F068F5F80932F063AC080912F06815051
:1034000080932F0634C091E1A916B104B1F4A796B8
:103410008FADA7978D3259F4A8968FADA8978A32B1
:1034200031F480912F068F5F80932F063AC08091F0
:103430002F06815080932F0634C0E2E1AE16B1040E
:10344000B1F4A7968FADA7978A3259F4A8968FAD9D
:10345000A8978D3231F480912F068F5F80932F06CD
:1034600039C080912F06815080932F0633C0F3E13D
:10347000AF16B104B1F4A7968FADA7978F3259F468
:10348000A8968FADA8978A3231F480912F068F5F6E
:1034900080932F061FC080912F06815080932F06A6
:1034A00019C084E1A816B104A9F4A7968FADA79717
:1034B0008F3259F4A8968FADA8978A3231F4809153
:1034C0002F068F5F80932F0605C080912F068150B5
:1034D00080932F06CE55DF4F0FB6F894DEBF0FBE98
:1034E000CDBFDF91CF911F910F91FF90EF90DF90B3
:1034F000CF90BF90AF909F908F907F906F905F9094
:103500004F903F902F9008952F923F924F925F924D
:103510006F927F928F929F92AF92BF92CF92DF92E3
:10352000EF92FF920F931F93CF93DF93CDB7DEB748
:10353000C45AD1090FB6F894DEBF0FBECDBFC9562D
:10354000DF4FE882C759D040C856DF4FF882C859CC
:10355000D040C756DF4F0883C959D040C656DF4F09
:103560001883CA59D040C556DF4F2883CB59D04065
:10357000C456DF4F3883CC59D040C356DF4F488301
:10358000CD59D040C256DF4F5883CE59D040C15696
:10359000DF4F6883CF59D040C056DF4F7883C05A81
:1035A000D040CF55DF4F8883C15AD040CE55DF4F32
:1035B0009883C25AD040CF55DF4FA880B980C15AF6
:1035C000D040C956DF4F68817981C759D0408E01FC
:1035D0000F5F1F4FC8010E94BD2FF801019000200E
:1035E000E9F731976894EE24E5F8F12CF182E08256
:1035F000C756DF4F68817981C959D040C8010E9400
:10360000B22FF80101900020E9F73197F182E082B2
:10361000C556DF4F68817981CB59D040C8010E94DF
:10362000B22FF80101900020E9F73197F182E08292
:10363000C356DF4F68817981CD59D040C8010E94BF
:10364000B22FF80101900020E9F731978DE390E067
:1036500091838083C156DF4F68817981CF59D040F3
:10366000C8010E94B22FD8010D900020E9F71197F0
:103670008DE0E6E1F6E001900D928A95E1F7FCAA73
:10368000EBAAA796FFAEEEAEA7970E94E50181E0F8
:103690000E94E8017E0180E1E80EF11CF8018191B1
:1036A0008F010E94FF010E151F05C1F781E10E94E5
:1036B000E801CC24C394D12C1E01F5E62F0E311C59
:1036C000CE01C396CD55DF4F99838883C35AD0402E
:1036D0000F2EFBE26F2E712CF02D0F2EFBE24F2EE2
:1036E000F0E25F2EF02D0F2EFBE28F2EF6E09F2EE4
:1036F000F02D009939C020910501309106011AC0C2
:1037000080912D0690912E068217930770F080917C
:103710002B0690912C06019690932C0680932B06F5
:1037200010922E0610922D0605C0019690932E063B
:1037300080932D06009BE4CFF10101900020E9F772
:10374000319771826082CD55DF4FE881F981C35A8C
:10375000D04001900020E9F73197518240821282D7
:103760009FEFC91AD90ABCC001993DC0209105013B
:10377000309106011AC080912D0690912E06821775
:10378000930770F080912B0690912C0601969093F0
:103790002C0680932B0610922E0610922D0605C043
:1037A000019690932E0680932D06019BE4CFF101A4
:1037B00001900020E9F731978DE290E091838083BA
:1037C000CD55DF4FE881F981C35AD04001900020E8
:1037D000E9F731978DE290E29183808312829FEF27
:1037E000C91AD90A7DC002993DC0209105013091C6
:1037F00006011AC080912D0690912E06821793071C
:1038000070F080912B0690912C06019690932C06D7
:1038100080932B0610922E0610922D0605C001965D
:1038200090932E0680932D06029BE4CFF101019028
:103830000020E9F731978FE290E091838083CD55A6
:10384000DF4FE881F981C35AD04001900020E9F7A9
:1038500031978FE290E29183808312829FEFC91AA1
:10386000D90A3EC003993CC0209105013091060160
:103870001AC080912D0690912E068217930770F042
:1038800080912B0690912C06019690932C068093A4
:103890002B0610922E0610922D0605C001969093CD
:1038A0002E0680932D06039BE4CFF10101900020AA
:1038B000E9F731978AE290E091838083CD55DF4F1D
:1038C000E881F981C35AD04001900020E9F731978F
:1038D0008AE290E29183808312829FEFC91AD90A0B
:1038E00080912D0690912E062091050130910601C0
:1038F0008217930770F080912B0690912C06019609
:1039000090932C0680932B0610922E0610922D0673
:1039100005C0019690932E0680932D0660910701B5
:10392000F4018081681B80912F060E94F30381E1DE
:103930000E94E8011C141D0474F48E010D5C1F4FDD
:103940007801EC0CFD1CF80181918F010E94FF01B0
:10395000E016F106C1F78091070190E020912B0657
:1039600030912C06281739073CF00E94A3131092BF
:103970002806F1E0F093040184E0C816D1040CF4A9
:10398000B8CEA114B104B1F4A7968FADA7978B322E
:1039900059F4A8968FADA8978B3231F480912F06F9
:1039A0008F5F80932F063AC080912F0681508093BD
:1039B0002F0634C091E0A916B104B1F4A7968FADDB
:1039C000A7978B3259F4A8968FADA8978A3231F415
:1039D00080912F068F5F80932F063AC080912F062B
:1039E000815080932F0634C0E2E0AE16B104B1F4EA
:1039F000A7968FADA7978A3259F4A8968FADA8974E
:103A00008B3231F480912F068F5F80932F063AC05E
:103A100080912F06815080932F0634C0F3E0AF16BB
:103A2000B104B1F4A7968FADA7978A3259F4A8963E
:103A30008FADA8978D3231F480912F068F5F8093E0
:103A40002F063AC080912F06815080932F0634C0F4
:103A500084E0A816B104B1F4A7968FADA7978D3274
:103A600059F4A8968FADA8978F3231F480912F0624
:103A70008F5F80932F063AC080912F0681508093EC
:103A80002F0634C095E0A916B104B1F4A7968FAD06
:103A9000A7978F3259F4A8968FADA8978B3231F43F
:103AA00080912F068F5F80932F063AC080912F065A
:103AB000815080932F0634C0E6E0AE16B104B1F415
:103AC000A7968FADA7978B3259F4A8968FADA8977C
:103AD0008F3231F480912F068F5F80932F063AC08A
:103AE00080912F06815080932F0634C0F7E0AF16E7
:103AF000B104B1F4A7968FADA7978D3259F4A8966B
:103B00008FADA8978B3231F480912F068F5F809311
:103B10002F063AC080912F06815080932F0634C023
:103B200088E0A816B104B1F4A7968FADA7978A32A2
:103B300059F4A8968FADA8978A3231F480912F0658
:103B40008F5F80932F063AC080912F06815080931B
:103B50002F0634C099E0A916B104B1F4A7968FAD31
:103B6000A7978D3259F4A8968FADA8978A3231F471
:103B700080912F068F5F80932F063AC080912F0689
:103B8000815080932F0634C0EAE0AE16B104B1F440
:103B9000A7968FADA7978F3259F4A8968FADA897A7
:103BA0008F3231F480912F068F5F80932F063AC0B9
:103BB00080912F06815080932F0634C0FBE0AF1612
:103BC000B104B1F4A7968FADA7978A3259F4A8969D
:103BD0008FADA8978B3231F480912F068F5F809341
:103BE0002F063AC080912F06815080932F0634C053
:103BF0008CE0A816B104B1F4A7968FADA7978B32CD
:103C000059F4A8968FADA8978A3231F480912F0687
:103C10008F5F80932F063AC080912F06815080934A
:103C20002F0634C09DE0A916B104B1F4A7968FAD5C
:103C3000A7978B3259F4A8968FADA8978F3231F49D
:103C400080912F068F5F80932F063AC080912F06B8
:103C5000815080932F0634C0EEE0AE16B104B1F46B
:103C6000A7968FADA7978A3259F4A8968FADA897DB
:103C70008D3231F480912F068F5F80932F063AC0EA
:103C800080912F06815080932F0634C0FFE0AF163D
:103C9000B104B1F4A7968FADA7978D3259F4A896C9
:103CA0008FADA8978F3231F480912F068F5F80936C
:103CB0002F063AC080912F06815080932F0634C082
:103CC00080E1A816B104B1F4A7968FADA7978F3203
:103CD00059F4A8968FADA8978B3231F480912F06B6
:103CE0008F5F80932F063AC080912F06815080937A
:103CF0002F0634C091E1A916B104B1F4A7968FAD97
:103D0000A7978D3259F4A8968FADA8978A3231F4CF
:103D100080912F068F5F80932F063AC080912F06E7
:103D2000815080932F0634C0E2E1AE16B104B1F4A5
:103D3000A7968FADA7978A3259F4A8968FADA8970A
:103D40008D3231F480912F068F5F80932F0639C01A
:103D500080912F06815080932F0633C0F3E1AF1678
:103D6000B104B1F4A7968FADA7978F3259F4A896F6
:103D70008FADA8978A3231F480912F068F5F8093A0
:103D80002F061FC080912F06815080932F0619C0E7
:103D900084E1A816B104A9F4A7968FADA7978F3236
:103DA00059F4A8968FADA8978A3231F480912F06E6
:103DB0008F5F80932F0605C080912F0681508093DE
:103DC0002F06CC55DF4F0FB6F894DEBF0FBECDBF28
:103DD000DF91CF911F910F91FF90EF90DF90CF90E7
:103DE000BF90AF909F908F907F906F905F904F901B
:103DF0003F902F900895EF92FF920F931F93CF93D0
:103E0000DF93CDB7DEB7C55BD2400FB6F894DEBF07
:103E10000FBECDBF8BE0EDEAF1E0DE01119601901F
:103E20000D928A95E1F78BE0E8EBF1E0DE011C965C
:103E300001900D928A95E1F78BE0E3ECF1E0DE0171
:103E4000579601900D928A95E1F78BE0EEECF1E048
:103E5000DE01929601900D928A95E1F78BE0E9EDF3
:103E6000F1E0DE019D9601900D928A95E1F78BE0DD
:103E7000E4EEF1E0DE01D89601900D928A95E1F72B
:103E80008BE0EFEEF1E0DE01AD5BBF4F01900D92F4
:103E90008A95E1F78BE0EAEFF1E0DE01A25BBF4F2C
:103EA00001900D928A95E1F78BE0E5E0F2E0DE010A
:103EB000A75ABF4F01900D928A95E1F78BE0E0E1A0
:103EC000F2E0DE01AC59BF4F01900D928A95E1F707
:103ED0008BE0EBE1F2E0DE01A159BF4F01900D92C2
:103EE0008A95E1F78BE0E6E2F2E0DE01A658BF4FEB
:103EF00001900D928A95E1F78BE0E1E3F2E0DE01BB
:103F0000AB57BF4F01900D928A95E1F78BE0ECE340
:103F1000F2E0DE01A057BF4F01900D928A95E1F7C4
:103F20008BE0E7E4F2E0DE01A556BF4F01900D9271
:103F30008A95E1F78BE0E2E5F2E0DE01AA55BF4F9A
:103F400001900D928A95E1F78BE0EDE5F2E0DE015C
:103F5000AF54BF4F01900D928A95E1F78BE0E8E6F0
:103F6000F2E0DE01A454BF4F01900D928A95E1F773
:103F70008BE0E3E7F2E0DE01A953BF4F01900D9221
:103F80008A95E1F78BE0EEE7F2E0DE01AE52BF4F3B
:103F900001900D928A95E1F78BE0E9E8F2E0DE010D
:103FA000A352BF4F01900D928A95E1F78AE0E4E9B0
:103FB000F2E0DE01A851BF4F01900D928A95E1F722
:103FC0008AE0EEE9F2E0DE01AE50BF4F01900D92C3
:103FD0008A95E1F78AE0E8EAF2E0DE01A450BF4FFB
:103FE00001900D928A95E1F78AE0E2EBF2E0DE01C2
:103FF000AA5FBE4F01900D928A95E1F78AE0ECEB43
:10400000F2E0DE01A05FBE4F01900D928A95E1F7CC
:104010008AE0E6ECF2E0DE01A65EBE4F01900D9272
:104020008A95E1F78AE0E0EDF2E0DE01AC5DBE4F9B
:1040300001900D928A95E1F78AE0EAEDF2E0DE0167
:10404000A25DBE4F01900D928A95E1F78AE0E4EE01
:10405000F2E0DE01A85CBE4F01900D928A95E1F777
:104060008AE0EEEEF2E0DE01AE5BBE4F01900D9213
:104070008A95E1F78AE0E8EFF2E0DE01A45BBE4F4B
:1040800001900D928A95E1F78AE0E2E0F3E0DE012B
:10409000AA5ABE4F01900D928A95E1F78AE0ECE0B2
:1040A000F3E0DE01A05ABE4F01900D928A95E1F730
:1040B0008AE0E6E1F3E0DE01A659BE4F01900D92E1
:1040C0008A95E1F78AE0E0E2F3E0DE01AC58BE4F0A
:1040D00001900D928A95E1F78AE0EAE2F3E0DE01D1
:1040E000A258BE4F01900D928A95E1F78AE0E4E371
:1040F000F3E0DE01A857BE4F01900D928A95E1F7DB
:104100008AE0EEE3F3E0DE01AE56BE4F01900D9281
:104110008A95E1F78AE0E8E4F3E0DE01A456BE4FB9
:1041200001900D928A95E1F78AE0E2E5F3E0DE0185
:10413000AA55BE4F01900D928A95E1F78AE0ECE511
:10414000F3E0DE01A055BE4F01900D928A95E1F794
:104150008CE0E6E6F3E0DE01A654BE4F01900D923E
:104160008A95E1F78CE0E2E7F3E0DE01AA53BE4F67
:1041700001900D928A95E1F78CE0EEE7F3E0DE0125
:10418000AE52BE4F01900D928A95E1F78CE0EAE8BD
:10419000F3E0DE01A252BE4F01900D928A95E1F745
:1041A0008CE0E6E9F3E0DE01A651BE4F01900D92EE
:1041B0008A95E1F78CE0E2EAF3E0DE01AA50BE4F17
:1041C00001900D928A95E1F78CE0EEEAF3E0DE01D2
:1041D000AE5FBD4F01900D928A95E1F78CE0EAEB5E
:1041E000F3E0DE01A25FBD4F01900D928A95E1F7E9
:1041F0008CE0E6ECF3E0DE01A65EBD4F01900D928F
:104200008A95E1F78CE0E2EDF3E0DE01AA5DBD4FB7
:1042100001900D928A95E1F78CE0EEEDF3E0DE017E
:10422000AE5CBD4F01900D928A95E1F78CE0EAEE0D
:10423000F3E0DE01A25CBD4F01900D928A95E1F79B
:104240008CE0E6EFF3E0DE01A65BBD4F01900D923E
:104250008A95E1F78CE0E2E0F4E0DE01AA5ABD4F76
:1042600001900D928A95E1F78CE0EEE0F4E0DE013A
:10427000AE59BD4F01900D928A95E1F78CE0EAE1CD
:10428000F4E0DE01A259BD4F01900D928A95E1F74D
:104290008CE0E6E2F4E0DE01A658BD4F01900D92FD
:1042A0008A95E1F78CE0E2E3F4E0DE01AA57BD4F26
:1042B00001900D928A95E1F78CE0EEE3F4E0DE01E7
:1042C000AE56BD4F01900D928A95E1F78CE0EAE47D
:1042D000F4E0DE01A256BD4F01900D928A95E1F700
:1042E0008CE0E6E5F4E0DE01A655BD4F01900D92AD
:1042F0008A95E1F7809107018E3111F40C94BA2E62
:104300008C3311F40C94BA2E8A3511F00C94C02E13
:104310000C94BA2E80910801811171C30E94A42FC0
:104320008C010E94E501C80165E170E00E942D2F1B
:104330008531910510F00C94BA2EFC01EA5BFF4F19
:104340000C94402FE980FA800B811C812D813E81E5
:104350004F81588569857A858B850E9488140C94D5
:10436000BA2EEC84FD840E851F85288939894A89F7
:104370005B896C897D898E890E9488140C94BA2E81
:10438000EF88F88C098D1A8D2B8D3C8D4D8D5E8DAF
:104390006F8D78A189A10E9488140C94BA2EEAA08E
:1043A000FBA00CA11DA12EA13FA148A559A56AA55E
:1043B0007BA58CA50E9488140C94BA2EEDA4FEA4B3
:1043C0000FA518A929A93AA94BA95CA96DA97EA98D
:1043D0008FA90E9488140C94BA2EE8ACF9AC0AADEF
:1043E0001BAD2CAD3DAD4EAD5FAD21966FAD2197B0
:1043F00022967FAD229723968FAD23970E94881433
:104400000C94BA2E2496EFAC24972596FFAC2597F2
:1044100026960FAD269727961FAD279728962FAD86
:10442000289729963FAD29972A964FAD2A972B9624
:104430005FAD2B972C966FAD2C972D967FAD2D975A
:104440002E968FAD2E970E9488140C94BA2E2F961C
:10445000EFAC2F976096FFAC609761960FAD6197B8
:1044600062961FAD629763962FAD639764963FADDA
:10447000649765964FAD659766965FAD669767964C
:104480006FAD679768967FAD689769968FAD6997AE
:104490000E9488140C94BA2E6A96EFAC6A976B96B9
:1044A000FFAC6B976C960FAD6C976D961FAD6D97CB
:1044B0006E962FAD6E976F963FAD6F97A0964FADEE
:1044C000A097A1965FADA197A2966FADA297A39674
:1044D0007FADA397A4968FADA4970E9488140C94E7
:1044E000BA2EA596EFACA597A696FFACA697A79671
:1044F0000FADA797A8961FADA897A9962FADA9971E
:10450000AA963FADAA97AB964FADAB97AC965FAD71
:10451000AC97AD966FADAD97AE967FADAE97AF96BB
:104520008FADAF970E9488140C94BA2EE096EFAC32
:10453000E097E196FFACE197E2960FADE297E39644
:104540001FADE397E4962FADE497E5963FADE59771
:10455000E6964FADE697E7965FADE797E8966FADC5
:10456000E897E9967FADE997EA968FADEA970E94C2
:1045700088140C94BA2EEB96EFACEB97EC96FFAC4C
:10458000EC97ED960FADED97EE961FADEE97EF968B
:104590002FADEF97C158DF4F3881CF57D040C0586B
:1045A000DF4F4881C058D040CF57DF4F5881C158A6
:1045B000D040CE57DF4F6881C258D040CD57DF4F33
:1045C0007881C358D040CC57DF4F8881C458D04041
:1045D0000E9488140C94BA2ECB57DF4FE880C55840
:1045E000D040CA57DF4FF880C658D040C957DF4F78
:1045F0000881C758D040C857DF4F1881C858D040ED
:10460000C757DF4F2881C958D040C657DF4F388180
:10461000CA58D040C557DF4F4881CB58D040C45707
:10462000DF4F5881CC58D040C357DF4F6881CD58F9
:10463000D040C257DF4F7881CE58D040C157DF4FAE
:104640008881CF58D0400E9488140C94BA2EC0574D
:10465000DF4FE880C059D040CF56DF4FF880C159B6
:10466000D040CE56DF4F0881C259D040CD56DF4FE3
:104670001881C359D040CC56DF4F2881C459D0404F
:10468000CB56DF4F3881C559D040CA56DF4F4881DD
:10469000C659D040C956DF4F5881C759D040C85677
:1046A000DF4F6881C859D040C756DF4F7881C9595C
:1046B000D040C656DF4F8881CA59D0400E94881426
:1046C0000C94BA2EC556DF4FE880CB59D040C45663
:1046D000DF4FF880CC59D040C356DF4F0881CD5909
:1046E000D040C256DF4F1881CE59D040C156DF4F5F
:1046F0002881CF59D040C056DF4F3881C05AD040B2
:10470000CF55DF4F4881C15AD040CE55DF4F588139
:10471000C25AD040CD55DF4F6881C35AD040CC55E6
:10472000DF4F7881C45AD040CB55DF4F8881C55ABE
:10473000D0400E9488140C94BA2ECA55DF4FE880EE
:10474000C65AD040C955DF4FF880C75AD040C85527
:10475000DF4F0881C85AD040C755DF4F1881C95A6A
:10476000D040C655DF4F2881CA5AD040C555DF4FCB
:104770003881CB5AD040C455DF4F4881CC5AD04005
:10478000C355DF4F5881CD5AD040C255DF4F6881A5
:10479000CE5AD040C155DF4F7881CF5AD040C05556
:1047A000DF4F8881C05BD0400E9488140C94BA2EE1
:1047B000CF54DF4FE880C15BD040CE54DF4FF8804C
:1047C000C25BD040CD54DF4F0881C35BD040CC5496
:1047D000DF4F1881C45BD040CB54DF4F2881C55BCD
:1047E000D040CA54DF4F3881C65BD040C954DF4F38
:1047F0004881C75BD040C854DF4F5881C85BD04068
:10480000C754DF4F6881C95BD040C654DF4F788101
:10481000CA5BD040C554DF4F8881CB5BD0400E943B
:1048200088140C94BA2EC454DF4FE880CC5BD0407F
:10483000C354DF4FF880CD5BD040C254DF4F0881B6
:10484000CE5BD040C154DF4F1881CF5BD040C05405
:10485000DF4F2881C05CD040CF53DF4F3881C15C2F
:10486000D040CE53DF4F4881C25CD040CD53DF4FA4
:104870005881C35CD040CC53DF4F6881C45CD040CA
:10488000CB53DF4F7881C55CD040CA53DF4F88815E
:10489000C65CD0400E9488140C94BA2EC953DF4FD6
:1048A000E880C75CD040C853DF4FF880C85CD04078
:1048B000C753DF4F0881C95CD040C653DF4F188112
:1048C000CA5CD040C553DF4F2881CB5CD040C45375
:1048D000DF4F3881CC5CD040C353DF4F4881CD5C83
:1048E000D040C253DF4F5881CE5CD040C153DF4F20
:1048F0006881CF5CD040C053DF4F7881C05DD0402D
:10490000CF52DF4F8881C15DD0400E9488140C9443
:10491000BA2ECE52DF4FE880C25DD040CD52DF4F7D
:10492000F880C35DD040CC52DF4F0881C45DD040D9
:10493000CB52DF4F1881C55DD040CA52DF4F28816E
:10494000C65DD040C952DF4F3881C75DD040C852E4
:10495000DF4F4881C85DD040C752DF4F5881C95DE5
:10496000D040C652DF4F6881CA5DD040C552DF4F8C
:104970007881CB5DD040C452DF4F8881CC5DD04080
:104980000E9488140C94BA2EC352DF4FE880CD5D8C
:10499000D040C252DF4FF880CE5DD040C152DF4FD1
:1049A0000881CF5DD040C052DF4F1881C05ED0403B
:1049B000CF51DF4F2881C15ED040CE51DF4F3881CB
:1049C000C25ED040CD51DF4F4881C35ED040CC5154
:1049D000DF4F5881C45ED040CB51DF4F6881C55E48
:1049E000D040CA51DF4F7881C65ED040C951DF4FF9
:1049F0008881C75ED0400E9488140C94BA2E823001
:104A000009F045C50E94A42F8C010E94E501C80150
:104A100065E170E00E942D2F8531910510F00C9416
:104A2000BA2EFC01E55AFF4F0C94402FC654DE4FBE
:104A3000E880CA5BD140C554DE4FF880CB5BD140E3
:104A4000C454DE4F0881CC5BD140C354DE4F188183
:104A5000CD5BD140C254DE4F2881CE5BD140C154E2
:104A6000DE4F3881CF5BD140C054DE4F4881C05CFF
:104A7000D140CF53DE4F5881C15CD140CE53DE4F81
:104A80006881C25CD140CD53DE4F7881C35CD14098
:104A9000CC53DE4F8881C45CD140CB53DE4F98812C
:104AA000C55CD1400E94841A0C94BA2ECA53DE4FC2
:104AB000E880C65CD140C953DE4FF880C75CD14066
:104AC000C853DE4F0881C85CD140C753DE4F188100
:104AD000C95CD140C653DE4F2881CA5CD140C55362
:104AE000DE4F3881CB5CD140C453DE4F4881CC5C73
:104AF000D140C353DE4F5881CD5CD140C253DE4F0D
:104B00006881CE5CD140C153DE4F7881CF5CD1400B
:104B1000C053DE4F8881C05DD140CF52DE4F9881B7
:104B2000C15DD1400E94841A0C94BA2ECE52DE4F41
:104B3000E880C25DD140CD52DE4FF880C35DD140E8
:104B4000CC52DE4F0881C45DD140CB52DE4F18817C
:104B5000C55DD140CA52DE4F2881C65DD140C952E1
:104B6000DE4F3881C75DD140C852DE4F4881C85DF5
:104B7000D140C752DE4F5881C95DD140C652DE4F89
:104B80006881CA5DD140C552DE4F7881CB5DD1408E
:104B9000C452DE4F8881CC5DD140C352DE4F988134
:104BA000CD5DD1400E94841A0C94BA2EC252DE4FC1
:104BB000E880CE5DD140C152DE4FF880CF5DD1405C
:104BC000C052DE4F0881C05ED140CF51DE4F188108
:104BD000C15ED140CE51DE4F2881C25ED140CD5161
:104BE000DE4F3881C35ED140CC51DE4F4881C45E78
:104BF000D140CB51DE4F5881C55ED140CA51DE4F06
:104C00006881C65ED140C951DE4F7881C75ED14010
:104C1000C851DE4F8881C85ED140C751DE4F9881B0
:104C2000C95ED1400E94841A0C94BA2EC651DE4F40
:104C3000E880CA5ED140C551DE4FF880CB5ED140DE
:104C4000C451DE4F0881CC5ED140C351DE4F188184
:104C5000CD5ED140C251DE4F2881CE5ED140C151E0
:104C6000DE4F3881CF5ED140C051DE4F4881C05FFA
:104C7000D140CF50DE4F5881C15FD140CE50DE4F82
:104C80006881C25FD140CD50DE4F7881C35FD14093
:104C9000CC50DE4F8881C45FD140CB50DE4F98812D
:104CA000C55FD1400E94841A0C94BA2ECA50DE4FC0
:104CB000E880C65FD140C950DE4FF880C75FD14061
:104CC000C850DE4F0881C85FD140C750DE4F188101
:104CD000C95FD140C650DE4F2881CA5FD140C55060
:104CE000DE4F3881CB5FD140C450DE4F4881CC5F6E
:104CF000D140C350DE4F5881CD5FD140C250DE4F0E
:104D00006881CE5FD140C150DE4F7881CF5FD14006
:104D1000C050DE4F8881C050D240CF5FDD4F9881B8
:104D2000C150D2400E94841A0C94BA2ECE5FDD4F3F
:104D3000E880C250D240CD5FDD4FF880C350D240F2
:104D4000CC5FDD4F0881C450D240CB5FDD4F18816E
:104D5000C550D240CA5FDD4F2881C650D240C95FDE
:104D6000DD4F3881C750D240C85FDD4F4881C85001
:104D7000D240C75FDD4F5881C950D240C65FDD4F7A
:104D80006881CA50D240C55FDD4F7881CB50D24098
:104D9000C45FDD4F8881CC50D240C35FDD4F988126
:104DA000CD50D2400E94841AE5C7C25FDD4FE88033
:104DB000CE50D240C15FDD4FF880CF50D240C05FAF
:104DC000DD4F0881C051D240CF5EDD4F1881C15107
:104DD000D240CE5EDD4F2881C251D240CD5EDD4F44
:104DE0003881C351D240CC5EDD4F4881C451D2409E
:104DF000CB5EDD4F5881C551D240CA5EDD4F688120
:104E0000C651D240C95EDD4F7881C751D240C85EDD
:104E1000DD4F8881C851D240C75EDD4F9881C951AE
:104E2000D2400E94841AA6C7C65EDD4FE880CA51F0
:104E3000D240C55EDD4FF880CB51D240C45EDD4F1D
:104E40000881CC51D240C35EDD4F1881CD51D24094
:104E5000C25EDD4F2881CE51D240C15EDD4F388128
:104E6000CF51D240C05EDD4F4881C052D240CF5DAD
:104E7000DD4F5881C152D240CE5DDD4F6881C252B4
:104E8000D240CD5DDD4F7881C352D240CC5DDD4F45
:104E90008881C452D240CB5DDD4F9881C552D2404B
:104EA0000E94841A67C7CA5DDD4FE880C652D240AF
:104EB000C95DDD4FF880C752D240C85DDD4F088123
:104EC000C852D240C75DDD4F1881C952D240C65D7D
:104ED000DD4F2881CA52D240C55DDD4F3881CB52AB
:104EE000D240C45DDD4F4881CC52D240C35DDD4F1E
:104EF0005881CD52D240C25DDD4F6881CE52D24042
:104F0000C15DDD4F7881CF52D240C05DDD4F8881D9
:104F1000C053D240CF5CDD4F9881C153D2400E9434
:104F2000841A28C7CE5CDD4FE880C253D240CD5CE6
:104F3000DD4FF880C353D240CC5CDD4F0881C453B1
:104F4000D240CB5CDD4F1881C553D240CA5CDD4FE7
:104F50002881C653D240C95CDD4F3881C753D24047
:104F6000C85CDD4F4881C853D240C75CDD4F5881D3
:104F7000C953D240C65CDD4F6881CA53D240C55C7C
:104F8000DD4F7881CB53D240C45CDD4F8881CC5358
:104F9000D240C35CDD4F9881CD53D2400E94841A29
:104FA000E9C6C25CDD4FE880CE53D240C15CDD4F24
:104FB000F880CF53D240C05CDD4F0881C054D2404E
:104FC000CF5BDD4F1881C154D240CE5BDD4F2881CD
:104FD000C254D240CD5BDD4F3881C354D240CC5B4C
:104FE000DD4F4881C454D240CB5BDD4F5881C5545E
:104FF000D240CA5BDD4F6881C654D240C95BDD4FE9
:105000007881C754D240C85BDD4F8881C854D240F4
:10501000C75BDD4F9881C954D2400E94841AAAC64A
:10502000C65BDD4FE880CA54D240C55BDD4FF880D7
:10503000CB54D240C45BDD4F0881CC54D240C35B1B
:10504000DD4F1881CD54D240C25BDD4F2881CE5454
:10505000D240C15BDD4F3881CF54D240C05BDD4FC1
:105060004881C055D240CF5ADD4F5881C155D240FA
:10507000CE5ADD4F6881C255D240CD5ADD4F78817E
:10508000C355D240CC5ADD4F8881C455D240CB5A4B
:10509000DD4F9881C555D2400E94841A6BC6CA5A0A
:1050A000DD4FE880C655D240C95ADD4FF880C7555C
:1050B000D240C85ADD4F0881C855D240C75ADD4F8B
:1050C0001881C955D240C65ADD4F2881CA55D240F1
:1050D000C55ADD4F3881CB55D240C45ADD4F488187
:1050E000CC55D240C35ADD4F5881CD55D240C25A1B
:1050F000DD4F6881CE55D240C15ADD4F7881CF5502
:10510000D240C05ADD4F8881C056D240CF59DD4FC2
:105110009881C156D2400E94841A2CC6CE59DD4FC8
:10512000E880C256D240CD59DD4FF880C356D240F8
:10513000CC59DD4F0881C456D240CB59DD4F188180
:10514000C556D240CA59DD4F2881C656D240C959EA
:10515000DD4F3881C756D240C859DD4F4881C85607
:10516000D240C759DD4F5881C956D240C659DD4F8C
:105170006881CA56D240C559DD4F7881CB56D2409E
:10518000C459DD4F8881CC56D240C359DD4F988138
:10519000CD56D2400E94841AEDC5C259DD4FE88039
:1051A000CE56D240C159DD4FF880CF56D240C059BB
:1051B000DD4F0881C057D240CF58DD4F1881C1570D
:1051C000D240CE58DD4F2881C257D240CD58DD4F56
:1051D0003881C357D240CC58DD4F4881C457D240A4
:1051E000CB58DD4F5881C557D240CA58DD4F688132
:1051F000C657D240C958DD4F7881C757D240C858EA
:10520000DD4F8881C857D240C758DD4F9881C957B4
:10521000D2400E94841AAEC5C658DD4FE880CA57F6
:10522000D240C558DD4FF880CB57D240C458DD4F2F
:105230000881CC57D240C358DD4F1881CD57D2409A
:10524000C258DD4F2881CE57D240C158DD4F38813A
:10525000CF57D240C058DD4F4881C058D240CF57B9
:10526000DD4F5881C158D240CE57DD4F6881C258BA
:10527000D240CD57DD4F7881C358D240CC57DD4F57
:105280008881C458D240CB57DD4F9881C558D24051
:105290000E94841A6FC5CA57DD4FE880C658D240B5
:1052A000C957DD4FF880C758D240C857DD4F088135
:1052B000C858D240C757DD4F1881C958D240C65789
:1052C000DD4F2881CA58D240C557DD4F3881CB58B1
:1052D000D240C457DD4F4881CC58D240C357DD4F30
:1052E0005881CD58D240C257DD4F6881CE58D24048
:1052F000C157DD4F7881CF58D240C057DD4F8881EC
:10530000C059D240CF56DD4F9881C159D2400E943A
:10531000841A30C5CE56DD4FE880C259D240CD56F2
:10532000DD4FF880C359D240CC56DD4F0881C459B7
:10533000D240CB56DD4F1881C559D240CA56DD4FF9
:105340002881C659D240C956DD4F3881C759D2404D
:10535000C856DD4F4881C859D240C756DD4F5881E5
:10536000C959D240C656DD4F6881CA59D240C55688
:10537000DD4F7881CB59D240C456DD4F8881CC595E
:10538000D240C356DD4F9881CD59D2400E94841A35
:10539000F1C4C256DD4FE880CE59D240C156DD4F30
:1053A000F880CF59D240C056DD4F0881C05AD24054
:1053B000CF55DD4F1881C15AD240CE55DD4F2881DF
:1053C000C25AD240CD55DD4F3881C35AD240CC5558
:1053D000DD4F4881C45AD240CB55DD4F5881C55A64
:1053E000D240CA55DD4F6881C65AD240C955DD4FFB
:1053F0007881C75AD240C855DD4F8881C85AD240FB
:10540000C755DD4F9881C95AD2400E94841AB2C450
:10541000C655DD4FE880CA5AD240C555DD4FF880E9
:10542000CB5AD240C455DD4F0881CC5AD240C35527
:10543000DD4F1881CD5AD240C255DD4F2881CE5A5A
:10544000D240C155DD4F3881CF5AD240C055DD4FD3
:105450004881C05BD240CF54DD4F5881C15BD24000
:10546000CE54DD4F6881C25BD240CD54DD4F788190
:10547000C35BD240CC54DD4F8881C45BD240CB5457
:10548000DD4F9881C55BD2400E94841A73C481307D
:1054900009F069C459D58C010E94E501C80165E194
:1054A00070E0DBD48531910508F064C4FC01E0595B
:1054B000FF4FE6C4C851DF4F0881C85ED040C751D6
:1054C000DF4F1881C95ED040C651DF4F2881CA5EC8
:1054D000D040C551DF4F3881CB5ED040C451DF4F43
:1054E0004881CC5ED040C351DF4F5881CD5ED04063
:1054F000C251DF4F6881CE5ED040C151DF4F78810D
:10550000CF5ED040C051DF4F8881C05FD040CF50C8
:10551000DF4F9881C15FD0400E9428162BC4CE5027
:10552000DF4F0881C25FD040CD50DF4F1881C35F8D
:10553000D040CC50DF4F2881C45FD040CB50DF4FEC
:105540003881C55FD040CA50DF4F4881C65FD04028
:10555000C950DF4F5881C75FD040C850DF4F6881C6
:10556000C85FD040C750DF4F7881C95FD040C65078
:10557000DF4F8881CA5FD040C550DF4F9881CB5F35
:10558000D0400E942816F6C3C450DF4F0881CC5F7C
:10559000D040C350DF4F1881CD5FD040C250DF4FA5
:1055A0002881CE5FD040C150DF4F3881CF5FD040DF
:1055B000C050DF4F4881C050D140CF5FDE4F58818F
:1055C000C150D140CE5FDE4F6881C250D140CD5F27
:1055D000DE4F7881C350D140CC5FDE4F8881C4500C
:1055E000D140CB5FDE4F9881C550D1400E94281634
:1055F000C1C3CA5FDE4F0881C650D140C95FDE4FCC
:105600001881C750D140C85FDE4F2881C850D140B3
:10561000C75FDE4F3881C950D140C65FDE4F488139
:10562000CA50D140C55FDE4F5881CB50D140C45FD6
:10563000DE4F6881CC50D140C35FDE4F7881CD50C2
:10564000D140C25FDE4F8881CE50D140C15FDE4F76
:105650009881CF50D1400E9428168CC3C05FDE4F86
:105660000881C051D140CF5EDE4F1881C151D14079
:10567000CE5EDE4F2881C251D140CD5EDE4F3881F3
:10568000C351D140CC5EDE4F4881C451D140CB5E86
:10569000DE4F5881C551D140CA5EDE4F6881C65188
:1056A000D140C95EDE4F7881C751D140C85EDE4F20
:1056B0008881C851D140C75EDE4F9881C951D14021
:1056C0000E94281657C3C65EDE4F0881CA51D140DA
:1056D000C55EDE4F1881CB51D140C45EDE4F2881BC
:1056E000CC51D140C35EDE4F3881CD51D140C25E36
:1056F000DE4F4881CE51D140C15EDE4F5881CF513F
:10570000D140C05EDE4F6881C052D140CF5DDE4FD8
:105710007881C152D140CE5DDE4F8881C252D140E6
:10572000CD5DDE4F9881C352D1400E94281622C31E
:10573000CC5DDE4F0881C452D140CB5DDE4F188175
:10574000C552D140CA5DDE4F2881C652D140C95DE5
:10575000DE4F3881C752D140C85DDE4F4881C85204
:10576000D140C75DDE4F5881C952D140C65DDE4F82
:105770006881CA52D140C55DDE4F7881CB52D1409D
:10578000C45DDE4F8881CC52D140C35DDE4F98812D
:10579000CD52D1400E942816EDC2C25DDE4F088175
:1057A000CE52D140C15DDE4F1881CF52D140C05D95
:1057B000DE4F2881C053D140CF5CDE4F3881C153CA
:1057C000D140CE5CDE4F4881C253D140CD5CDE4F2C
:1057D0005881C353D140CC5CDE4F6881C453D14063
:1057E000CB5CDE4F7881C553D140CA5CDE4F8881E7
:1057F000C653D140C95CDE4F9881C753D1400E9447
:105800002816B8C2C85CDE4F0881C853D140C75CB7
:10581000DE4F1881C953D140C65CDE4F2881CA5380
:10582000D140C55CDE4F3881CB53D140C45CDE4FE4
:105830004881CC53D140C35CDE4F5881CD53D14019
:10584000C25CDE4F6881CE53D140C15CDE4F7881AF
:10585000CF53D140C05CDE4F8881C054D140CF5B74
:10586000DE4F9881C154D1400E94281683C2CE5B7E
:10587000DE4F0881C254D140CD5BDE4F1881C35446
:10588000D140CC5BDE4F2881C454D140CB5BDE4F8E
:105890003881C554D140CA5BDE4F4881C654D140DF
:1058A000C95BDE4F5881C754D140C85BDE4F688169
:1058B000C854D140C75BDE4F7881C954D140C65B24
:1058C000DE4F8881CA54D140C55BDE4F9881CB54EE
:1058D000D1400E9428164EC2C45BDE4F0881CC54D2
:1058E000D140C35BDE4F1881CD54D140C25BDE4F47
:1058F0002881CE54D140C15BDE4F3881CF54D14096
:10590000C05BDE4F4881C055D140CF5ADE4F588131
:10591000C155D140CE5ADE4F6881C255D140CD5AD3
:10592000DE4F7881C355D140CC5ADE4F8881C455B3
:10593000D140CB5ADE4F9881C555D1400E942816E0
:1059400019C2CA5ADE4F0881C655D140C95ADE4F26
:105950001881C755D140C85ADE4F2881C855D1405B
:10596000C75ADE4F3881C955D140C65ADE4F4881EB
:10597000CA55D140C55ADE4F5881CB55D140C45A83
:10598000DE4F6881CC55D140C35ADE4F7881CD556A
:10599000D140C25ADE4F8881CE55D140C15ADE4F28
:1059A0009881CF55D1400E942816E4C1C05ADE4FDD
:1059B0000881C056D140CF59DE4F1881C156D14021
:1059C000CE59DE4F2881C256D140CD59DE4F3881A5
:1059D000C356D140CC59DE4F4881C456D140CB5933
:1059E000DE4F5881C556D140CA59DE4F6881C65630
:1059F000D140C959DE4F7881C756D140C859DE4FD2
:105A00008881C856D140C759DE4F9881C956D140C8
:105A10000E942816AFC1C659DE4F0881CA56D14030
:105A2000C559DE4F1881CB56D140C459DE4F28816D
:105A3000CC56D140C359DE4F3881CD56D140C259E2
:105A4000DE4F4881CE56D140C159DE4F5881CF56E6
:105A5000D140C059DE4F6881C057D140CF58DE4F8A
:105A60007881C157D140CE58DE4F8881C257D1408E
:105A7000CD58DE4F9881C357D1400E9428167AC175
:105A8000CC58DE4F0881C457D140CB58DE4F188127
:105A9000C557D140CA58DE4F2881C657D140C95892
:105AA000DE4F3881C757D140C858DE4F4881C857AC
:105AB000D140C758DE4F5881C957D140C658DE4F34
:105AC0006881CA57D140C558DE4F7881CB57D14045
:105AD000C458DE4F8881CC57D140C358DE4F9881DF
